{"src/contracts/DappCinemas.sol":{"DappCinemas":{"abi":[{"anonymous":false,"inputs":[{"indexed":false,"internalType":"string","name":"actionType","type":"string"}],"name":"Action","type":"event"},{"anonymous":false,"inputs":[{"indexed":true,"internalType":"address","name":"previousOwner","type":"address"},{"indexed":true,"internalType":"address","name":"newOwner","type":"address"}],"name":"OwnershipTransferred","type":"event"},{"inputs":[{"internalType":"string","name":"name","type":"string"},{"internalType":"string","name":"imageUrl","type":"string"},{"internalType":"string","name":"genre","type":"string"},{"internalType":"string","name":"description","type":"string"}],"name":"addMovie","outputs":[],"stateMutability":"nonpayable","type":"function"},{"inputs":[{"internalType":"uint256","name":"movieId","type":"uint256"},{"internalType":"uint256[]","name":"ticketCosts","type":"uint256[]"},{"internalType":"uint256[]","name":"startTimes","type":"uint256[]"},{"internalType":"uint256[]","name":"endTimes","type":"uint256[]"},{"internalType":"uint256[]","name":"capacities","type":"uint256[]"},{"internalType":"uint256[]","name":"viewingDays","type":"uint256[]"}],"name":"addTimeslot","outputs":[],"stateMutability":"nonpayable","type":"function"},{"inputs":[],"name":"balance","outputs":[{"internalType":"uint256","name":"","type":"uint256"}],"stateMutability":"view","type":"function"},{"inputs":[{"internalType":"uint256","name":"movieId","type":"uint256"},{"internalType":"uint256","name":"slotId","type":"uint256"},{"internalType":"uint256","name":"tickets","type":"uint256"}],"name":"buyTicket","outputs":[],"stateMutability":"payable","type":"function"},{"inputs":[{"internalType":"uint256","name":"movieId","type":"uint256"}],"name":"deleteMovie","outputs":[],"stateMutability":"nonpayable","type":"function"},{"inputs":[{"internalType":"uint256","name":"movieId","type":"uint256"},{"internalType":"uint256","name":"slotId","type":"uint256"}],"name":"deleteTimeSlot","outputs":[],"stateMutability":"nonpayable","type":"function"},{"inputs":[{"internalType":"uint256","name":"id","type":"uint256"}],"name":"getMovie","outputs":[{"components":[{"internalType":"uint256","name":"id","type":"uint256"},{"internalType":"string","name":"name","type":"string"},{"internalType":"string","name":"imageUrl","type":"string"},{"internalType":"string","name":"genre","type":"string"},{"internalType":"string","name":"description","type":"string"},{"internalType":"uint256","name":"timestamp","type":"uint256"},{"internalType":"bool","name":"deleted","type":"bool"}],"internalType":"struct DappCinemas.MovieStruct","name":"","type":"tuple"}],"stateMutability":"view","type":"function"},{"inputs":[{"internalType":"uint256","name":"movieId","type":"uint256"},{"internalType":"uint256","name":"slotId","type":"uint256"}],"name":"getMovieTicketHolders","outputs":[{"internalType":"address[]","name":"","type":"address[]"}],"stateMutability":"view","type":"function"},{"inputs":[{"internalType":"uint256","name":"movieId","type":"uint256"}],"name":"getMovieTimeSlots","outputs":[{"internalType":"uint256[]","name":"MovieSlots","type":"uint256[]"}],"stateMutability":"view","type":"function"},{"inputs":[],"name":"getMovies","outputs":[{"components":[{"internalType":"uint256","name":"id","type":"uint256"},{"internalType":"string","name":"name","type":"string"},{"internalType":"string","name":"imageUrl","type":"string"},{"internalType":"string","name":"genre","type":"string"},{"internalType":"string","name":"description","type":"string"},{"internalType":"uint256","name":"timestamp","type":"uint256"},{"internalType":"bool","name":"deleted","type":"bool"}],"internalType":"struct DappCinemas.MovieStruct[]","name":"Movies","type":"tuple[]"}],"stateMutability":"view","type":"function"},{"inputs":[{"internalType":"uint256","name":"slotId","type":"uint256"}],"name":"getTimeSlot","outputs":[{"components":[{"internalType":"uint256","name":"id","type":"uint256"},{"internalType":"uint256","name":"movieId","type":"uint256"},{"internalType":"uint256","name":"ticketCost","type":"uint256"},{"internalType":"uint256","name":"startTime","type":"uint256"},{"internalType":"uint256","name":"endTime","type":"uint256"},{"internalType":"uint256","name":"capacity","type":"uint256"},{"internalType":"uint256","name":"seats","type":"uint256"},{"internalType":"bool","name":"deleted","type":"bool"},{"internalType":"bool","name":"completed","type":"bool"},{"internalType":"uint256","name":"day","type":"uint256"},{"internalType":"uint256","name":"balance","type":"uint256"}],"internalType":"struct DappCinemas.TimeSlotStruct","name":"","type":"tuple"}],"stateMutability":"view","type":"function"},{"inputs":[{"internalType":"uint256","name":"movieId","type":"uint256"}],"name":"getTimeSlots","outputs":[{"components":[{"internalType":"uint256","name":"id","type":"uint256"},{"internalType":"uint256","name":"movieId","type":"uint256"},{"internalType":"uint256","name":"ticketCost","type":"uint256"},{"internalType":"uint256","name":"startTime","type":"uint256"},{"internalType":"uint256","name":"endTime","type":"uint256"},{"internalType":"uint256","name":"capacity","type":"uint256"},{"internalType":"uint256","name":"seats","type":"uint256"},{"internalType":"bool","name":"deleted","type":"bool"},{"internalType":"bool","name":"completed","type":"bool"},{"internalType":"uint256","name":"day","type":"uint256"},{"internalType":"uint256","name":"balance","type":"uint256"}],"internalType":"struct DappCinemas.TimeSlotStruct[]","name":"MovieSlots","type":"tuple[]"}],"stateMutability":"view","type":"function"},{"inputs":[{"internalType":"uint256","name":"movieId","type":"uint256"},{"internalType":"uint256","name":"slotId","type":"uint256"}],"name":"markTimeSlot","outputs":[],"stateMutability":"nonpayable","type":"function"},{"inputs":[],"name":"owner","outputs":[{"internalType":"address","name":"","type":"address"}],"stateMutability":"view","type":"function"},{"inputs":[],"name":"renounceOwnership","outputs":[],"stateMutability":"nonpayable","type":"function"},{"inputs":[{"internalType":"address","name":"newOwner","type":"address"}],"name":"transferOwnership","outputs":[],"stateMutability":"nonpayable","type":"function"},{"inputs":[{"internalType":"uint256","name":"movieId","type":"uint256"},{"internalType":"string","name":"name","type":"string"},{"internalType":"string","name":"imageUrl","type":"string"},{"internalType":"string","name":"genre","type":"string"},{"internalType":"string","name":"description","type":"string"}],"name":"updateMovie","outputs":[],"stateMutability":"nonpayable","type":"function"},{"inputs":[{"internalType":"address","name":"to","type":"address"},{"internalType":"uint256","name":"amount","type":"uint256"}],"name":"withdrawTo","outputs":[],"stateMutability":"nonpayable","type":"function"}],"evm":{"bytecode":{"linkReferences":{},"object":"608060405234801561001057600080fd5b5061001a3361001f565b61006f565b600080546001600160a01b038381166001600160a01b0319831681178455604051919092169283917f8be0079c531659141344cd1fd0a4f28419497f9722a3daafe3b4186f6b6457e09190a35050565b612b06806200007f6000396000f3fe6080604052600436106101095760003560e01c806377340bba11610095578063af875f3511610064578063af875f35146102ec578063b69ef8a814610319578063bd4c5d241461033d578063c4c6710d1461035d578063f2fde38b1461037057600080fd5b806377340bba146102575780637cd35a0a146102775780638da5cb5b146102a45780638f70d440146102cc57600080fd5b80632e130aca116100dc5780632e130aca146101b557806345e9a8fc146101e257806358a9525b146102025780636b4f6cb714610222578063715018a61461024257600080fd5b8063179ffe761461010e578063205c2878146101445780632b85dcc9146101665780632c53b40614610193575b600080fd5b34801561011a57600080fd5b5061012e6101293660046122f3565b610390565b60405161013b91906123e8565b60405180910390f35b34801561015057600080fd5b5061016461015f36600461241e565b610628565b005b34801561017257600080fd5b506101866101813660046122f3565b6106a1565b60405161013b91906124c0565b34801561019f57600080fd5b506101a8610741565b60405161013b91906124cf565b3480156101c157600080fd5b506101d56101d03660046122f3565b610ad9565b60405161013b9190612531565b3480156101ee57600080fd5b506101646101fd366004612575565b610cc5565b34801561020e57600080fd5b5061016461021d366004612575565b610dc6565b34801561022e57600080fd5b5061016461023d3660046122f3565b610f99565b34801561024e57600080fd5b5061016461111b565b34801561026357600080fd5b5061016461027236600461265e565b61112f565b34801561028357600080fd5b506102976102923660046122f3565b61152d565b60405161013b9190612738565b3480156102b057600080fd5b506000546040516001600160a01b03909116815260200161013b565b3480156102d857600080fd5b506101646102e73660046127eb565b61174d565b3480156102f857600080fd5b5061030c610307366004612575565b611a00565b60405161013b9190612898565b34801561032557600080fd5b5061032f60045481565b60405190815260200161013b565b34801561034957600080fd5b506101646103583660046128d9565b611a76565b61016461036b366004612990565b611d96565b34801561037c57600080fd5b5061016461038b3660046129bc565b611ffc565b61039861219f565b600660008381526020019081526020016000206040518060e0016040529081600082015481526020016001820180546103d0906129d7565b80601f01602080910402602001604051908101604052809291908181526020018280546103fc906129d7565b80156104495780601f1061041e57610100808354040283529160200191610449565b820191906000526020600020905b81548152906001019060200180831161042c57829003601f168201915b50505050508152602001600282018054610462906129d7565b80601f016020809104026020016040519081016040528092919081815260200182805461048e906129d7565b80156104db5780601f106104b0576101008083540402835291602001916104db565b820191906000526020600020905b8154815290600101906020018083116104be57829003601f168201915b505050505081526020016003820180546104f4906129d7565b80601f0160208091040260200160405190810160405280929190818152602001828054610520906129d7565b801561056d5780601f106105425761010080835404028352916020019161056d565b820191906000526020600020905b81548152906001019060200180831161055057829003601f168201915b50505050508152602001600482018054610586906129d7565b80601f01602080910402602001604051908101604052809291908181526020018280546105b2906129d7565b80156105ff5780601f106105d4576101008083540402835291602001916105ff565b820191906000526020600020905b8154815290600101906020018083116105e257829003601f168201915b50505091835250506005820154602082015260069091015460ff16151560409091015292915050565b610630612075565b80600454101561067b5760405162461bcd60e51b8152602060048201526011602482015270125b9cdd59999a58da595b9d08199d5b99607a1b60448201526064015b60405180910390fd5b806004600082825461068d9190612a28565b9091555061069d905082826120cf565b5050565b6106a96121de565b50600090815260076020818152604092839020835161016081018552815481526001820154928101929092526002810154938201939093526003830154606082015260048301546080820152600583015460a0820152600683015460c08201529082015460ff808216151560e08401526101009182900416151590820152600882015461012082015260099091015461014082015290565b6060600060015b600154811161078b576000818152600660208190526040909120015460ff16610779578161077581612a3f565b9250505b8061078381612a3f565b915050610748565b508067ffffffffffffffff8111156107a5576107a5612597565b6040519080825280602002602001820160405280156107de57816020015b6107cb61219f565b8152602001906001900390816107c35790505b509150600060015b6001548111610ad3576000818152600660208190526040909120015460ff16610ac157600660008281526020019081526020016000206040518060e001604052908160008201548152602001600182018054610841906129d7565b80601f016020809104026020016040519081016040528092919081815260200182805461086d906129d7565b80156108ba5780601f1061088f576101008083540402835291602001916108ba565b820191906000526020600020905b81548152906001019060200180831161089d57829003601f168201915b505050505081526020016002820180546108d3906129d7565b80601f01602080910402602001604051908101604052809291908181526020018280546108ff906129d7565b801561094c5780601f106109215761010080835404028352916020019161094c565b820191906000526020600020905b81548152906001019060200180831161092f57829003601f168201915b50505050508152602001600382018054610965906129d7565b80601f0160208091040260200160405190810160405280929190818152602001828054610991906129d7565b80156109de5780601f106109b3576101008083540402835291602001916109de565b820191906000526020600020905b8154815290600101906020018083116109c157829003601f168201915b505050505081526020016004820180546109f7906129d7565b80601f0160208091040260200160405190810160405280929190818152602001828054610a23906129d7565b8015610a705780601f10610a4557610100808354040283529160200191610a70565b820191906000526020600020905b815481529060010190602001808311610a5357829003601f168201915b50505091835250506005820154602082015260069091015460ff1615156040909101528451859084908110610aa757610aa7612a5a565b60200260200101819052508180610abd90612a3f565b9250505b80610acb81612a3f565b9150506107e6565b50505090565b60606000805b600354811015610b60578360076000610af9846001612a70565b815260200190815260200160002060010154148015610b3b575060076000610b22836001612a70565b815260208101919091526040016000206007015460ff16155b15610b4e5781610b4a81612a3f565b9250505b80610b5881612a3f565b915050610adf565b50610b6c816002612a88565b67ffffffffffffffff811115610b8457610b84612597565b604051908082528060200260200182016040528015610bad578160200160208202803683370190505b5091506000805b600354811015610cbd578460076000610bce846001612a70565b815260200190815260200160002060010154148015610c10575060076000610bf7836001612a70565b815260208101919091526040016000206007015460ff16155b15610cab5760076000610c24836001612a70565b815260200190815260200160002060030154848380610c4290612a3f565b945081518110610c5457610c54612a5a565b602090810291909101015260076000610c6e836001612a70565b815260200190815260200160002060040154848380610c8c90612a3f565b945081518110610c9e57610c9e612a5a565b6020026020010181815250505b80610cb581612a3f565b915050610bb4565b505050919050565b610ccd612075565b60008281526005602052604090205460ff168015610cfb575060008181526007602052604090206001015482145b610d175760405162461bcd60e51b815260040161067290612aa7565b6000818152600760208190526040909120015460ff1615610d755760405162461bcd60e51b8152602060048201526018602482015277151a5b595cdb1bdd08185b1c9958591e4819195b195d195960421b6044820152606401610672565b60008181526007602081905260408220908101805461ff001916610100179055600901546004805491929091610dac908490612a70565b909155505060009081526007602052604081206009015550565b610dce612075565b60008281526005602052604090205460ff168015610dfc575060008181526007602052604090206001015482145b610e185760405162461bcd60e51b815260040161067290612aa7565b6000818152600760208190526040909120015460ff1615610e765760405162461bcd60e51b8152602060048201526018602482015277151a5b595cdb1bdd08185b1c9958591e4819195b195d195960421b6044820152606401610672565b60005b6000838152600860209081526040808320858452909152902054811015610f0c57600083815260086020908152604080832085845290915290208054610efa919083908110610eca57610eca612a5a565b600091825260208083209091015485835260079091526040909120600201546001600160a01b03909116906120cf565b80610f0481612a3f565b915050610e79565b506000818152600760208181526040808420808401805460ff19166001179055868552600883528185208686528352932054919052600290910154610f519190612a88565b60008281526007602052604081206009018054909190610f72908490612a28565b90915550506000828152600860209081526040808320848452909152812061069d9161223c565b610fa1612075565b60008181526005602052604090205460ff16610ff65760405162461bcd60e51b81526020600482015260146024820152734d6f76696520646f65736e27742065786973742160601b6044820152606401610672565b60015b60035481116110e857600082815260086020908152604080832084845282528083208054825181850281018501909352808352919290919083018282801561106a57602002820191906000526020600020905b81546001600160a01b0316815260019091019060200180831161104c575b5050505050905080516000146110d55760405162461bcd60e51b815260206004820152602a60248201527f43616e6e6f742064656c657465206d6f766965207769746820707572636861736044820152696564207469636b65747360b01b6064820152608401610672565b50806110e081612a3f565b915050610ff9565b506000908152600660208181526040808420909201805460ff199081166001179091556005909152912080549091169055565b611123612075565b61112d6000612134565b565b611137612075565b60008681526005602052604090205460ff166111655760405162461bcd60e51b815260040161067290612aa7565b60008551116111b65760405162461bcd60e51b815260206004820152601e60248201527f5469636b65747320636f7374206d757374206e6f7420626520656d70747900006044820152606401610672565b60008251116112075760405162461bcd60e51b815260206004820152601c60248201527f43617061636974696573206d757374206e6f7420626520656d707479000000006044820152606401610672565b60008451116112635760405162461bcd60e51b815260206004820152602260248201527f53746172742074696d657320636f7374206d757374206e6f7420626520656d70604482015261747960f01b6064820152608401610672565b60008351116112b45760405162461bcd60e51b815260206004820181905260248201527f456e642074696d657320636f7374206d757374206e6f7420626520656d7074796044820152606401610672565b60008151116113055760405162461bcd60e51b815260206004820152601e60248201527f56696577696e672064617973206d757374206e6f7420626520656d70747900006044820152606401610672565b80518551148015611317575081518151145b8015611324575083518251145b8015611331575082518451145b801561133e575080518351145b61139e5760405162461bcd60e51b815260206004820152602b60248201527f416c6c20706172616d6574657273206d757374206861766520657175616c206160448201526a0e4e4c2f240d8cadccee8d60ab1b6064820152608401610672565b60005b8151811015611524576113b8600380546001019055565b6113c06121de565b60035481526020810188905286518790839081106113e0576113e0612a5a565b602002602001015181604001818152505085828151811061140357611403612a5a565b602002602001015181606001818152505084828151811061142657611426612a5a565b602002602001015181608001818152505082828151811061144957611449612a5a565b60200260200101518161012001818152505083828151811061146d5761146d612a5a565b60209081029190910181015160a083019081528251600090815260078084526040918290208551815593850151600185015590840151600284015560608401516003840155608084015160048401559051600583015560c0830151600683015560e083015190820180546101008086015115150261ff00199315159390931661ffff19909116179190911790556101208201516008820155610140909101516009909101558061151c81612a3f565b9150506113a1565b50505050505050565b60606000805b6003548110156115b457836007600061154d846001612a70565b81526020019081526020016000206001015414801561158f575060076000611576836001612a70565b815260208101919091526040016000206007015460ff16155b156115a2578161159e81612a3f565b9250505b806115ac81612a3f565b915050611533565b508067ffffffffffffffff8111156115ce576115ce612597565b60405190808252806020026020018201604052801561160757816020015b6115f46121de565b8152602001906001900390816115ec5790505b5091506000805b600354811015610cbd578460076000611628846001612a70565b81526020019081526020016000206001015414801561166a575060076000611651836001612a70565b815260208101919091526040016000206007015460ff16155b1561173b576007600061167e836001612a70565b81526020808201929092526040908101600020815161016081018352815481526001820154938101939093526002810154918301919091526003810154606083015260048101546080830152600581015460a0830152600681015460c0830152600781015460ff808216151560e08501526101009182900416151590830152600881015461012083015260090154610140820152848361171d81612a3f565b94508151811061172f5761172f612a5a565b60200260200101819052505b8061174581612a3f565b91505061160e565b611755612075565b600084511161179c5760405162461bcd60e51b8152602060048201526013602482015272135bdd9a59481b985b59481c995c5d5a5c9959606a1b6044820152606401610672565b60008351116117ed5760405162461bcd60e51b815260206004820152601860248201527f4d6f76696520696d6167652075726c20726571756972656400000000000000006044820152606401610672565b60008251116118355760405162461bcd60e51b8152602060048201526014602482015273135bdd9a594819d95b9c99481c995c5d5a5c995960621b6044820152606401610672565b60008151116118865760405162461bcd60e51b815260206004820152601a60248201527f4d6f766965206465736372697074696f6e2072657175697265640000000000006044820152606401610672565b611894600180546001019055565b61189c61219f565b6001548152602081018590526040810184905260608101839052608081018290526118c5612184565b60a0820152805160009081526006602090815260409091208251815581830151805184936118fa92600185019291019061225a565b506040820151805161191691600284019160209091019061225a565b506060820151805161193291600384019160209091019061225a565b506080820151805161194e91600484019160209091019061225a565b5060a082015160058083019190915560c0909201516006909101805491151560ff199283161790558251600090815260209290925260409182902080549091166001179055517f8b2c14fe955d044ef95ba32b88d2ceb87c6f73fcefdcebe906063a6d75690f27906119f19060208082526018908201527f4d6f766965206164646564207375636365737366756c6c790000000000000000604082015260600190565b60405180910390a15050505050565b6000828152600860209081526040808320848452825291829020805483518184028101840190945280845260609392830182828015611a6857602002820191906000526020600020905b81546001600160a01b03168152600190910190602001808311611a4a575b505050505090505b92915050565b611a7e612075565b60008581526005602052604090205460ff16611ad35760405162461bcd60e51b81526020600482015260146024820152734d6f76696520646f65736e27742065786973742160601b6044820152606401610672565b6000845111611b1a5760405162461bcd60e51b8152602060048201526013602482015272135bdd9a59481b985b59481c995c5d5a5c9959606a1b6044820152606401610672565b6000835111611b6b5760405162461bcd60e51b815260206004820152601860248201527f4d6f76696520696d6167652055524c20726571756972656400000000000000006044820152606401610672565b6000825111611bb35760405162461bcd60e51b8152602060048201526014602482015273135bdd9a594819d95b9c99481c995c5d5a5c995960621b6044820152606401610672565b6000815111611c045760405162461bcd60e51b815260206004820152601a60248201527f4d6f766965206465736372697074696f6e2072657175697265640000000000006044820152606401610672565b60015b6003548111611c9e5760008681526008602090815260408083208484529091529020805415611c8b5760405162461bcd60e51b815260206004820152602a60248201527f43616e6e6f7420757064617465206d6f766965207769746820707572636861736044820152696564207469636b65747360b01b6064820152608401610672565b5080611c9681612a3f565b915050611c07565b5060008581526006602090815260409091208551611cc49260019092019187019061225a565b5060008581526006602090815260409091208451611cea9260029092019186019061225a565b5060008581526006602090815260409091208351611d109260039092019185019061225a565b5060008581526006602090815260409091208251611d369260049092019184019061225a565b507f8b2c14fe955d044ef95ba32b88d2ceb87c6f73fcefdcebe906063a6d75690f276040516119f1906020808252601a908201527f4d6f7669652075706461746564207375636365737366756c6c79000000000000604082015260600190565b60008381526005602052604090205460ff168015611dc4575060008281526007602052604090206001015483145b611de05760405162461bcd60e51b815260040161067290612aa7565b600082815260076020526040902060020154611dfd908290612a88565b341015611e425760405162461bcd60e51b8152602060048201526013602482015272125b9cdd59999a58da595b9d08185b5bdd5b9d606a1b6044820152606401610672565b6000828152600760205260409020600681015460059091015411611e9a5760405162461bcd60e51b815260206004820152600f60248201526e4f7574206f6620636170616369747960881b6044820152606401610672565b60005b81811015611f8d57611eb3600280546001019055565b611efc6040518060e0016040528060008152602001600081526020016000815260200160006001600160a01b031681526020016000815260200160008152602001600081525090565b6002805482526000858152600760208181526040808420948501546080870152928890525260089091015460c08301528101849052336060820152611f3f612184565b60a090910152600084815260086020908152604080832086845282528220805460018101825590835291200180546001600160a01b0319163317905580611f8581612a3f565b915050611e9d565b5060008281526007602052604081206006018054839290611faf908490612a70565b9091555050600082815260076020526040902060020154611fd1908290612a88565b60008381526007602052604081206009018054909190611ff2908490612a70565b9091555050505050565b612004612075565b6001600160a01b0381166120695760405162461bcd60e51b815260206004820152602660248201527f4f776e61626c653a206e6577206f776e657220697320746865207a65726f206160448201526564647265737360d01b6064820152608401610672565b61207281612134565b50565b6000546001600160a01b0316331461112d5760405162461bcd60e51b815260206004820181905260248201527f4f776e61626c653a2063616c6c6572206973206e6f7420746865206f776e65726044820152606401610672565b6000826001600160a01b03168260405160006040518083038185875af1925050503d806000811461211c576040519150601f19603f3d011682016040523d82523d6000602084013e612121565b606091505b505090508061212f57600080fd5b505050565b600080546001600160a01b038381166001600160a01b0319831681178455604051919092169283917f8be0079c531659141344cd1fd0a4f28419497f9722a3daafe3b4186f6b6457e09190a35050565b600080612193426103e8612a88565b611a70906103e8612a70565b6040518060e001604052806000815260200160608152602001606081526020016060815260200160608152602001600081526020016000151581525090565b6040518061016001604052806000815260200160008152602001600081526020016000815260200160008152602001600081526020016000815260200160001515815260200160001515815260200160008152602001600081525090565b508054600082559060005260206000209081019061207291906122de565b828054612266906129d7565b90600052602060002090601f01602090048101928261228857600085556122ce565b82601f106122a157805160ff19168380011785556122ce565b828001600101855582156122ce579182015b828111156122ce5782518255916020019190600101906122b3565b506122da9291506122de565b5090565b5b808211156122da57600081556001016122df565b60006020828403121561230557600080fd5b5035919050565b6000815180845260005b8181101561233257602081850181015186830182015201612316565b81811115612344576000602083870101525b50601f01601f19169290920160200192915050565b805182526000602082015160e0602085015261237860e085018261230c565b905060408301518482036040860152612391828261230c565b915050606083015184820360608601526123ab828261230c565b915050608083015184820360808601526123c5828261230c565b91505060a083015160a085015260c0830151151560c08501528091505092915050565b6020815260006123fb6020830184612359565b9392505050565b80356001600160a01b038116811461241957600080fd5b919050565b6000806040838503121561243157600080fd5b61243a83612402565b946020939093013593505050565b805182526020810151602083015260408101516040830152606081015160608301526080810151608083015260a081015160a083015260c081015160c083015260e081015161249b60e084018215159052565b5061010081810151151590830152610120808201519083015261014090810151910152565b6101608101611a708284612448565b6000602080830181845280855180835260408601915060408160051b870101925083870160005b8281101561252457603f19888603018452612512858351612359565b945092850192908501906001016124f6565b5092979650505050505050565b6020808252825182820181905260009190848201906040850190845b818110156125695783518352928401929184019160010161254d565b50909695505050505050565b6000806040838503121561258857600080fd5b50508035926020909101359150565b634e487b7160e01b600052604160045260246000fd5b604051601f8201601f1916810167ffffffffffffffff811182821017156125d6576125d6612597565b604052919050565b600082601f8301126125ef57600080fd5b8135602067ffffffffffffffff82111561260b5761260b612597565b8160051b61261a8282016125ad565b928352848101820192828101908785111561263457600080fd5b83870192505b848310156126535782358252918301919083019061263a565b979650505050505050565b60008060008060008060c0878903121561267757600080fd5b86359550602087013567ffffffffffffffff8082111561269657600080fd5b6126a28a838b016125de565b965060408901359150808211156126b857600080fd5b6126c48a838b016125de565b955060608901359150808211156126da57600080fd5b6126e68a838b016125de565b945060808901359150808211156126fc57600080fd5b6127088a838b016125de565b935060a089013591508082111561271e57600080fd5b5061272b89828a016125de565b9150509295509295509295565b6020808252825182820181905260009190848201906040850190845b8181101561256957612767838551612448565b928401926101609290920191600101612754565b600082601f83011261278c57600080fd5b813567ffffffffffffffff8111156127a6576127a6612597565b6127b9601f8201601f19166020016125ad565b8181528460208386010111156127ce57600080fd5b816020850160208301376000918101602001919091529392505050565b6000806000806080858703121561280157600080fd5b843567ffffffffffffffff8082111561281957600080fd5b6128258883890161277b565b9550602087013591508082111561283b57600080fd5b6128478883890161277b565b9450604087013591508082111561285d57600080fd5b6128698883890161277b565b9350606087013591508082111561287f57600080fd5b5061288c8782880161277b565b91505092959194509250565b6020808252825182820181905260009190848201906040850190845b818110156125695783516001600160a01b0316835292840192918401916001016128b4565b600080600080600060a086880312156128f157600080fd5b85359450602086013567ffffffffffffffff8082111561291057600080fd5b61291c89838a0161277b565b9550604088013591508082111561293257600080fd5b61293e89838a0161277b565b9450606088013591508082111561295457600080fd5b61296089838a0161277b565b9350608088013591508082111561297657600080fd5b506129838882890161277b565b9150509295509295909350565b6000806000606084860312156129a557600080fd5b505081359360208301359350604090920135919050565b6000602082840312156129ce57600080fd5b6123fb82612402565b600181811c908216806129eb57607f821691505b60208210811415612a0c57634e487b7160e01b600052602260045260246000fd5b50919050565b634e487b7160e01b600052601160045260246000fd5b600082821015612a3a57612a3a612a12565b500390565b6000600019821415612a5357612a53612a12565b5060010190565b634e487b7160e01b600052603260045260246000fd5b60008219821115612a8357612a83612a12565b500190565b6000816000190483118215151615612aa257612aa2612a12565b500290565b6020808252600f908201526e135bdd9a59481b9bdd08199bdd5b99608a1b60408201526060019056fea26469706673582212200d820a8618d541b8907b5c094a8a882a1a593bac9ca6cfdf31a527548066687464736f6c634300080b0033","opcodes":"PUSH1 0x80 PUSH1 0x40 MSTORE CALLVALUE DUP1 ISZERO PUSH2 0x10 JUMPI PUSH1 0x0 DUP1 REVERT JUMPDEST POP PUSH2 0x1A CALLER PUSH2 0x1F JUMP JUMPDEST PUSH2 0x6F JUMP JUMPDEST PUSH1 0x0 DUP1 SLOAD PUSH1 0x1 PUSH1 0x1 PUSH1 0xA0 SHL SUB DUP4 DUP2 AND PUSH1 0x1 PUSH1 0x1 PUSH1 0xA0 SHL SUB NOT DUP4 AND DUP2 OR DUP5 SSTORE PUSH1 0x40 MLOAD SWAP2 SWAP1 SWAP3 AND SWAP3 DUP4 SWAP2 PUSH32 0x8BE0079C531659141344CD1FD0A4F28419497F9722A3DAAFE3B4186F6B6457E0 SWAP2 SWAP1 LOG3 POP POP JUMP JUMPDEST PUSH2 0x2B06 DUP1 PUSH3 0x7F PUSH1 0x0 CODECOPY PUSH1 0x0 RETURN INVALID PUSH1 0x80 PUSH1 0x40 MSTORE PUSH1 0x4 CALLDATASIZE LT PUSH2 0x109 JUMPI PUSH1 0x0 CALLDATALOAD PUSH1 0xE0 SHR DUP1 PUSH4 0x77340BBA GT PUSH2 0x95 JUMPI DUP1 PUSH4 0xAF875F35 GT PUSH2 0x64 JUMPI DUP1 PUSH4 0xAF875F35 EQ PUSH2 0x2EC JUMPI DUP1 PUSH4 0xB69EF8A8 EQ PUSH2 0x319 JUMPI DUP1 PUSH4 0xBD4C5D24 EQ PUSH2 0x33D JUMPI DUP1 PUSH4 0xC4C6710D EQ PUSH2 0x35D JUMPI DUP1 PUSH4 0xF2FDE38B EQ PUSH2 0x370 JUMPI PUSH1 0x0 DUP1 REVERT JUMPDEST DUP1 PUSH4 0x77340BBA EQ PUSH2 0x257 JUMPI DUP1 PUSH4 0x7CD35A0A EQ PUSH2 0x277 JUMPI DUP1 PUSH4 0x8DA5CB5B EQ PUSH2 0x2A4 JUMPI DUP1 PUSH4 0x8F70D440 EQ PUSH2 0x2CC JUMPI PUSH1 0x0 DUP1 REVERT JUMPDEST DUP1 PUSH4 0x2E130ACA GT PUSH2 0xDC JUMPI DUP1 PUSH4 0x2E130ACA EQ PUSH2 0x1B5 JUMPI DUP1 PUSH4 0x45E9A8FC EQ PUSH2 0x1E2 JUMPI DUP1 PUSH4 0x58A9525B EQ PUSH2 0x202 JUMPI DUP1 PUSH4 0x6B4F6CB7 EQ PUSH2 0x222 JUMPI DUP1 PUSH4 0x715018A6 EQ PUSH2 0x242 JUMPI PUSH1 0x0 DUP1 REVERT JUMPDEST DUP1 PUSH4 0x179FFE76 EQ PUSH2 0x10E JUMPI DUP1 PUSH4 0x205C2878 EQ PUSH2 0x144 JUMPI DUP1 PUSH4 0x2B85DCC9 EQ PUSH2 0x166 JUMPI DUP1 PUSH4 0x2C53B406 EQ PUSH2 0x193 JUMPI JUMPDEST PUSH1 0x0 DUP1 REVERT JUMPDEST CALLVALUE DUP1 ISZERO PUSH2 0x11A JUMPI PUSH1 0x0 DUP1 REVERT JUMPDEST POP PUSH2 0x12E PUSH2 0x129 CALLDATASIZE PUSH1 0x4 PUSH2 0x22F3 JUMP JUMPDEST PUSH2 0x390 JUMP JUMPDEST PUSH1 0x40 MLOAD PUSH2 0x13B SWAP2 SWAP1 PUSH2 0x23E8 JUMP JUMPDEST PUSH1 0x40 MLOAD DUP1 SWAP2 SUB SWAP1 RETURN JUMPDEST CALLVALUE DUP1 ISZERO PUSH2 0x150 JUMPI PUSH1 0x0 DUP1 REVERT JUMPDEST POP PUSH2 0x164 PUSH2 0x15F CALLDATASIZE PUSH1 0x4 PUSH2 0x241E JUMP JUMPDEST PUSH2 0x628 JUMP JUMPDEST STOP JUMPDEST CALLVALUE DUP1 ISZERO PUSH2 0x172 JUMPI PUSH1 0x0 DUP1 REVERT JUMPDEST POP PUSH2 0x186 PUSH2 0x181 CALLDATASIZE PUSH1 0x4 PUSH2 0x22F3 JUMP JUMPDEST PUSH2 0x6A1 JUMP JUMPDEST PUSH1 0x40 MLOAD PUSH2 0x13B SWAP2 SWAP1 PUSH2 0x24C0 JUMP JUMPDEST CALLVALUE DUP1 ISZERO PUSH2 0x19F JUMPI PUSH1 0x0 DUP1 REVERT JUMPDEST POP PUSH2 0x1A8 PUSH2 0x741 JUMP JUMPDEST PUSH1 0x40 MLOAD PUSH2 0x13B SWAP2 SWAP1 PUSH2 0x24CF JUMP JUMPDEST CALLVALUE DUP1 ISZERO PUSH2 0x1C1 JUMPI PUSH1 0x0 DUP1 REVERT JUMPDEST POP PUSH2 0x1D5 PUSH2 0x1D0 CALLDATASIZE PUSH1 0x4 PUSH2 0x22F3 JUMP JUMPDEST PUSH2 0xAD9 JUMP JUMPDEST PUSH1 0x40 MLOAD PUSH2 0x13B SWAP2 SWAP1 PUSH2 0x2531 JUMP JUMPDEST CALLVALUE DUP1 ISZERO PUSH2 0x1EE JUMPI PUSH1 0x0 DUP1 REVERT JUMPDEST POP PUSH2 0x164 PUSH2 0x1FD CALLDATASIZE PUSH1 0x4 PUSH2 0x2575 JUMP JUMPDEST PUSH2 0xCC5 JUMP JUMPDEST CALLVALUE DUP1 ISZERO PUSH2 0x20E JUMPI PUSH1 0x0 DUP1 REVERT JUMPDEST POP PUSH2 0x164 PUSH2 0x21D CALLDATASIZE PUSH1 0x4 PUSH2 0x2575 JUMP JUMPDEST PUSH2 0xDC6 JUMP JUMPDEST CALLVALUE DUP1 ISZERO PUSH2 0x22E JUMPI PUSH1 0x0 DUP1 REVERT JUMPDEST POP PUSH2 0x164 PUSH2 0x23D CALLDATASIZE PUSH1 0x4 PUSH2 0x22F3 JUMP JUMPDEST PUSH2 0xF99 JUMP JUMPDEST CALLVALUE DUP1 ISZERO PUSH2 0x24E JUMPI PUSH1 0x0 DUP1 REVERT JUMPDEST POP PUSH2 0x164 PUSH2 0x111B JUMP JUMPDEST CALLVALUE DUP1 ISZERO PUSH2 0x263 JUMPI PUSH1 0x0 DUP1 REVERT JUMPDEST POP PUSH2 0x164 PUSH2 0x272 CALLDATASIZE PUSH1 0x4 PUSH2 0x265E JUMP JUMPDEST PUSH2 0x112F JUMP JUMPDEST CALLVALUE DUP1 ISZERO PUSH2 0x283 JUMPI PUSH1 0x0 DUP1 REVERT JUMPDEST POP PUSH2 0x297 PUSH2 0x292 CALLDATASIZE PUSH1 0x4 PUSH2 0x22F3 JUMP JUMPDEST PUSH2 0x152D JUMP JUMPDEST PUSH1 0x40 MLOAD PUSH2 0x13B SWAP2 SWAP1 PUSH2 0x2738 JUMP JUMPDEST CALLVALUE DUP1 ISZERO PUSH2 0x2B0 JUMPI PUSH1 0x0 DUP1 REVERT JUMPDEST POP PUSH1 0x0 SLOAD PUSH1 0x40 MLOAD PUSH1 0x1 PUSH1 0x1 PUSH1 0xA0 SHL SUB SWAP1 SWAP2 AND DUP2 MSTORE PUSH1 0x20 ADD PUSH2 0x13B JUMP JUMPDEST CALLVALUE DUP1 ISZERO PUSH2 0x2D8 JUMPI PUSH1 0x0 DUP1 REVERT JUMPDEST POP PUSH2 0x164 PUSH2 0x2E7 CALLDATASIZE PUSH1 0x4 PUSH2 0x27EB JUMP JUMPDEST PUSH2 0x174D JUMP JUMPDEST CALLVALUE DUP1 ISZERO PUSH2 0x2F8 JUMPI PUSH1 0x0 DUP1 REVERT JUMPDEST POP PUSH2 0x30C PUSH2 0x307 CALLDATASIZE PUSH1 0x4 PUSH2 0x2575 JUMP JUMPDEST PUSH2 0x1A00 JUMP JUMPDEST PUSH1 0x40 MLOAD PUSH2 0x13B SWAP2 SWAP1 PUSH2 0x2898 JUMP JUMPDEST CALLVALUE DUP1 ISZERO PUSH2 0x325 JUMPI PUSH1 0x0 DUP1 REVERT JUMPDEST POP PUSH2 0x32F PUSH1 0x4 SLOAD DUP2 JUMP JUMPDEST PUSH1 0x40 MLOAD SWAP1 DUP2 MSTORE PUSH1 0x20 ADD PUSH2 0x13B JUMP JUMPDEST CALLVALUE DUP1 ISZERO PUSH2 0x349 JUMPI PUSH1 0x0 DUP1 REVERT JUMPDEST POP PUSH2 0x164 PUSH2 0x358 CALLDATASIZE PUSH1 0x4 PUSH2 0x28D9 JUMP JUMPDEST PUSH2 0x1A76 JUMP JUMPDEST PUSH2 0x164 PUSH2 0x36B CALLDATASIZE PUSH1 0x4 PUSH2 0x2990 JUMP JUMPDEST PUSH2 0x1D96 JUMP JUMPDEST CALLVALUE DUP1 ISZERO PUSH2 0x37C JUMPI PUSH1 0x0 DUP1 REVERT JUMPDEST POP PUSH2 0x164 PUSH2 0x38B CALLDATASIZE PUSH1 0x4 PUSH2 0x29BC JUMP JUMPDEST PUSH2 0x1FFC JUMP JUMPDEST PUSH2 0x398 PUSH2 0x219F JUMP JUMPDEST PUSH1 0x6 PUSH1 0x0 DUP4 DUP2 MSTORE PUSH1 0x20 ADD SWAP1 DUP2 MSTORE PUSH1 0x20 ADD PUSH1 0x0 KECCAK256 PUSH1 0x40 MLOAD DUP1 PUSH1 0xE0 ADD PUSH1 0x40 MSTORE SWAP1 DUP2 PUSH1 0x0 DUP3 ADD SLOAD DUP2 MSTORE PUSH1 0x20 ADD PUSH1 0x1 DUP3 ADD DUP1 SLOAD PUSH2 0x3D0 SWAP1 PUSH2 0x29D7 JUMP JUMPDEST DUP1 PUSH1 0x1F ADD PUSH1 0x20 DUP1 SWAP2 DIV MUL PUSH1 0x20 ADD PUSH1 0x40 MLOAD SWAP1 DUP2 ADD PUSH1 0x40 MSTORE DUP1 SWAP3 SWAP2 SWAP1 DUP2 DUP2 MSTORE PUSH1 0x20 ADD DUP3 DUP1 SLOAD PUSH2 0x3FC SWAP1 PUSH2 0x29D7 JUMP JUMPDEST DUP1 ISZERO PUSH2 0x449 JUMPI DUP1 PUSH1 0x1F LT PUSH2 0x41E JUMPI PUSH2 0x100 DUP1 DUP4 SLOAD DIV MUL DUP4 MSTORE SWAP2 PUSH1 0x20 ADD SWAP2 PUSH2 0x449 JUMP JUMPDEST DUP3 ADD SWAP2 SWAP1 PUSH1 0x0 MSTORE PUSH1 0x20 PUSH1 0x0 KECCAK256 SWAP1 JUMPDEST DUP2 SLOAD DUP2 MSTORE SWAP1 PUSH1 0x1 ADD SWAP1 PUSH1 0x20 ADD DUP1 DUP4 GT PUSH2 0x42C JUMPI DUP3 SWAP1 SUB PUSH1 0x1F AND DUP3 ADD SWAP2 JUMPDEST POP POP POP POP POP DUP2 MSTORE PUSH1 0x20 ADD PUSH1 0x2 DUP3 ADD DUP1 SLOAD PUSH2 0x462 SWAP1 PUSH2 0x29D7 JUMP JUMPDEST DUP1 PUSH1 0x1F ADD PUSH1 0x20 DUP1 SWAP2 DIV MUL PUSH1 0x20 ADD PUSH1 0x40 MLOAD SWAP1 DUP2 ADD PUSH1 0x40 MSTORE DUP1 SWAP3 SWAP2 SWAP1 DUP2 DUP2 MSTORE PUSH1 0x20 ADD DUP3 DUP1 SLOAD PUSH2 0x48E SWAP1 PUSH2 0x29D7 JUMP JUMPDEST DUP1 ISZERO PUSH2 0x4DB JUMPI DUP1 PUSH1 0x1F LT PUSH2 0x4B0 JUMPI PUSH2 0x100 DUP1 DUP4 SLOAD DIV MUL DUP4 MSTORE SWAP2 PUSH1 0x20 ADD SWAP2 PUSH2 0x4DB JUMP JUMPDEST DUP3 ADD SWAP2 SWAP1 PUSH1 0x0 MSTORE PUSH1 0x20 PUSH1 0x0 KECCAK256 SWAP1 JUMPDEST DUP2 SLOAD DUP2 MSTORE SWAP1 PUSH1 0x1 ADD SWAP1 PUSH1 0x20 ADD DUP1 DUP4 GT PUSH2 0x4BE JUMPI DUP3 SWAP1 SUB PUSH1 0x1F AND DUP3 ADD SWAP2 JUMPDEST POP POP POP POP POP DUP2 MSTORE PUSH1 0x20 ADD PUSH1 0x3 DUP3 ADD DUP1 SLOAD PUSH2 0x4F4 SWAP1 PUSH2 0x29D7 JUMP JUMPDEST DUP1 PUSH1 0x1F ADD PUSH1 0x20 DUP1 SWAP2 DIV MUL PUSH1 0x20 ADD PUSH1 0x40 MLOAD SWAP1 DUP2 ADD PUSH1 0x40 MSTORE DUP1 SWAP3 SWAP2 SWAP1 DUP2 DUP2 MSTORE PUSH1 0x20 ADD DUP3 DUP1 SLOAD PUSH2 0x520 SWAP1 PUSH2 0x29D7 JUMP JUMPDEST DUP1 ISZERO PUSH2 0x56D JUMPI DUP1 PUSH1 0x1F LT PUSH2 0x542 JUMPI PUSH2 0x100 DUP1 DUP4 SLOAD DIV MUL DUP4 MSTORE SWAP2 PUSH1 0x20 ADD SWAP2 PUSH2 0x56D JUMP JUMPDEST DUP3 ADD SWAP2 SWAP1 PUSH1 0x0 MSTORE PUSH1 0x20 PUSH1 0x0 KECCAK256 SWAP1 JUMPDEST DUP2 SLOAD DUP2 MSTORE SWAP1 PUSH1 0x1 ADD SWAP1 PUSH1 0x20 ADD DUP1 DUP4 GT PUSH2 0x550 JUMPI DUP3 SWAP1 SUB PUSH1 0x1F AND DUP3 ADD SWAP2 JUMPDEST POP POP POP POP POP DUP2 MSTORE PUSH1 0x20 ADD PUSH1 0x4 DUP3 ADD DUP1 SLOAD PUSH2 0x586 SWAP1 PUSH2 0x29D7 JUMP JUMPDEST DUP1 PUSH1 0x1F ADD PUSH1 0x20 DUP1 SWAP2 DIV MUL PUSH1 0x20 ADD PUSH1 0x40 MLOAD SWAP1 DUP2 ADD PUSH1 0x40 MSTORE DUP1 SWAP3 SWAP2 SWAP1 DUP2 DUP2 MSTORE PUSH1 0x20 ADD DUP3 DUP1 SLOAD PUSH2 0x5B2 SWAP1 PUSH2 0x29D7 JUMP JUMPDEST DUP1 ISZERO PUSH2 0x5FF JUMPI DUP1 PUSH1 0x1F LT PUSH2 0x5D4 JUMPI PUSH2 0x100 DUP1 DUP4 SLOAD DIV MUL DUP4 MSTORE SWAP2 PUSH1 0x20 ADD SWAP2 PUSH2 0x5FF JUMP JUMPDEST DUP3 ADD SWAP2 SWAP1 PUSH1 0x0 MSTORE PUSH1 0x20 PUSH1 0x0 KECCAK256 SWAP1 JUMPDEST DUP2 SLOAD DUP2 MSTORE SWAP1 PUSH1 0x1 ADD SWAP1 PUSH1 0x20 ADD DUP1 DUP4 GT PUSH2 0x5E2 JUMPI DUP3 SWAP1 SUB PUSH1 0x1F AND DUP3 ADD SWAP2 JUMPDEST POP POP POP SWAP2 DUP4 MSTORE POP POP PUSH1 0x5 DUP3 ADD SLOAD PUSH1 0x20 DUP3 ADD MSTORE PUSH1 0x6 SWAP1 SWAP2 ADD SLOAD PUSH1 0xFF AND ISZERO ISZERO PUSH1 0x40 SWAP1 SWAP2 ADD MSTORE SWAP3 SWAP2 POP POP JUMP JUMPDEST PUSH2 0x630 PUSH2 0x2075 JUMP JUMPDEST DUP1 PUSH1 0x4 SLOAD LT ISZERO PUSH2 0x67B JUMPI PUSH1 0x40 MLOAD PUSH3 0x461BCD PUSH1 0xE5 SHL DUP2 MSTORE PUSH1 0x20 PUSH1 0x4 DUP3 ADD MSTORE PUSH1 0x11 PUSH1 0x24 DUP3 ADD MSTORE PUSH17 0x125B9CDD59999A58DA595B9D08199D5B99 PUSH1 0x7A SHL PUSH1 0x44 DUP3 ADD MSTORE PUSH1 0x64 ADD JUMPDEST PUSH1 0x40 MLOAD DUP1 SWAP2 SUB SWAP1 REVERT JUMPDEST DUP1 PUSH1 0x4 PUSH1 0x0 DUP3 DUP3 SLOAD PUSH2 0x68D SWAP2 SWAP1 PUSH2 0x2A28 JUMP JUMPDEST SWAP1 SWAP2 SSTORE POP PUSH2 0x69D SWAP1 POP DUP3 DUP3 PUSH2 0x20CF JUMP JUMPDEST POP POP JUMP JUMPDEST PUSH2 0x6A9 PUSH2 0x21DE JUMP JUMPDEST POP PUSH1 0x0 SWAP1 DUP2 MSTORE PUSH1 0x7 PUSH1 0x20 DUP2 DUP2 MSTORE PUSH1 0x40 SWAP3 DUP4 SWAP1 KECCAK256 DUP4 MLOAD PUSH2 0x160 DUP2 ADD DUP6 MSTORE DUP2 SLOAD DUP2 MSTORE PUSH1 0x1 DUP3 ADD SLOAD SWAP3 DUP2 ADD SWAP3 SWAP1 SWAP3 MSTORE PUSH1 0x2 DUP2 ADD SLOAD SWAP4 DUP3 ADD SWAP4 SWAP1 SWAP4 MSTORE PUSH1 0x3 DUP4 ADD SLOAD PUSH1 0x60 DUP3 ADD MSTORE PUSH1 0x4 DUP4 ADD SLOAD PUSH1 0x80 DUP3 ADD MSTORE PUSH1 0x5 DUP4 ADD SLOAD PUSH1 0xA0 DUP3 ADD MSTORE PUSH1 0x6 DUP4 ADD SLOAD PUSH1 0xC0 DUP3 ADD MSTORE SWAP1 DUP3 ADD SLOAD PUSH1 0xFF DUP1 DUP3 AND ISZERO ISZERO PUSH1 0xE0 DUP5 ADD MSTORE PUSH2 0x100 SWAP2 DUP3 SWAP1 DIV AND ISZERO ISZERO SWAP1 DUP3 ADD MSTORE PUSH1 0x8 DUP3 ADD SLOAD PUSH2 0x120 DUP3 ADD MSTORE PUSH1 0x9 SWAP1 SWAP2 ADD SLOAD PUSH2 0x140 DUP3 ADD MSTORE SWAP1 JUMP JUMPDEST PUSH1 0x60 PUSH1 0x0 PUSH1 0x1 JUMPDEST PUSH1 0x1 SLOAD DUP2 GT PUSH2 0x78B JUMPI PUSH1 0x0 DUP2 DUP2 MSTORE PUSH1 0x6 PUSH1 0x20 DUP2 SWAP1 MSTORE PUSH1 0x40 SWAP1 SWAP2 KECCAK256 ADD SLOAD PUSH1 0xFF AND PUSH2 0x779 JUMPI DUP2 PUSH2 0x775 DUP2 PUSH2 0x2A3F JUMP JUMPDEST SWAP3 POP POP JUMPDEST DUP1 PUSH2 0x783 DUP2 PUSH2 0x2A3F JUMP JUMPDEST SWAP2 POP POP PUSH2 0x748 JUMP JUMPDEST POP DUP1 PUSH8 0xFFFFFFFFFFFFFFFF DUP2 GT ISZERO PUSH2 0x7A5 JUMPI PUSH2 0x7A5 PUSH2 0x2597 JUMP JUMPDEST PUSH1 0x40 MLOAD SWAP1 DUP1 DUP3 MSTORE DUP1 PUSH1 0x20 MUL PUSH1 0x20 ADD DUP3 ADD PUSH1 0x40 MSTORE DUP1 ISZERO PUSH2 0x7DE JUMPI DUP2 PUSH1 0x20 ADD JUMPDEST PUSH2 0x7CB PUSH2 0x219F JUMP JUMPDEST DUP2 MSTORE PUSH1 0x20 ADD SWAP1 PUSH1 0x1 SWAP1 SUB SWAP1 DUP2 PUSH2 0x7C3 JUMPI SWAP1 POP JUMPDEST POP SWAP2 POP PUSH1 0x0 PUSH1 0x1 JUMPDEST PUSH1 0x1 SLOAD DUP2 GT PUSH2 0xAD3 JUMPI PUSH1 0x0 DUP2 DUP2 MSTORE PUSH1 0x6 PUSH1 0x20 DUP2 SWAP1 MSTORE PUSH1 0x40 SWAP1 SWAP2 KECCAK256 ADD SLOAD PUSH1 0xFF AND PUSH2 0xAC1 JUMPI PUSH1 0x6 PUSH1 0x0 DUP3 DUP2 MSTORE PUSH1 0x20 ADD SWAP1 DUP2 MSTORE PUSH1 0x20 ADD PUSH1 0x0 KECCAK256 PUSH1 0x40 MLOAD DUP1 PUSH1 0xE0 ADD PUSH1 0x40 MSTORE SWAP1 DUP2 PUSH1 0x0 DUP3 ADD SLOAD DUP2 MSTORE PUSH1 0x20 ADD PUSH1 0x1 DUP3 ADD DUP1 SLOAD PUSH2 0x841 SWAP1 PUSH2 0x29D7 JUMP JUMPDEST DUP1 PUSH1 0x1F ADD PUSH1 0x20 DUP1 SWAP2 DIV MUL PUSH1 0x20 ADD PUSH1 0x40 MLOAD SWAP1 DUP2 ADD PUSH1 0x40 MSTORE DUP1 SWAP3 SWAP2 SWAP1 DUP2 DUP2 MSTORE PUSH1 0x20 ADD DUP3 DUP1 SLOAD PUSH2 0x86D SWAP1 PUSH2 0x29D7 JUMP JUMPDEST DUP1 ISZERO PUSH2 0x8BA JUMPI DUP1 PUSH1 0x1F LT PUSH2 0x88F JUMPI PUSH2 0x100 DUP1 DUP4 SLOAD DIV MUL DUP4 MSTORE SWAP2 PUSH1 0x20 ADD SWAP2 PUSH2 0x8BA JUMP JUMPDEST DUP3 ADD SWAP2 SWAP1 PUSH1 0x0 MSTORE PUSH1 0x20 PUSH1 0x0 KECCAK256 SWAP1 JUMPDEST DUP2 SLOAD DUP2 MSTORE SWAP1 PUSH1 0x1 ADD SWAP1 PUSH1 0x20 ADD DUP1 DUP4 GT PUSH2 0x89D JUMPI DUP3 SWAP1 SUB PUSH1 0x1F AND DUP3 ADD SWAP2 JUMPDEST POP POP POP POP POP DUP2 MSTORE PUSH1 0x20 ADD PUSH1 0x2 DUP3 ADD DUP1 SLOAD PUSH2 0x8D3 SWAP1 PUSH2 0x29D7 JUMP JUMPDEST DUP1 PUSH1 0x1F ADD PUSH1 0x20 DUP1 SWAP2 DIV MUL PUSH1 0x20 ADD PUSH1 0x40 MLOAD SWAP1 DUP2 ADD PUSH1 0x40 MSTORE DUP1 SWAP3 SWAP2 SWAP1 DUP2 DUP2 MSTORE PUSH1 0x20 ADD DUP3 DUP1 SLOAD PUSH2 0x8FF SWAP1 PUSH2 0x29D7 JUMP JUMPDEST DUP1 ISZERO PUSH2 0x94C JUMPI DUP1 PUSH1 0x1F LT PUSH2 0x921 JUMPI PUSH2 0x100 DUP1 DUP4 SLOAD DIV MUL DUP4 MSTORE SWAP2 PUSH1 0x20 ADD SWAP2 PUSH2 0x94C JUMP JUMPDEST DUP3 ADD SWAP2 SWAP1 PUSH1 0x0 MSTORE PUSH1 0x20 PUSH1 0x0 KECCAK256 SWAP1 JUMPDEST DUP2 SLOAD DUP2 MSTORE SWAP1 PUSH1 0x1 ADD SWAP1 PUSH1 0x20 ADD DUP1 DUP4 GT PUSH2 0x92F JUMPI DUP3 SWAP1 SUB PUSH1 0x1F AND DUP3 ADD SWAP2 JUMPDEST POP POP POP POP POP DUP2 MSTORE PUSH1 0x20 ADD PUSH1 0x3 DUP3 ADD DUP1 SLOAD PUSH2 0x965 SWAP1 PUSH2 0x29D7 JUMP JUMPDEST DUP1 PUSH1 0x1F ADD PUSH1 0x20 DUP1 SWAP2 DIV MUL PUSH1 0x20 ADD PUSH1 0x40 MLOAD SWAP1 DUP2 ADD PUSH1 0x40 MSTORE DUP1 SWAP3 SWAP2 SWAP1 DUP2 DUP2 MSTORE PUSH1 0x20 ADD DUP3 DUP1 SLOAD PUSH2 0x991 SWAP1 PUSH2 0x29D7 JUMP JUMPDEST DUP1 ISZERO PUSH2 0x9DE JUMPI DUP1 PUSH1 0x1F LT PUSH2 0x9B3 JUMPI PUSH2 0x100 DUP1 DUP4 SLOAD DIV MUL DUP4 MSTORE SWAP2 PUSH1 0x20 ADD SWAP2 PUSH2 0x9DE JUMP JUMPDEST DUP3 ADD SWAP2 SWAP1 PUSH1 0x0 MSTORE PUSH1 0x20 PUSH1 0x0 KECCAK256 SWAP1 JUMPDEST DUP2 SLOAD DUP2 MSTORE SWAP1 PUSH1 0x1 ADD SWAP1 PUSH1 0x20 ADD DUP1 DUP4 GT PUSH2 0x9C1 JUMPI DUP3 SWAP1 SUB PUSH1 0x1F AND DUP3 ADD SWAP2 JUMPDEST POP POP POP POP POP DUP2 MSTORE PUSH1 0x20 ADD PUSH1 0x4 DUP3 ADD DUP1 SLOAD PUSH2 0x9F7 SWAP1 PUSH2 0x29D7 JUMP JUMPDEST DUP1 PUSH1 0x1F ADD PUSH1 0x20 DUP1 SWAP2 DIV MUL PUSH1 0x20 ADD PUSH1 0x40 MLOAD SWAP1 DUP2 ADD PUSH1 0x40 MSTORE DUP1 SWAP3 SWAP2 SWAP1 DUP2 DUP2 MSTORE PUSH1 0x20 ADD DUP3 DUP1 SLOAD PUSH2 0xA23 SWAP1 PUSH2 0x29D7 JUMP JUMPDEST DUP1 ISZERO PUSH2 0xA70 JUMPI DUP1 PUSH1 0x1F LT PUSH2 0xA45 JUMPI PUSH2 0x100 DUP1 DUP4 SLOAD DIV MUL DUP4 MSTORE SWAP2 PUSH1 0x20 ADD SWAP2 PUSH2 0xA70 JUMP JUMPDEST DUP3 ADD SWAP2 SWAP1 PUSH1 0x0 MSTORE PUSH1 0x20 PUSH1 0x0 KECCAK256 SWAP1 JUMPDEST DUP2 SLOAD DUP2 MSTORE SWAP1 PUSH1 0x1 ADD SWAP1 PUSH1 0x20 ADD DUP1 DUP4 GT PUSH2 0xA53 JUMPI DUP3 SWAP1 SUB PUSH1 0x1F AND DUP3 ADD SWAP2 JUMPDEST POP POP POP SWAP2 DUP4 MSTORE POP POP PUSH1 0x5 DUP3 ADD SLOAD PUSH1 0x20 DUP3 ADD MSTORE PUSH1 0x6 SWAP1 SWAP2 ADD SLOAD PUSH1 0xFF AND ISZERO ISZERO PUSH1 0x40 SWAP1 SWAP2 ADD MSTORE DUP5 MLOAD DUP6 SWAP1 DUP5 SWAP1 DUP2 LT PUSH2 0xAA7 JUMPI PUSH2 0xAA7 PUSH2 0x2A5A JUMP JUMPDEST PUSH1 0x20 MUL PUSH1 0x20 ADD ADD DUP2 SWAP1 MSTORE POP DUP2 DUP1 PUSH2 0xABD SWAP1 PUSH2 0x2A3F JUMP JUMPDEST SWAP3 POP POP JUMPDEST DUP1 PUSH2 0xACB DUP2 PUSH2 0x2A3F JUMP JUMPDEST SWAP2 POP POP PUSH2 0x7E6 JUMP JUMPDEST POP POP POP SWAP1 JUMP JUMPDEST PUSH1 0x60 PUSH1 0x0 DUP1 JUMPDEST PUSH1 0x3 SLOAD DUP2 LT ISZERO PUSH2 0xB60 JUMPI DUP4 PUSH1 0x7 PUSH1 0x0 PUSH2 0xAF9 DUP5 PUSH1 0x1 PUSH2 0x2A70 JUMP JUMPDEST DUP2 MSTORE PUSH1 0x20 ADD SWAP1 DUP2 MSTORE PUSH1 0x20 ADD PUSH1 0x0 KECCAK256 PUSH1 0x1 ADD SLOAD EQ DUP1 ISZERO PUSH2 0xB3B JUMPI POP PUSH1 0x7 PUSH1 0x0 PUSH2 0xB22 DUP4 PUSH1 0x1 PUSH2 0x2A70 JUMP JUMPDEST DUP2 MSTORE PUSH1 0x20 DUP2 ADD SWAP2 SWAP1 SWAP2 MSTORE PUSH1 0x40 ADD PUSH1 0x0 KECCAK256 PUSH1 0x7 ADD SLOAD PUSH1 0xFF AND ISZERO JUMPDEST ISZERO PUSH2 0xB4E JUMPI DUP2 PUSH2 0xB4A DUP2 PUSH2 0x2A3F JUMP JUMPDEST SWAP3 POP POP JUMPDEST DUP1 PUSH2 0xB58 DUP2 PUSH2 0x2A3F JUMP JUMPDEST SWAP2 POP POP PUSH2 0xADF JUMP JUMPDEST POP PUSH2 0xB6C DUP2 PUSH1 0x2 PUSH2 0x2A88 JUMP JUMPDEST PUSH8 0xFFFFFFFFFFFFFFFF DUP2 GT ISZERO PUSH2 0xB84 JUMPI PUSH2 0xB84 PUSH2 0x2597 JUMP JUMPDEST PUSH1 0x40 MLOAD SWAP1 DUP1 DUP3 MSTORE DUP1 PUSH1 0x20 MUL PUSH1 0x20 ADD DUP3 ADD PUSH1 0x40 MSTORE DUP1 ISZERO PUSH2 0xBAD JUMPI DUP2 PUSH1 0x20 ADD PUSH1 0x20 DUP3 MUL DUP1 CALLDATASIZE DUP4 CALLDATACOPY ADD SWAP1 POP JUMPDEST POP SWAP2 POP PUSH1 0x0 DUP1 JUMPDEST PUSH1 0x3 SLOAD DUP2 LT ISZERO PUSH2 0xCBD JUMPI DUP5 PUSH1 0x7 PUSH1 0x0 PUSH2 0xBCE DUP5 PUSH1 0x1 PUSH2 0x2A70 JUMP JUMPDEST DUP2 MSTORE PUSH1 0x20 ADD SWAP1 DUP2 MSTORE PUSH1 0x20 ADD PUSH1 0x0 KECCAK256 PUSH1 0x1 ADD SLOAD EQ DUP1 ISZERO PUSH2 0xC10 JUMPI POP PUSH1 0x7 PUSH1 0x0 PUSH2 0xBF7 DUP4 PUSH1 0x1 PUSH2 0x2A70 JUMP JUMPDEST DUP2 MSTORE PUSH1 0x20 DUP2 ADD SWAP2 SWAP1 SWAP2 MSTORE PUSH1 0x40 ADD PUSH1 0x0 KECCAK256 PUSH1 0x7 ADD SLOAD PUSH1 0xFF AND ISZERO JUMPDEST ISZERO PUSH2 0xCAB JUMPI PUSH1 0x7 PUSH1 0x0 PUSH2 0xC24 DUP4 PUSH1 0x1 PUSH2 0x2A70 JUMP JUMPDEST DUP2 MSTORE PUSH1 0x20 ADD SWAP1 DUP2 MSTORE PUSH1 0x20 ADD PUSH1 0x0 KECCAK256 PUSH1 0x3 ADD SLOAD DUP5 DUP4 DUP1 PUSH2 0xC42 SWAP1 PUSH2 0x2A3F JUMP JUMPDEST SWAP5 POP DUP2 MLOAD DUP2 LT PUSH2 0xC54 JUMPI PUSH2 0xC54 PUSH2 0x2A5A JUMP JUMPDEST PUSH1 0x20 SWAP1 DUP2 MUL SWAP2 SWAP1 SWAP2 ADD ADD MSTORE PUSH1 0x7 PUSH1 0x0 PUSH2 0xC6E DUP4 PUSH1 0x1 PUSH2 0x2A70 JUMP JUMPDEST DUP2 MSTORE PUSH1 0x20 ADD SWAP1 DUP2 MSTORE PUSH1 0x20 ADD PUSH1 0x0 KECCAK256 PUSH1 0x4 ADD SLOAD DUP5 DUP4 DUP1 PUSH2 0xC8C SWAP1 PUSH2 0x2A3F JUMP JUMPDEST SWAP5 POP DUP2 MLOAD DUP2 LT PUSH2 0xC9E JUMPI PUSH2 0xC9E PUSH2 0x2A5A JUMP JUMPDEST PUSH1 0x20 MUL PUSH1 0x20 ADD ADD DUP2 DUP2 MSTORE POP POP JUMPDEST DUP1 PUSH2 0xCB5 DUP2 PUSH2 0x2A3F JUMP JUMPDEST SWAP2 POP POP PUSH2 0xBB4 JUMP JUMPDEST POP POP POP SWAP2 SWAP1 POP JUMP JUMPDEST PUSH2 0xCCD PUSH2 0x2075 JUMP JUMPDEST PUSH1 0x0 DUP3 DUP2 MSTORE PUSH1 0x5 PUSH1 0x20 MSTORE PUSH1 0x40 SWAP1 KECCAK256 SLOAD PUSH1 0xFF AND DUP1 ISZERO PUSH2 0xCFB JUMPI POP PUSH1 0x0 DUP2 DUP2 MSTORE PUSH1 0x7 PUSH1 0x20 MSTORE PUSH1 0x40 SWAP1 KECCAK256 PUSH1 0x1 ADD SLOAD DUP3 EQ JUMPDEST PUSH2 0xD17 JUMPI PUSH1 0x40 MLOAD PUSH3 0x461BCD PUSH1 0xE5 SHL DUP2 MSTORE PUSH1 0x4 ADD PUSH2 0x672 SWAP1 PUSH2 0x2AA7 JUMP JUMPDEST PUSH1 0x0 DUP2 DUP2 MSTORE PUSH1 0x7 PUSH1 0x20 DUP2 SWAP1 MSTORE PUSH1 0x40 SWAP1 SWAP2 KECCAK256 ADD SLOAD PUSH1 0xFF AND ISZERO PUSH2 0xD75 JUMPI PUSH1 0x40 MLOAD PUSH3 0x461BCD PUSH1 0xE5 SHL DUP2 MSTORE PUSH1 0x20 PUSH1 0x4 DUP3 ADD MSTORE PUSH1 0x18 PUSH1 0x24 DUP3 ADD MSTORE PUSH24 0x151A5B595CDB1BDD08185B1C9958591E4819195B195D1959 PUSH1 0x42 SHL PUSH1 0x44 DUP3 ADD MSTORE PUSH1 0x64 ADD PUSH2 0x672 JUMP JUMPDEST PUSH1 0x0 DUP2 DUP2 MSTORE PUSH1 0x7 PUSH1 0x20 DUP2 SWAP1 MSTORE PUSH1 0x40 DUP3 KECCAK256 SWAP1 DUP2 ADD DUP1 SLOAD PUSH2 0xFF00 NOT AND PUSH2 0x100 OR SWAP1 SSTORE PUSH1 0x9 ADD SLOAD PUSH1 0x4 DUP1 SLOAD SWAP2 SWAP3 SWAP1 SWAP2 PUSH2 0xDAC SWAP1 DUP5 SWAP1 PUSH2 0x2A70 JUMP JUMPDEST SWAP1 SWAP2 SSTORE POP POP PUSH1 0x0 SWAP1 DUP2 MSTORE PUSH1 0x7 PUSH1 0x20 MSTORE PUSH1 0x40 DUP2 KECCAK256 PUSH1 0x9 ADD SSTORE POP JUMP JUMPDEST PUSH2 0xDCE PUSH2 0x2075 JUMP JUMPDEST PUSH1 0x0 DUP3 DUP2 MSTORE PUSH1 0x5 PUSH1 0x20 MSTORE PUSH1 0x40 SWAP1 KECCAK256 SLOAD PUSH1 0xFF AND DUP1 ISZERO PUSH2 0xDFC JUMPI POP PUSH1 0x0 DUP2 DUP2 MSTORE PUSH1 0x7 PUSH1 0x20 MSTORE PUSH1 0x40 SWAP1 KECCAK256 PUSH1 0x1 ADD SLOAD DUP3 EQ JUMPDEST PUSH2 0xE18 JUMPI PUSH1 0x40 MLOAD PUSH3 0x461BCD PUSH1 0xE5 SHL DUP2 MSTORE PUSH1 0x4 ADD PUSH2 0x672 SWAP1 PUSH2 0x2AA7 JUMP JUMPDEST PUSH1 0x0 DUP2 DUP2 MSTORE PUSH1 0x7 PUSH1 0x20 DUP2 SWAP1 MSTORE PUSH1 0x40 SWAP1 SWAP2 KECCAK256 ADD SLOAD PUSH1 0xFF AND ISZERO PUSH2 0xE76 JUMPI PUSH1 0x40 MLOAD PUSH3 0x461BCD PUSH1 0xE5 SHL DUP2 MSTORE PUSH1 0x20 PUSH1 0x4 DUP3 ADD MSTORE PUSH1 0x18 PUSH1 0x24 DUP3 ADD MSTORE PUSH24 0x151A5B595CDB1BDD08185B1C9958591E4819195B195D1959 PUSH1 0x42 SHL PUSH1 0x44 DUP3 ADD MSTORE PUSH1 0x64 ADD PUSH2 0x672 JUMP JUMPDEST PUSH1 0x0 JUMPDEST PUSH1 0x0 DUP4 DUP2 MSTORE PUSH1 0x8 PUSH1 0x20 SWAP1 DUP2 MSTORE PUSH1 0x40 DUP1 DUP4 KECCAK256 DUP6 DUP5 MSTORE SWAP1 SWAP2 MSTORE SWAP1 KECCAK256 SLOAD DUP2 LT ISZERO PUSH2 0xF0C JUMPI PUSH1 0x0 DUP4 DUP2 MSTORE PUSH1 0x8 PUSH1 0x20 SWAP1 DUP2 MSTORE PUSH1 0x40 DUP1 DUP4 KECCAK256 DUP6 DUP5 MSTORE SWAP1 SWAP2 MSTORE SWAP1 KECCAK256 DUP1 SLOAD PUSH2 0xEFA SWAP2 SWAP1 DUP4 SWAP1 DUP2 LT PUSH2 0xECA JUMPI PUSH2 0xECA PUSH2 0x2A5A JUMP JUMPDEST PUSH1 0x0 SWAP2 DUP3 MSTORE PUSH1 0x20 DUP1 DUP4 KECCAK256 SWAP1 SWAP2 ADD SLOAD DUP6 DUP4 MSTORE PUSH1 0x7 SWAP1 SWAP2 MSTORE PUSH1 0x40 SWAP1 SWAP2 KECCAK256 PUSH1 0x2 ADD SLOAD PUSH1 0x1 PUSH1 0x1 PUSH1 0xA0 SHL SUB SWAP1 SWAP2 AND SWAP1 PUSH2 0x20CF JUMP JUMPDEST DUP1 PUSH2 0xF04 DUP2 PUSH2 0x2A3F JUMP JUMPDEST SWAP2 POP POP PUSH2 0xE79 JUMP JUMPDEST POP PUSH1 0x0 DUP2 DUP2 MSTORE PUSH1 0x7 PUSH1 0x20 DUP2 DUP2 MSTORE PUSH1 0x40 DUP1 DUP5 KECCAK256 DUP1 DUP5 ADD DUP1 SLOAD PUSH1 0xFF NOT AND PUSH1 0x1 OR SWAP1 SSTORE DUP7 DUP6 MSTORE PUSH1 0x8 DUP4 MSTORE DUP2 DUP6 KECCAK256 DUP7 DUP7 MSTORE DUP4 MSTORE SWAP4 KECCAK256 SLOAD SWAP2 SWAP1 MSTORE PUSH1 0x2 SWAP1 SWAP2 ADD SLOAD PUSH2 0xF51 SWAP2 SWAP1 PUSH2 0x2A88 JUMP JUMPDEST PUSH1 0x0 DUP3 DUP2 MSTORE PUSH1 0x7 PUSH1 0x20 MSTORE PUSH1 0x40 DUP2 KECCAK256 PUSH1 0x9 ADD DUP1 SLOAD SWAP1 SWAP2 SWAP1 PUSH2 0xF72 SWAP1 DUP5 SWAP1 PUSH2 0x2A28 JUMP JUMPDEST SWAP1 SWAP2 SSTORE POP POP PUSH1 0x0 DUP3 DUP2 MSTORE PUSH1 0x8 PUSH1 0x20 SWAP1 DUP2 MSTORE PUSH1 0x40 DUP1 DUP4 KECCAK256 DUP5 DUP5 MSTORE SWAP1 SWAP2 MSTORE DUP2 KECCAK256 PUSH2 0x69D SWAP2 PUSH2 0x223C JUMP JUMPDEST PUSH2 0xFA1 PUSH2 0x2075 JUMP JUMPDEST PUSH1 0x0 DUP2 DUP2 MSTORE PUSH1 0x5 PUSH1 0x20 MSTORE PUSH1 0x40 SWAP1 KECCAK256 SLOAD PUSH1 0xFF AND PUSH2 0xFF6 JUMPI PUSH1 0x40 MLOAD PUSH3 0x461BCD PUSH1 0xE5 SHL DUP2 MSTORE PUSH1 0x20 PUSH1 0x4 DUP3 ADD MSTORE PUSH1 0x14 PUSH1 0x24 DUP3 ADD MSTORE PUSH20 0x4D6F76696520646F65736E277420657869737421 PUSH1 0x60 SHL PUSH1 0x44 DUP3 ADD MSTORE PUSH1 0x64 ADD PUSH2 0x672 JUMP JUMPDEST PUSH1 0x1 JUMPDEST PUSH1 0x3 SLOAD DUP2 GT PUSH2 0x10E8 JUMPI PUSH1 0x0 DUP3 DUP2 MSTORE PUSH1 0x8 PUSH1 0x20 SWAP1 DUP2 MSTORE PUSH1 0x40 DUP1 DUP4 KECCAK256 DUP5 DUP5 MSTORE DUP3 MSTORE DUP1 DUP4 KECCAK256 DUP1 SLOAD DUP3 MLOAD DUP2 DUP6 MUL DUP2 ADD DUP6 ADD SWAP1 SWAP4 MSTORE DUP1 DUP4 MSTORE SWAP2 SWAP3 SWAP1 SWAP2 SWAP1 DUP4 ADD DUP3 DUP3 DUP1 ISZERO PUSH2 0x106A JUMPI PUSH1 0x20 MUL DUP3 ADD SWAP2 SWAP1 PUSH1 0x0 MSTORE PUSH1 0x20 PUSH1 0x0 KECCAK256 SWAP1 JUMPDEST DUP2 SLOAD PUSH1 0x1 PUSH1 0x1 PUSH1 0xA0 SHL SUB AND DUP2 MSTORE PUSH1 0x1 SWAP1 SWAP2 ADD SWAP1 PUSH1 0x20 ADD DUP1 DUP4 GT PUSH2 0x104C JUMPI JUMPDEST POP POP POP POP POP SWAP1 POP DUP1 MLOAD PUSH1 0x0 EQ PUSH2 0x10D5 JUMPI PUSH1 0x40 MLOAD PUSH3 0x461BCD PUSH1 0xE5 SHL DUP2 MSTORE PUSH1 0x20 PUSH1 0x4 DUP3 ADD MSTORE PUSH1 0x2A PUSH1 0x24 DUP3 ADD MSTORE PUSH32 0x43616E6E6F742064656C657465206D6F76696520776974682070757263686173 PUSH1 0x44 DUP3 ADD MSTORE PUSH10 0x6564207469636B657473 PUSH1 0xB0 SHL PUSH1 0x64 DUP3 ADD MSTORE PUSH1 0x84 ADD PUSH2 0x672 JUMP JUMPDEST POP DUP1 PUSH2 0x10E0 DUP2 PUSH2 0x2A3F JUMP JUMPDEST SWAP2 POP POP PUSH2 0xFF9 JUMP JUMPDEST POP PUSH1 0x0 SWAP1 DUP2 MSTORE PUSH1 0x6 PUSH1 0x20 DUP2 DUP2 MSTORE PUSH1 0x40 DUP1 DUP5 KECCAK256 SWAP1 SWAP3 ADD DUP1 SLOAD PUSH1 0xFF NOT SWAP1 DUP2 AND PUSH1 0x1 OR SWAP1 SWAP2 SSTORE PUSH1 0x5 SWAP1 SWAP2 MSTORE SWAP2 KECCAK256 DUP1 SLOAD SWAP1 SWAP2 AND SWAP1 SSTORE JUMP JUMPDEST PUSH2 0x1123 PUSH2 0x2075 JUMP JUMPDEST PUSH2 0x112D PUSH1 0x0 PUSH2 0x2134 JUMP JUMPDEST JUMP JUMPDEST PUSH2 0x1137 PUSH2 0x2075 JUMP JUMPDEST PUSH1 0x0 DUP7 DUP2 MSTORE PUSH1 0x5 PUSH1 0x20 MSTORE PUSH1 0x40 SWAP1 KECCAK256 SLOAD PUSH1 0xFF AND PUSH2 0x1165 JUMPI PUSH1 0x40 MLOAD PUSH3 0x461BCD PUSH1 0xE5 SHL DUP2 MSTORE PUSH1 0x4 ADD PUSH2 0x672 SWAP1 PUSH2 0x2AA7 JUMP JUMPDEST PUSH1 0x0 DUP6 MLOAD GT PUSH2 0x11B6 JUMPI PUSH1 0x40 MLOAD PUSH3 0x461BCD PUSH1 0xE5 SHL DUP2 MSTORE PUSH1 0x20 PUSH1 0x4 DUP3 ADD MSTORE PUSH1 0x1E PUSH1 0x24 DUP3 ADD MSTORE PUSH32 0x5469636B65747320636F7374206D757374206E6F7420626520656D7074790000 PUSH1 0x44 DUP3 ADD MSTORE PUSH1 0x64 ADD PUSH2 0x672 JUMP JUMPDEST PUSH1 0x0 DUP3 MLOAD GT PUSH2 0x1207 JUMPI PUSH1 0x40 MLOAD PUSH3 0x461BCD PUSH1 0xE5 SHL DUP2 MSTORE PUSH1 0x20 PUSH1 0x4 DUP3 ADD MSTORE PUSH1 0x1C PUSH1 0x24 DUP3 ADD MSTORE PUSH32 0x43617061636974696573206D757374206E6F7420626520656D70747900000000 PUSH1 0x44 DUP3 ADD MSTORE PUSH1 0x64 ADD PUSH2 0x672 JUMP JUMPDEST PUSH1 0x0 DUP5 MLOAD GT PUSH2 0x1263 JUMPI PUSH1 0x40 MLOAD PUSH3 0x461BCD PUSH1 0xE5 SHL DUP2 MSTORE PUSH1 0x20 PUSH1 0x4 DUP3 ADD MSTORE PUSH1 0x22 PUSH1 0x24 DUP3 ADD MSTORE PUSH32 0x53746172742074696D657320636F7374206D757374206E6F7420626520656D70 PUSH1 0x44 DUP3 ADD MSTORE PUSH2 0x7479 PUSH1 0xF0 SHL PUSH1 0x64 DUP3 ADD MSTORE PUSH1 0x84 ADD PUSH2 0x672 JUMP JUMPDEST PUSH1 0x0 DUP4 MLOAD GT PUSH2 0x12B4 JUMPI PUSH1 0x40 MLOAD PUSH3 0x461BCD PUSH1 0xE5 SHL DUP2 MSTORE PUSH1 0x20 PUSH1 0x4 DUP3 ADD DUP2 SWAP1 MSTORE PUSH1 0x24 DUP3 ADD MSTORE PUSH32 0x456E642074696D657320636F7374206D757374206E6F7420626520656D707479 PUSH1 0x44 DUP3 ADD MSTORE PUSH1 0x64 ADD PUSH2 0x672 JUMP JUMPDEST PUSH1 0x0 DUP2 MLOAD GT PUSH2 0x1305 JUMPI PUSH1 0x40 MLOAD PUSH3 0x461BCD PUSH1 0xE5 SHL DUP2 MSTORE PUSH1 0x20 PUSH1 0x4 DUP3 ADD MSTORE PUSH1 0x1E PUSH1 0x24 DUP3 ADD MSTORE PUSH32 0x56696577696E672064617973206D757374206E6F7420626520656D7074790000 PUSH1 0x44 DUP3 ADD MSTORE PUSH1 0x64 ADD PUSH2 0x672 JUMP JUMPDEST DUP1 MLOAD DUP6 MLOAD EQ DUP1 ISZERO PUSH2 0x1317 JUMPI POP DUP2 MLOAD DUP2 MLOAD EQ JUMPDEST DUP1 ISZERO PUSH2 0x1324 JUMPI POP DUP4 MLOAD DUP3 MLOAD EQ JUMPDEST DUP1 ISZERO PUSH2 0x1331 JUMPI POP DUP3 MLOAD DUP5 MLOAD EQ JUMPDEST DUP1 ISZERO PUSH2 0x133E JUMPI POP DUP1 MLOAD DUP4 MLOAD EQ JUMPDEST PUSH2 0x139E JUMPI PUSH1 0x40 MLOAD PUSH3 0x461BCD PUSH1 0xE5 SHL DUP2 MSTORE PUSH1 0x20 PUSH1 0x4 DUP3 ADD MSTORE PUSH1 0x2B PUSH1 0x24 DUP3 ADD MSTORE PUSH32 0x416C6C20706172616D6574657273206D757374206861766520657175616C2061 PUSH1 0x44 DUP3 ADD MSTORE PUSH11 0xE4E4C2F240D8CADCCEE8D PUSH1 0xAB SHL PUSH1 0x64 DUP3 ADD MSTORE PUSH1 0x84 ADD PUSH2 0x672 JUMP JUMPDEST PUSH1 0x0 JUMPDEST DUP2 MLOAD DUP2 LT ISZERO PUSH2 0x1524 JUMPI PUSH2 0x13B8 PUSH1 0x3 DUP1 SLOAD PUSH1 0x1 ADD SWAP1 SSTORE JUMP JUMPDEST PUSH2 0x13C0 PUSH2 0x21DE JUMP JUMPDEST PUSH1 0x3 SLOAD DUP2 MSTORE PUSH1 0x20 DUP2 ADD DUP9 SWAP1 MSTORE DUP7 MLOAD DUP8 SWAP1 DUP4 SWAP1 DUP2 LT PUSH2 0x13E0 JUMPI PUSH2 0x13E0 PUSH2 0x2A5A JUMP JUMPDEST PUSH1 0x20 MUL PUSH1 0x20 ADD ADD MLOAD DUP2 PUSH1 0x40 ADD DUP2 DUP2 MSTORE POP POP DUP6 DUP3 DUP2 MLOAD DUP2 LT PUSH2 0x1403 JUMPI PUSH2 0x1403 PUSH2 0x2A5A JUMP JUMPDEST PUSH1 0x20 MUL PUSH1 0x20 ADD ADD MLOAD DUP2 PUSH1 0x60 ADD DUP2 DUP2 MSTORE POP POP DUP5 DUP3 DUP2 MLOAD DUP2 LT PUSH2 0x1426 JUMPI PUSH2 0x1426 PUSH2 0x2A5A JUMP JUMPDEST PUSH1 0x20 MUL PUSH1 0x20 ADD ADD MLOAD DUP2 PUSH1 0x80 ADD DUP2 DUP2 MSTORE POP POP DUP3 DUP3 DUP2 MLOAD DUP2 LT PUSH2 0x1449 JUMPI PUSH2 0x1449 PUSH2 0x2A5A JUMP JUMPDEST PUSH1 0x20 MUL PUSH1 0x20 ADD ADD MLOAD DUP2 PUSH2 0x120 ADD DUP2 DUP2 MSTORE POP POP DUP4 DUP3 DUP2 MLOAD DUP2 LT PUSH2 0x146D JUMPI PUSH2 0x146D PUSH2 0x2A5A JUMP JUMPDEST PUSH1 0x20 SWAP1 DUP2 MUL SWAP2 SWAP1 SWAP2 ADD DUP2 ADD MLOAD PUSH1 0xA0 DUP4 ADD SWAP1 DUP2 MSTORE DUP3 MLOAD PUSH1 0x0 SWAP1 DUP2 MSTORE PUSH1 0x7 DUP1 DUP5 MSTORE PUSH1 0x40 SWAP2 DUP3 SWAP1 KECCAK256 DUP6 MLOAD DUP2 SSTORE SWAP4 DUP6 ADD MLOAD PUSH1 0x1 DUP6 ADD SSTORE SWAP1 DUP5 ADD MLOAD PUSH1 0x2 DUP5 ADD SSTORE PUSH1 0x60 DUP5 ADD MLOAD PUSH1 0x3 DUP5 ADD SSTORE PUSH1 0x80 DUP5 ADD MLOAD PUSH1 0x4 DUP5 ADD SSTORE SWAP1 MLOAD PUSH1 0x5 DUP4 ADD SSTORE PUSH1 0xC0 DUP4 ADD MLOAD PUSH1 0x6 DUP4 ADD SSTORE PUSH1 0xE0 DUP4 ADD MLOAD SWAP1 DUP3 ADD DUP1 SLOAD PUSH2 0x100 DUP1 DUP7 ADD MLOAD ISZERO ISZERO MUL PUSH2 0xFF00 NOT SWAP4 ISZERO ISZERO SWAP4 SWAP1 SWAP4 AND PUSH2 0xFFFF NOT SWAP1 SWAP2 AND OR SWAP2 SWAP1 SWAP2 OR SWAP1 SSTORE PUSH2 0x120 DUP3 ADD MLOAD PUSH1 0x8 DUP3 ADD SSTORE PUSH2 0x140 SWAP1 SWAP2 ADD MLOAD PUSH1 0x9 SWAP1 SWAP2 ADD SSTORE DUP1 PUSH2 0x151C DUP2 PUSH2 0x2A3F JUMP JUMPDEST SWAP2 POP POP PUSH2 0x13A1 JUMP JUMPDEST POP POP POP POP POP POP POP JUMP JUMPDEST PUSH1 0x60 PUSH1 0x0 DUP1 JUMPDEST PUSH1 0x3 SLOAD DUP2 LT ISZERO PUSH2 0x15B4 JUMPI DUP4 PUSH1 0x7 PUSH1 0x0 PUSH2 0x154D DUP5 PUSH1 0x1 PUSH2 0x2A70 JUMP JUMPDEST DUP2 MSTORE PUSH1 0x20 ADD SWAP1 DUP2 MSTORE PUSH1 0x20 ADD PUSH1 0x0 KECCAK256 PUSH1 0x1 ADD SLOAD EQ DUP1 ISZERO PUSH2 0x158F JUMPI POP PUSH1 0x7 PUSH1 0x0 PUSH2 0x1576 DUP4 PUSH1 0x1 PUSH2 0x2A70 JUMP JUMPDEST DUP2 MSTORE PUSH1 0x20 DUP2 ADD SWAP2 SWAP1 SWAP2 MSTORE PUSH1 0x40 ADD PUSH1 0x0 KECCAK256 PUSH1 0x7 ADD SLOAD PUSH1 0xFF AND ISZERO JUMPDEST ISZERO PUSH2 0x15A2 JUMPI DUP2 PUSH2 0x159E DUP2 PUSH2 0x2A3F JUMP JUMPDEST SWAP3 POP POP JUMPDEST DUP1 PUSH2 0x15AC DUP2 PUSH2 0x2A3F JUMP JUMPDEST SWAP2 POP POP PUSH2 0x1533 JUMP JUMPDEST POP DUP1 PUSH8 0xFFFFFFFFFFFFFFFF DUP2 GT ISZERO PUSH2 0x15CE JUMPI PUSH2 0x15CE PUSH2 0x2597 JUMP JUMPDEST PUSH1 0x40 MLOAD SWAP1 DUP1 DUP3 MSTORE DUP1 PUSH1 0x20 MUL PUSH1 0x20 ADD DUP3 ADD PUSH1 0x40 MSTORE DUP1 ISZERO PUSH2 0x1607 JUMPI DUP2 PUSH1 0x20 ADD JUMPDEST PUSH2 0x15F4 PUSH2 0x21DE JUMP JUMPDEST DUP2 MSTORE PUSH1 0x20 ADD SWAP1 PUSH1 0x1 SWAP1 SUB SWAP1 DUP2 PUSH2 0x15EC JUMPI SWAP1 POP JUMPDEST POP SWAP2 POP PUSH1 0x0 DUP1 JUMPDEST PUSH1 0x3 SLOAD DUP2 LT ISZERO PUSH2 0xCBD JUMPI DUP5 PUSH1 0x7 PUSH1 0x0 PUSH2 0x1628 DUP5 PUSH1 0x1 PUSH2 0x2A70 JUMP JUMPDEST DUP2 MSTORE PUSH1 0x20 ADD SWAP1 DUP2 MSTORE PUSH1 0x20 ADD PUSH1 0x0 KECCAK256 PUSH1 0x1 ADD SLOAD EQ DUP1 ISZERO PUSH2 0x166A JUMPI POP PUSH1 0x7 PUSH1 0x0 PUSH2 0x1651 DUP4 PUSH1 0x1 PUSH2 0x2A70 JUMP JUMPDEST DUP2 MSTORE PUSH1 0x20 DUP2 ADD SWAP2 SWAP1 SWAP2 MSTORE PUSH1 0x40 ADD PUSH1 0x0 KECCAK256 PUSH1 0x7 ADD SLOAD PUSH1 0xFF AND ISZERO JUMPDEST ISZERO PUSH2 0x173B JUMPI PUSH1 0x7 PUSH1 0x0 PUSH2 0x167E DUP4 PUSH1 0x1 PUSH2 0x2A70 JUMP JUMPDEST DUP2 MSTORE PUSH1 0x20 DUP1 DUP3 ADD SWAP3 SWAP1 SWAP3 MSTORE PUSH1 0x40 SWAP1 DUP2 ADD PUSH1 0x0 KECCAK256 DUP2 MLOAD PUSH2 0x160 DUP2 ADD DUP4 MSTORE DUP2 SLOAD DUP2 MSTORE PUSH1 0x1 DUP3 ADD SLOAD SWAP4 DUP2 ADD SWAP4 SWAP1 SWAP4 MSTORE PUSH1 0x2 DUP2 ADD SLOAD SWAP2 DUP4 ADD SWAP2 SWAP1 SWAP2 MSTORE PUSH1 0x3 DUP2 ADD SLOAD PUSH1 0x60 DUP4 ADD MSTORE PUSH1 0x4 DUP2 ADD SLOAD PUSH1 0x80 DUP4 ADD MSTORE PUSH1 0x5 DUP2 ADD SLOAD PUSH1 0xA0 DUP4 ADD MSTORE PUSH1 0x6 DUP2 ADD SLOAD PUSH1 0xC0 DUP4 ADD MSTORE PUSH1 0x7 DUP2 ADD SLOAD PUSH1 0xFF DUP1 DUP3 AND ISZERO ISZERO PUSH1 0xE0 DUP6 ADD MSTORE PUSH2 0x100 SWAP2 DUP3 SWAP1 DIV AND ISZERO ISZERO SWAP1 DUP4 ADD MSTORE PUSH1 0x8 DUP2 ADD SLOAD PUSH2 0x120 DUP4 ADD MSTORE PUSH1 0x9 ADD SLOAD PUSH2 0x140 DUP3 ADD MSTORE DUP5 DUP4 PUSH2 0x171D DUP2 PUSH2 0x2A3F JUMP JUMPDEST SWAP5 POP DUP2 MLOAD DUP2 LT PUSH2 0x172F JUMPI PUSH2 0x172F PUSH2 0x2A5A JUMP JUMPDEST PUSH1 0x20 MUL PUSH1 0x20 ADD ADD DUP2 SWAP1 MSTORE POP JUMPDEST DUP1 PUSH2 0x1745 DUP2 PUSH2 0x2A3F JUMP JUMPDEST SWAP2 POP POP PUSH2 0x160E JUMP JUMPDEST PUSH2 0x1755 PUSH2 0x2075 JUMP JUMPDEST PUSH1 0x0 DUP5 MLOAD GT PUSH2 0x179C JUMPI PUSH1 0x40 MLOAD PUSH3 0x461BCD PUSH1 0xE5 SHL DUP2 MSTORE PUSH1 0x20 PUSH1 0x4 DUP3 ADD MSTORE PUSH1 0x13 PUSH1 0x24 DUP3 ADD MSTORE PUSH19 0x135BDD9A59481B985B59481C995C5D5A5C9959 PUSH1 0x6A SHL PUSH1 0x44 DUP3 ADD MSTORE PUSH1 0x64 ADD PUSH2 0x672 JUMP JUMPDEST PUSH1 0x0 DUP4 MLOAD GT PUSH2 0x17ED JUMPI PUSH1 0x40 MLOAD PUSH3 0x461BCD PUSH1 0xE5 SHL DUP2 MSTORE PUSH1 0x20 PUSH1 0x4 DUP3 ADD MSTORE PUSH1 0x18 PUSH1 0x24 DUP3 ADD MSTORE PUSH32 0x4D6F76696520696D6167652075726C2072657175697265640000000000000000 PUSH1 0x44 DUP3 ADD MSTORE PUSH1 0x64 ADD PUSH2 0x672 JUMP JUMPDEST PUSH1 0x0 DUP3 MLOAD GT PUSH2 0x1835 JUMPI PUSH1 0x40 MLOAD PUSH3 0x461BCD PUSH1 0xE5 SHL DUP2 MSTORE PUSH1 0x20 PUSH1 0x4 DUP3 ADD MSTORE PUSH1 0x14 PUSH1 0x24 DUP3 ADD MSTORE PUSH20 0x135BDD9A594819D95B9C99481C995C5D5A5C9959 PUSH1 0x62 SHL PUSH1 0x44 DUP3 ADD MSTORE PUSH1 0x64 ADD PUSH2 0x672 JUMP JUMPDEST PUSH1 0x0 DUP2 MLOAD GT PUSH2 0x1886 JUMPI PUSH1 0x40 MLOAD PUSH3 0x461BCD PUSH1 0xE5 SHL DUP2 MSTORE PUSH1 0x20 PUSH1 0x4 DUP3 ADD MSTORE PUSH1 0x1A PUSH1 0x24 DUP3 ADD MSTORE PUSH32 0x4D6F766965206465736372697074696F6E207265717569726564000000000000 PUSH1 0x44 DUP3 ADD MSTORE PUSH1 0x64 ADD PUSH2 0x672 JUMP JUMPDEST PUSH2 0x1894 PUSH1 0x1 DUP1 SLOAD PUSH1 0x1 ADD SWAP1 SSTORE JUMP JUMPDEST PUSH2 0x189C PUSH2 0x219F JUMP JUMPDEST PUSH1 0x1 SLOAD DUP2 MSTORE PUSH1 0x20 DUP2 ADD DUP6 SWAP1 MSTORE PUSH1 0x40 DUP2 ADD DUP5 SWAP1 MSTORE PUSH1 0x60 DUP2 ADD DUP4 SWAP1 MSTORE PUSH1 0x80 DUP2 ADD DUP3 SWAP1 MSTORE PUSH2 0x18C5 PUSH2 0x2184 JUMP JUMPDEST PUSH1 0xA0 DUP3 ADD MSTORE DUP1 MLOAD PUSH1 0x0 SWAP1 DUP2 MSTORE PUSH1 0x6 PUSH1 0x20 SWAP1 DUP2 MSTORE PUSH1 0x40 SWAP1 SWAP2 KECCAK256 DUP3 MLOAD DUP2 SSTORE DUP2 DUP4 ADD MLOAD DUP1 MLOAD DUP5 SWAP4 PUSH2 0x18FA SWAP3 PUSH1 0x1 DUP6 ADD SWAP3 SWAP2 ADD SWAP1 PUSH2 0x225A JUMP JUMPDEST POP PUSH1 0x40 DUP3 ADD MLOAD DUP1 MLOAD PUSH2 0x1916 SWAP2 PUSH1 0x2 DUP5 ADD SWAP2 PUSH1 0x20 SWAP1 SWAP2 ADD SWAP1 PUSH2 0x225A JUMP JUMPDEST POP PUSH1 0x60 DUP3 ADD MLOAD DUP1 MLOAD PUSH2 0x1932 SWAP2 PUSH1 0x3 DUP5 ADD SWAP2 PUSH1 0x20 SWAP1 SWAP2 ADD SWAP1 PUSH2 0x225A JUMP JUMPDEST POP PUSH1 0x80 DUP3 ADD MLOAD DUP1 MLOAD PUSH2 0x194E SWAP2 PUSH1 0x4 DUP5 ADD SWAP2 PUSH1 0x20 SWAP1 SWAP2 ADD SWAP1 PUSH2 0x225A JUMP JUMPDEST POP PUSH1 0xA0 DUP3 ADD MLOAD PUSH1 0x5 DUP1 DUP4 ADD SWAP2 SWAP1 SWAP2 SSTORE PUSH1 0xC0 SWAP1 SWAP3 ADD MLOAD PUSH1 0x6 SWAP1 SWAP2 ADD DUP1 SLOAD SWAP2 ISZERO ISZERO PUSH1 0xFF NOT SWAP3 DUP4 AND OR SWAP1 SSTORE DUP3 MLOAD PUSH1 0x0 SWAP1 DUP2 MSTORE PUSH1 0x20 SWAP3 SWAP1 SWAP3 MSTORE PUSH1 0x40 SWAP2 DUP3 SWAP1 KECCAK256 DUP1 SLOAD SWAP1 SWAP2 AND PUSH1 0x1 OR SWAP1 SSTORE MLOAD PUSH32 0x8B2C14FE955D044EF95BA32B88D2CEB87C6F73FCEFDCEBE906063A6D75690F27 SWAP1 PUSH2 0x19F1 SWAP1 PUSH1 0x20 DUP1 DUP3 MSTORE PUSH1 0x18 SWAP1 DUP3 ADD MSTORE PUSH32 0x4D6F766965206164646564207375636365737366756C6C790000000000000000 PUSH1 0x40 DUP3 ADD MSTORE PUSH1 0x60 ADD SWAP1 JUMP JUMPDEST PUSH1 0x40 MLOAD DUP1 SWAP2 SUB SWAP1 LOG1 POP POP POP POP POP JUMP JUMPDEST PUSH1 0x0 DUP3 DUP2 MSTORE PUSH1 0x8 PUSH1 0x20 SWAP1 DUP2 MSTORE PUSH1 0x40 DUP1 DUP4 KECCAK256 DUP5 DUP5 MSTORE DUP3 MSTORE SWAP2 DUP3 SWAP1 KECCAK256 DUP1 SLOAD DUP4 MLOAD DUP2 DUP5 MUL DUP2 ADD DUP5 ADD SWAP1 SWAP5 MSTORE DUP1 DUP5 MSTORE PUSH1 0x60 SWAP4 SWAP3 DUP4 ADD DUP3 DUP3 DUP1 ISZERO PUSH2 0x1A68 JUMPI PUSH1 0x20 MUL DUP3 ADD SWAP2 SWAP1 PUSH1 0x0 MSTORE PUSH1 0x20 PUSH1 0x0 KECCAK256 SWAP1 JUMPDEST DUP2 SLOAD PUSH1 0x1 PUSH1 0x1 PUSH1 0xA0 SHL SUB AND DUP2 MSTORE PUSH1 0x1 SWAP1 SWAP2 ADD SWAP1 PUSH1 0x20 ADD DUP1 DUP4 GT PUSH2 0x1A4A JUMPI JUMPDEST POP POP POP POP POP SWAP1 POP JUMPDEST SWAP3 SWAP2 POP POP JUMP JUMPDEST PUSH2 0x1A7E PUSH2 0x2075 JUMP JUMPDEST PUSH1 0x0 DUP6 DUP2 MSTORE PUSH1 0x5 PUSH1 0x20 MSTORE PUSH1 0x40 SWAP1 KECCAK256 SLOAD PUSH1 0xFF AND PUSH2 0x1AD3 JUMPI PUSH1 0x40 MLOAD PUSH3 0x461BCD PUSH1 0xE5 SHL DUP2 MSTORE PUSH1 0x20 PUSH1 0x4 DUP3 ADD MSTORE PUSH1 0x14 PUSH1 0x24 DUP3 ADD MSTORE PUSH20 0x4D6F76696520646F65736E277420657869737421 PUSH1 0x60 SHL PUSH1 0x44 DUP3 ADD MSTORE PUSH1 0x64 ADD PUSH2 0x672 JUMP JUMPDEST PUSH1 0x0 DUP5 MLOAD GT PUSH2 0x1B1A JUMPI PUSH1 0x40 MLOAD PUSH3 0x461BCD PUSH1 0xE5 SHL DUP2 MSTORE PUSH1 0x20 PUSH1 0x4 DUP3 ADD MSTORE PUSH1 0x13 PUSH1 0x24 DUP3 ADD MSTORE PUSH19 0x135BDD9A59481B985B59481C995C5D5A5C9959 PUSH1 0x6A SHL PUSH1 0x44 DUP3 ADD MSTORE PUSH1 0x64 ADD PUSH2 0x672 JUMP JUMPDEST PUSH1 0x0 DUP4 MLOAD GT PUSH2 0x1B6B JUMPI PUSH1 0x40 MLOAD PUSH3 0x461BCD PUSH1 0xE5 SHL DUP2 MSTORE PUSH1 0x20 PUSH1 0x4 DUP3 ADD MSTORE PUSH1 0x18 PUSH1 0x24 DUP3 ADD MSTORE PUSH32 0x4D6F76696520696D6167652055524C2072657175697265640000000000000000 PUSH1 0x44 DUP3 ADD MSTORE PUSH1 0x64 ADD PUSH2 0x672 JUMP JUMPDEST PUSH1 0x0 DUP3 MLOAD GT PUSH2 0x1BB3 JUMPI PUSH1 0x40 MLOAD PUSH3 0x461BCD PUSH1 0xE5 SHL DUP2 MSTORE PUSH1 0x20 PUSH1 0x4 DUP3 ADD MSTORE PUSH1 0x14 PUSH1 0x24 DUP3 ADD MSTORE PUSH20 0x135BDD9A594819D95B9C99481C995C5D5A5C9959 PUSH1 0x62 SHL PUSH1 0x44 DUP3 ADD MSTORE PUSH1 0x64 ADD PUSH2 0x672 JUMP JUMPDEST PUSH1 0x0 DUP2 MLOAD GT PUSH2 0x1C04 JUMPI PUSH1 0x40 MLOAD PUSH3 0x461BCD PUSH1 0xE5 SHL DUP2 MSTORE PUSH1 0x20 PUSH1 0x4 DUP3 ADD MSTORE PUSH1 0x1A PUSH1 0x24 DUP3 ADD MSTORE PUSH32 0x4D6F766965206465736372697074696F6E207265717569726564000000000000 PUSH1 0x44 DUP3 ADD MSTORE PUSH1 0x64 ADD PUSH2 0x672 JUMP JUMPDEST PUSH1 0x1 JUMPDEST PUSH1 0x3 SLOAD DUP2 GT PUSH2 0x1C9E JUMPI PUSH1 0x0 DUP7 DUP2 MSTORE PUSH1 0x8 PUSH1 0x20 SWAP1 DUP2 MSTORE PUSH1 0x40 DUP1 DUP4 KECCAK256 DUP5 DUP5 MSTORE SWAP1 SWAP2 MSTORE SWAP1 KECCAK256 DUP1 SLOAD ISZERO PUSH2 0x1C8B JUMPI PUSH1 0x40 MLOAD PUSH3 0x461BCD PUSH1 0xE5 SHL DUP2 MSTORE PUSH1 0x20 PUSH1 0x4 DUP3 ADD MSTORE PUSH1 0x2A PUSH1 0x24 DUP3 ADD MSTORE PUSH32 0x43616E6E6F7420757064617465206D6F76696520776974682070757263686173 PUSH1 0x44 DUP3 ADD MSTORE PUSH10 0x6564207469636B657473 PUSH1 0xB0 SHL PUSH1 0x64 DUP3 ADD MSTORE PUSH1 0x84 ADD PUSH2 0x672 JUMP JUMPDEST POP DUP1 PUSH2 0x1C96 DUP2 PUSH2 0x2A3F JUMP JUMPDEST SWAP2 POP POP PUSH2 0x1C07 JUMP JUMPDEST POP PUSH1 0x0 DUP6 DUP2 MSTORE PUSH1 0x6 PUSH1 0x20 SWAP1 DUP2 MSTORE PUSH1 0x40 SWAP1 SWAP2 KECCAK256 DUP6 MLOAD PUSH2 0x1CC4 SWAP3 PUSH1 0x1 SWAP1 SWAP3 ADD SWAP2 DUP8 ADD SWAP1 PUSH2 0x225A JUMP JUMPDEST POP PUSH1 0x0 DUP6 DUP2 MSTORE PUSH1 0x6 PUSH1 0x20 SWAP1 DUP2 MSTORE PUSH1 0x40 SWAP1 SWAP2 KECCAK256 DUP5 MLOAD PUSH2 0x1CEA SWAP3 PUSH1 0x2 SWAP1 SWAP3 ADD SWAP2 DUP7 ADD SWAP1 PUSH2 0x225A JUMP JUMPDEST POP PUSH1 0x0 DUP6 DUP2 MSTORE PUSH1 0x6 PUSH1 0x20 SWAP1 DUP2 MSTORE PUSH1 0x40 SWAP1 SWAP2 KECCAK256 DUP4 MLOAD PUSH2 0x1D10 SWAP3 PUSH1 0x3 SWAP1 SWAP3 ADD SWAP2 DUP6 ADD SWAP1 PUSH2 0x225A JUMP JUMPDEST POP PUSH1 0x0 DUP6 DUP2 MSTORE PUSH1 0x6 PUSH1 0x20 SWAP1 DUP2 MSTORE PUSH1 0x40 SWAP1 SWAP2 KECCAK256 DUP3 MLOAD PUSH2 0x1D36 SWAP3 PUSH1 0x4 SWAP1 SWAP3 ADD SWAP2 DUP5 ADD SWAP1 PUSH2 0x225A JUMP JUMPDEST POP PUSH32 0x8B2C14FE955D044EF95BA32B88D2CEB87C6F73FCEFDCEBE906063A6D75690F27 PUSH1 0x40 MLOAD PUSH2 0x19F1 SWAP1 PUSH1 0x20 DUP1 DUP3 MSTORE PUSH1 0x1A SWAP1 DUP3 ADD MSTORE PUSH32 0x4D6F7669652075706461746564207375636365737366756C6C79000000000000 PUSH1 0x40 DUP3 ADD MSTORE PUSH1 0x60 ADD SWAP1 JUMP JUMPDEST PUSH1 0x0 DUP4 DUP2 MSTORE PUSH1 0x5 PUSH1 0x20 MSTORE PUSH1 0x40 SWAP1 KECCAK256 SLOAD PUSH1 0xFF AND DUP1 ISZERO PUSH2 0x1DC4 JUMPI POP PUSH1 0x0 DUP3 DUP2 MSTORE PUSH1 0x7 PUSH1 0x20 MSTORE PUSH1 0x40 SWAP1 KECCAK256 PUSH1 0x1 ADD SLOAD DUP4 EQ JUMPDEST PUSH2 0x1DE0 JUMPI PUSH1 0x40 MLOAD PUSH3 0x461BCD PUSH1 0xE5 SHL DUP2 MSTORE PUSH1 0x4 ADD PUSH2 0x672 SWAP1 PUSH2 0x2AA7 JUMP JUMPDEST PUSH1 0x0 DUP3 DUP2 MSTORE PUSH1 0x7 PUSH1 0x20 MSTORE PUSH1 0x40 SWAP1 KECCAK256 PUSH1 0x2 ADD SLOAD PUSH2 0x1DFD SWAP1 DUP3 SWAP1 PUSH2 0x2A88 JUMP JUMPDEST CALLVALUE LT ISZERO PUSH2 0x1E42 JUMPI PUSH1 0x40 MLOAD PUSH3 0x461BCD PUSH1 0xE5 SHL DUP2 MSTORE PUSH1 0x20 PUSH1 0x4 DUP3 ADD MSTORE PUSH1 0x13 PUSH1 0x24 DUP3 ADD MSTORE PUSH19 0x125B9CDD59999A58DA595B9D08185B5BDD5B9D PUSH1 0x6A SHL PUSH1 0x44 DUP3 ADD MSTORE PUSH1 0x64 ADD PUSH2 0x672 JUMP JUMPDEST PUSH1 0x0 DUP3 DUP2 MSTORE PUSH1 0x7 PUSH1 0x20 MSTORE PUSH1 0x40 SWAP1 KECCAK256 PUSH1 0x6 DUP2 ADD SLOAD PUSH1 0x5 SWAP1 SWAP2 ADD SLOAD GT PUSH2 0x1E9A JUMPI PUSH1 0x40 MLOAD PUSH3 0x461BCD PUSH1 0xE5 SHL DUP2 MSTORE PUSH1 0x20 PUSH1 0x4 DUP3 ADD MSTORE PUSH1 0xF PUSH1 0x24 DUP3 ADD MSTORE PUSH15 0x4F7574206F66206361706163697479 PUSH1 0x88 SHL PUSH1 0x44 DUP3 ADD MSTORE PUSH1 0x64 ADD PUSH2 0x672 JUMP JUMPDEST PUSH1 0x0 JUMPDEST DUP2 DUP2 LT ISZERO PUSH2 0x1F8D JUMPI PUSH2 0x1EB3 PUSH1 0x2 DUP1 SLOAD PUSH1 0x1 ADD SWAP1 SSTORE JUMP JUMPDEST PUSH2 0x1EFC PUSH1 0x40 MLOAD DUP1 PUSH1 0xE0 ADD PUSH1 0x40 MSTORE DUP1 PUSH1 0x0 DUP2 MSTORE PUSH1 0x20 ADD PUSH1 0x0 DUP2 MSTORE PUSH1 0x20 ADD PUSH1 0x0 DUP2 MSTORE PUSH1 0x20 ADD PUSH1 0x0 PUSH1 0x1 PUSH1 0x1 PUSH1 0xA0 SHL SUB AND DUP2 MSTORE PUSH1 0x20 ADD PUSH1 0x0 DUP2 MSTORE PUSH1 0x20 ADD PUSH1 0x0 DUP2 MSTORE PUSH1 0x20 ADD PUSH1 0x0 DUP2 MSTORE POP SWAP1 JUMP JUMPDEST PUSH1 0x2 DUP1 SLOAD DUP3 MSTORE PUSH1 0x0 DUP6 DUP2 MSTORE PUSH1 0x7 PUSH1 0x20 DUP2 DUP2 MSTORE PUSH1 0x40 DUP1 DUP5 KECCAK256 SWAP5 DUP6 ADD SLOAD PUSH1 0x80 DUP8 ADD MSTORE SWAP3 DUP9 SWAP1 MSTORE MSTORE PUSH1 0x8 SWAP1 SWAP2 ADD SLOAD PUSH1 0xC0 DUP4 ADD MSTORE DUP2 ADD DUP5 SWAP1 MSTORE CALLER PUSH1 0x60 DUP3 ADD MSTORE PUSH2 0x1F3F PUSH2 0x2184 JUMP JUMPDEST PUSH1 0xA0 SWAP1 SWAP2 ADD MSTORE PUSH1 0x0 DUP5 DUP2 MSTORE PUSH1 0x8 PUSH1 0x20 SWAP1 DUP2 MSTORE PUSH1 0x40 DUP1 DUP4 KECCAK256 DUP7 DUP5 MSTORE DUP3 MSTORE DUP3 KECCAK256 DUP1 SLOAD PUSH1 0x1 DUP2 ADD DUP3 SSTORE SWAP1 DUP4 MSTORE SWAP2 KECCAK256 ADD DUP1 SLOAD PUSH1 0x1 PUSH1 0x1 PUSH1 0xA0 SHL SUB NOT AND CALLER OR SWAP1 SSTORE DUP1 PUSH2 0x1F85 DUP2 PUSH2 0x2A3F JUMP JUMPDEST SWAP2 POP POP PUSH2 0x1E9D JUMP JUMPDEST POP PUSH1 0x0 DUP3 DUP2 MSTORE PUSH1 0x7 PUSH1 0x20 MSTORE PUSH1 0x40 DUP2 KECCAK256 PUSH1 0x6 ADD DUP1 SLOAD DUP4 SWAP3 SWAP1 PUSH2 0x1FAF SWAP1 DUP5 SWAP1 PUSH2 0x2A70 JUMP JUMPDEST SWAP1 SWAP2 SSTORE POP POP PUSH1 0x0 DUP3 DUP2 MSTORE PUSH1 0x7 PUSH1 0x20 MSTORE PUSH1 0x40 SWAP1 KECCAK256 PUSH1 0x2 ADD SLOAD PUSH2 0x1FD1 SWAP1 DUP3 SWAP1 PUSH2 0x2A88 JUMP JUMPDEST PUSH1 0x0 DUP4 DUP2 MSTORE PUSH1 0x7 PUSH1 0x20 MSTORE PUSH1 0x40 DUP2 KECCAK256 PUSH1 0x9 ADD DUP1 SLOAD SWAP1 SWAP2 SWAP1 PUSH2 0x1FF2 SWAP1 DUP5 SWAP1 PUSH2 0x2A70 JUMP JUMPDEST SWAP1 SWAP2 SSTORE POP POP POP POP POP JUMP JUMPDEST PUSH2 0x2004 PUSH2 0x2075 JUMP JUMPDEST PUSH1 0x1 PUSH1 0x1 PUSH1 0xA0 SHL SUB DUP2 AND PUSH2 0x2069 JUMPI PUSH1 0x40 MLOAD PUSH3 0x461BCD PUSH1 0xE5 SHL DUP2 MSTORE PUSH1 0x20 PUSH1 0x4 DUP3 ADD MSTORE PUSH1 0x26 PUSH1 0x24 DUP3 ADD MSTORE PUSH32 0x4F776E61626C653A206E6577206F776E657220697320746865207A65726F2061 PUSH1 0x44 DUP3 ADD MSTORE PUSH6 0x646472657373 PUSH1 0xD0 SHL PUSH1 0x64 DUP3 ADD MSTORE PUSH1 0x84 ADD PUSH2 0x672 JUMP JUMPDEST PUSH2 0x2072 DUP2 PUSH2 0x2134 JUMP JUMPDEST POP JUMP JUMPDEST PUSH1 0x0 SLOAD PUSH1 0x1 PUSH1 0x1 PUSH1 0xA0 SHL SUB AND CALLER EQ PUSH2 0x112D JUMPI PUSH1 0x40 MLOAD PUSH3 0x461BCD PUSH1 0xE5 SHL DUP2 MSTORE PUSH1 0x20 PUSH1 0x4 DUP3 ADD DUP2 SWAP1 MSTORE PUSH1 0x24 DUP3 ADD MSTORE PUSH32 0x4F776E61626C653A2063616C6C6572206973206E6F7420746865206F776E6572 PUSH1 0x44 DUP3 ADD MSTORE PUSH1 0x64 ADD PUSH2 0x672 JUMP JUMPDEST PUSH1 0x0 DUP3 PUSH1 0x1 PUSH1 0x1 PUSH1 0xA0 SHL SUB AND DUP3 PUSH1 0x40 MLOAD PUSH1 0x0 PUSH1 0x40 MLOAD DUP1 DUP4 SUB DUP2 DUP6 DUP8 GAS CALL SWAP3 POP POP POP RETURNDATASIZE DUP1 PUSH1 0x0 DUP2 EQ PUSH2 0x211C JUMPI PUSH1 0x40 MLOAD SWAP2 POP PUSH1 0x1F NOT PUSH1 0x3F RETURNDATASIZE ADD AND DUP3 ADD PUSH1 0x40 MSTORE RETURNDATASIZE DUP3 MSTORE RETURNDATASIZE PUSH1 0x0 PUSH1 0x20 DUP5 ADD RETURNDATACOPY PUSH2 0x2121 JUMP JUMPDEST PUSH1 0x60 SWAP2 POP JUMPDEST POP POP SWAP1 POP DUP1 PUSH2 0x212F JUMPI PUSH1 0x0 DUP1 REVERT JUMPDEST POP POP POP JUMP JUMPDEST PUSH1 0x0 DUP1 SLOAD PUSH1 0x1 PUSH1 0x1 PUSH1 0xA0 SHL SUB DUP4 DUP2 AND PUSH1 0x1 PUSH1 0x1 PUSH1 0xA0 SHL SUB NOT DUP4 AND DUP2 OR DUP5 SSTORE PUSH1 0x40 MLOAD SWAP2 SWAP1 SWAP3 AND SWAP3 DUP4 SWAP2 PUSH32 0x8BE0079C531659141344CD1FD0A4F28419497F9722A3DAAFE3B4186F6B6457E0 SWAP2 SWAP1 LOG3 POP POP JUMP JUMPDEST PUSH1 0x0 DUP1 PUSH2 0x2193 TIMESTAMP PUSH2 0x3E8 PUSH2 0x2A88 JUMP JUMPDEST PUSH2 0x1A70 SWAP1 PUSH2 0x3E8 PUSH2 0x2A70 JUMP JUMPDEST PUSH1 0x40 MLOAD DUP1 PUSH1 0xE0 ADD PUSH1 0x40 MSTORE DUP1 PUSH1 0x0 DUP2 MSTORE PUSH1 0x20 ADD PUSH1 0x60 DUP2 MSTORE PUSH1 0x20 ADD PUSH1 0x60 DUP2 MSTORE PUSH1 0x20 ADD PUSH1 0x60 DUP2 MSTORE PUSH1 0x20 ADD PUSH1 0x60 DUP2 MSTORE PUSH1 0x20 ADD PUSH1 0x0 DUP2 MSTORE PUSH1 0x20 ADD PUSH1 0x0 ISZERO ISZERO DUP2 MSTORE POP SWAP1 JUMP JUMPDEST PUSH1 0x40 MLOAD DUP1 PUSH2 0x160 ADD PUSH1 0x40 MSTORE DUP1 PUSH1 0x0 DUP2 MSTORE PUSH1 0x20 ADD PUSH1 0x0 DUP2 MSTORE PUSH1 0x20 ADD PUSH1 0x0 DUP2 MSTORE PUSH1 0x20 ADD PUSH1 0x0 DUP2 MSTORE PUSH1 0x20 ADD PUSH1 0x0 DUP2 MSTORE PUSH1 0x20 ADD PUSH1 0x0 DUP2 MSTORE PUSH1 0x20 ADD PUSH1 0x0 DUP2 MSTORE PUSH1 0x20 ADD PUSH1 0x0 ISZERO ISZERO DUP2 MSTORE PUSH1 0x20 ADD PUSH1 0x0 ISZERO ISZERO DUP2 MSTORE PUSH1 0x20 ADD PUSH1 0x0 DUP2 MSTORE PUSH1 0x20 ADD PUSH1 0x0 DUP2 MSTORE POP SWAP1 JUMP JUMPDEST POP DUP1 SLOAD PUSH1 0x0 DUP3 SSTORE SWAP1 PUSH1 0x0 MSTORE PUSH1 0x20 PUSH1 0x0 KECCAK256 SWAP1 DUP2 ADD SWAP1 PUSH2 0x2072 SWAP2 SWAP1 PUSH2 0x22DE JUMP JUMPDEST DUP3 DUP1 SLOAD PUSH2 0x2266 SWAP1 PUSH2 0x29D7 JUMP JUMPDEST SWAP1 PUSH1 0x0 MSTORE PUSH1 0x20 PUSH1 0x0 KECCAK256 SWAP1 PUSH1 0x1F ADD PUSH1 0x20 SWAP1 DIV DUP2 ADD SWAP3 DUP3 PUSH2 0x2288 JUMPI PUSH1 0x0 DUP6 SSTORE PUSH2 0x22CE JUMP JUMPDEST DUP3 PUSH1 0x1F LT PUSH2 0x22A1 JUMPI DUP1 MLOAD PUSH1 0xFF NOT AND DUP4 DUP1 ADD OR DUP6 SSTORE PUSH2 0x22CE JUMP JUMPDEST DUP3 DUP1 ADD PUSH1 0x1 ADD DUP6 SSTORE DUP3 ISZERO PUSH2 0x22CE JUMPI SWAP2 DUP3 ADD JUMPDEST DUP3 DUP2 GT ISZERO PUSH2 0x22CE JUMPI DUP3 MLOAD DUP3 SSTORE SWAP2 PUSH1 0x20 ADD SWAP2 SWAP1 PUSH1 0x1 ADD SWAP1 PUSH2 0x22B3 JUMP JUMPDEST POP PUSH2 0x22DA SWAP3 SWAP2 POP PUSH2 0x22DE JUMP JUMPDEST POP SWAP1 JUMP JUMPDEST JUMPDEST DUP1 DUP3 GT ISZERO PUSH2 0x22DA JUMPI PUSH1 0x0 DUP2 SSTORE PUSH1 0x1 ADD PUSH2 0x22DF JUMP JUMPDEST PUSH1 0x0 PUSH1 0x20 DUP3 DUP5 SUB SLT ISZERO PUSH2 0x2305 JUMPI PUSH1 0x0 DUP1 REVERT JUMPDEST POP CALLDATALOAD SWAP2 SWAP1 POP JUMP JUMPDEST PUSH1 0x0 DUP2 MLOAD DUP1 DUP5 MSTORE PUSH1 0x0 JUMPDEST DUP2 DUP2 LT ISZERO PUSH2 0x2332 JUMPI PUSH1 0x20 DUP2 DUP6 ADD DUP2 ADD MLOAD DUP7 DUP4 ADD DUP3 ADD MSTORE ADD PUSH2 0x2316 JUMP JUMPDEST DUP2 DUP2 GT ISZERO PUSH2 0x2344 JUMPI PUSH1 0x0 PUSH1 0x20 DUP4 DUP8 ADD ADD MSTORE JUMPDEST POP PUSH1 0x1F ADD PUSH1 0x1F NOT AND SWAP3 SWAP1 SWAP3 ADD PUSH1 0x20 ADD SWAP3 SWAP2 POP POP JUMP JUMPDEST DUP1 MLOAD DUP3 MSTORE PUSH1 0x0 PUSH1 0x20 DUP3 ADD MLOAD PUSH1 0xE0 PUSH1 0x20 DUP6 ADD MSTORE PUSH2 0x2378 PUSH1 0xE0 DUP6 ADD DUP3 PUSH2 0x230C JUMP JUMPDEST SWAP1 POP PUSH1 0x40 DUP4 ADD MLOAD DUP5 DUP3 SUB PUSH1 0x40 DUP7 ADD MSTORE PUSH2 0x2391 DUP3 DUP3 PUSH2 0x230C JUMP JUMPDEST SWAP2 POP POP PUSH1 0x60 DUP4 ADD MLOAD DUP5 DUP3 SUB PUSH1 0x60 DUP7 ADD MSTORE PUSH2 0x23AB DUP3 DUP3 PUSH2 0x230C JUMP JUMPDEST SWAP2 POP POP PUSH1 0x80 DUP4 ADD MLOAD DUP5 DUP3 SUB PUSH1 0x80 DUP7 ADD MSTORE PUSH2 0x23C5 DUP3 DUP3 PUSH2 0x230C JUMP JUMPDEST SWAP2 POP POP PUSH1 0xA0 DUP4 ADD MLOAD PUSH1 0xA0 DUP6 ADD MSTORE PUSH1 0xC0 DUP4 ADD MLOAD ISZERO ISZERO PUSH1 0xC0 DUP6 ADD MSTORE DUP1 SWAP2 POP POP SWAP3 SWAP2 POP POP JUMP JUMPDEST PUSH1 0x20 DUP2 MSTORE PUSH1 0x0 PUSH2 0x23FB PUSH1 0x20 DUP4 ADD DUP5 PUSH2 0x2359 JUMP JUMPDEST SWAP4 SWAP3 POP POP POP JUMP JUMPDEST DUP1 CALLDATALOAD PUSH1 0x1 PUSH1 0x1 PUSH1 0xA0 SHL SUB DUP2 AND DUP2 EQ PUSH2 0x2419 JUMPI PUSH1 0x0 DUP1 REVERT JUMPDEST SWAP2 SWAP1 POP JUMP JUMPDEST PUSH1 0x0 DUP1 PUSH1 0x40 DUP4 DUP6 SUB SLT ISZERO PUSH2 0x2431 JUMPI PUSH1 0x0 DUP1 REVERT JUMPDEST PUSH2 0x243A DUP4 PUSH2 0x2402 JUMP JUMPDEST SWAP5 PUSH1 0x20 SWAP4 SWAP1 SWAP4 ADD CALLDATALOAD SWAP4 POP POP POP JUMP JUMPDEST DUP1 MLOAD DUP3 MSTORE PUSH1 0x20 DUP2 ADD MLOAD PUSH1 0x20 DUP4 ADD MSTORE PUSH1 0x40 DUP2 ADD MLOAD PUSH1 0x40 DUP4 ADD MSTORE PUSH1 0x60 DUP2 ADD MLOAD PUSH1 0x60 DUP4 ADD MSTORE PUSH1 0x80 DUP2 ADD MLOAD PUSH1 0x80 DUP4 ADD MSTORE PUSH1 0xA0 DUP2 ADD MLOAD PUSH1 0xA0 DUP4 ADD MSTORE PUSH1 0xC0 DUP2 ADD MLOAD PUSH1 0xC0 DUP4 ADD MSTORE PUSH1 0xE0 DUP2 ADD MLOAD PUSH2 0x249B PUSH1 0xE0 DUP5 ADD DUP3 ISZERO ISZERO SWAP1 MSTORE JUMP JUMPDEST POP PUSH2 0x100 DUP2 DUP2 ADD MLOAD ISZERO ISZERO SWAP1 DUP4 ADD MSTORE PUSH2 0x120 DUP1 DUP3 ADD MLOAD SWAP1 DUP4 ADD MSTORE PUSH2 0x140 SWAP1 DUP2 ADD MLOAD SWAP2 ADD MSTORE JUMP JUMPDEST PUSH2 0x160 DUP2 ADD PUSH2 0x1A70 DUP3 DUP5 PUSH2 0x2448 JUMP JUMPDEST PUSH1 0x0 PUSH1 0x20 DUP1 DUP4 ADD DUP2 DUP5 MSTORE DUP1 DUP6 MLOAD DUP1 DUP4 MSTORE PUSH1 0x40 DUP7 ADD SWAP2 POP PUSH1 0x40 DUP2 PUSH1 0x5 SHL DUP8 ADD ADD SWAP3 POP DUP4 DUP8 ADD PUSH1 0x0 JUMPDEST DUP3 DUP2 LT ISZERO PUSH2 0x2524 JUMPI PUSH1 0x3F NOT DUP9 DUP7 SUB ADD DUP5 MSTORE PUSH2 0x2512 DUP6 DUP4 MLOAD PUSH2 0x2359 JUMP JUMPDEST SWAP5 POP SWAP3 DUP6 ADD SWAP3 SWAP1 DUP6 ADD SWAP1 PUSH1 0x1 ADD PUSH2 0x24F6 JUMP JUMPDEST POP SWAP3 SWAP8 SWAP7 POP POP POP POP POP POP POP JUMP JUMPDEST PUSH1 0x20 DUP1 DUP3 MSTORE DUP3 MLOAD DUP3 DUP3 ADD DUP2 SWAP1 MSTORE PUSH1 0x0 SWAP2 SWAP1 DUP5 DUP3 ADD SWAP1 PUSH1 0x40 DUP6 ADD SWAP1 DUP5 JUMPDEST DUP2 DUP2 LT ISZERO PUSH2 0x2569 JUMPI DUP4 MLOAD DUP4 MSTORE SWAP3 DUP5 ADD SWAP3 SWAP2 DUP5 ADD SWAP2 PUSH1 0x1 ADD PUSH2 0x254D JUMP JUMPDEST POP SWAP1 SWAP7 SWAP6 POP POP POP POP POP POP JUMP JUMPDEST PUSH1 0x0 DUP1 PUSH1 0x40 DUP4 DUP6 SUB SLT ISZERO PUSH2 0x2588 JUMPI PUSH1 0x0 DUP1 REVERT JUMPDEST POP POP DUP1 CALLDATALOAD SWAP3 PUSH1 0x20 SWAP1 SWAP2 ADD CALLDATALOAD SWAP2 POP JUMP JUMPDEST PUSH4 0x4E487B71 PUSH1 0xE0 SHL PUSH1 0x0 MSTORE PUSH1 0x41 PUSH1 0x4 MSTORE PUSH1 0x24 PUSH1 0x0 REVERT JUMPDEST PUSH1 0x40 MLOAD PUSH1 0x1F DUP3 ADD PUSH1 0x1F NOT AND DUP2 ADD PUSH8 0xFFFFFFFFFFFFFFFF DUP2 GT DUP3 DUP3 LT OR ISZERO PUSH2 0x25D6 JUMPI PUSH2 0x25D6 PUSH2 0x2597 JUMP JUMPDEST PUSH1 0x40 MSTORE SWAP2 SWAP1 POP JUMP JUMPDEST PUSH1 0x0 DUP3 PUSH1 0x1F DUP4 ADD SLT PUSH2 0x25EF JUMPI PUSH1 0x0 DUP1 REVERT JUMPDEST DUP2 CALLDATALOAD PUSH1 0x20 PUSH8 0xFFFFFFFFFFFFFFFF DUP3 GT ISZERO PUSH2 0x260B JUMPI PUSH2 0x260B PUSH2 0x2597 JUMP JUMPDEST DUP2 PUSH1 0x5 SHL PUSH2 0x261A DUP3 DUP3 ADD PUSH2 0x25AD JUMP JUMPDEST SWAP3 DUP4 MSTORE DUP5 DUP2 ADD DUP3 ADD SWAP3 DUP3 DUP2 ADD SWAP1 DUP8 DUP6 GT ISZERO PUSH2 0x2634 JUMPI PUSH1 0x0 DUP1 REVERT JUMPDEST DUP4 DUP8 ADD SWAP3 POP JUMPDEST DUP5 DUP4 LT ISZERO PUSH2 0x2653 JUMPI DUP3 CALLDATALOAD DUP3 MSTORE SWAP2 DUP4 ADD SWAP2 SWAP1 DUP4 ADD SWAP1 PUSH2 0x263A JUMP JUMPDEST SWAP8 SWAP7 POP POP POP POP POP POP POP JUMP JUMPDEST PUSH1 0x0 DUP1 PUSH1 0x0 DUP1 PUSH1 0x0 DUP1 PUSH1 0xC0 DUP8 DUP10 SUB SLT ISZERO PUSH2 0x2677 JUMPI PUSH1 0x0 DUP1 REVERT JUMPDEST DUP7 CALLDATALOAD SWAP6 POP PUSH1 0x20 DUP8 ADD CALLDATALOAD PUSH8 0xFFFFFFFFFFFFFFFF DUP1 DUP3 GT ISZERO PUSH2 0x2696 JUMPI PUSH1 0x0 DUP1 REVERT JUMPDEST PUSH2 0x26A2 DUP11 DUP4 DUP12 ADD PUSH2 0x25DE JUMP JUMPDEST SWAP7 POP PUSH1 0x40 DUP10 ADD CALLDATALOAD SWAP2 POP DUP1 DUP3 GT ISZERO PUSH2 0x26B8 JUMPI PUSH1 0x0 DUP1 REVERT JUMPDEST PUSH2 0x26C4 DUP11 DUP4 DUP12 ADD PUSH2 0x25DE JUMP JUMPDEST SWAP6 POP PUSH1 0x60 DUP10 ADD CALLDATALOAD SWAP2 POP DUP1 DUP3 GT ISZERO PUSH2 0x26DA JUMPI PUSH1 0x0 DUP1 REVERT JUMPDEST PUSH2 0x26E6 DUP11 DUP4 DUP12 ADD PUSH2 0x25DE JUMP JUMPDEST SWAP5 POP PUSH1 0x80 DUP10 ADD CALLDATALOAD SWAP2 POP DUP1 DUP3 GT ISZERO PUSH2 0x26FC JUMPI PUSH1 0x0 DUP1 REVERT JUMPDEST PUSH2 0x2708 DUP11 DUP4 DUP12 ADD PUSH2 0x25DE JUMP JUMPDEST SWAP4 POP PUSH1 0xA0 DUP10 ADD CALLDATALOAD SWAP2 POP DUP1 DUP3 GT ISZERO PUSH2 0x271E JUMPI PUSH1 0x0 DUP1 REVERT JUMPDEST POP PUSH2 0x272B DUP10 DUP3 DUP11 ADD PUSH2 0x25DE JUMP JUMPDEST SWAP2 POP POP SWAP3 SWAP6 POP SWAP3 SWAP6 POP SWAP3 SWAP6 JUMP JUMPDEST PUSH1 0x20 DUP1 DUP3 MSTORE DUP3 MLOAD DUP3 DUP3 ADD DUP2 SWAP1 MSTORE PUSH1 0x0 SWAP2 SWAP1 DUP5 DUP3 ADD SWAP1 PUSH1 0x40 DUP6 ADD SWAP1 DUP5 JUMPDEST DUP2 DUP2 LT ISZERO PUSH2 0x2569 JUMPI PUSH2 0x2767 DUP4 DUP6 MLOAD PUSH2 0x2448 JUMP JUMPDEST SWAP3 DUP5 ADD SWAP3 PUSH2 0x160 SWAP3 SWAP1 SWAP3 ADD SWAP2 PUSH1 0x1 ADD PUSH2 0x2754 JUMP JUMPDEST PUSH1 0x0 DUP3 PUSH1 0x1F DUP4 ADD SLT PUSH2 0x278C JUMPI PUSH1 0x0 DUP1 REVERT JUMPDEST DUP2 CALLDATALOAD PUSH8 0xFFFFFFFFFFFFFFFF DUP2 GT ISZERO PUSH2 0x27A6 JUMPI PUSH2 0x27A6 PUSH2 0x2597 JUMP JUMPDEST PUSH2 0x27B9 PUSH1 0x1F DUP3 ADD PUSH1 0x1F NOT AND PUSH1 0x20 ADD PUSH2 0x25AD JUMP JUMPDEST DUP2 DUP2 MSTORE DUP5 PUSH1 0x20 DUP4 DUP7 ADD ADD GT ISZERO PUSH2 0x27CE JUMPI PUSH1 0x0 DUP1 REVERT JUMPDEST DUP2 PUSH1 0x20 DUP6 ADD PUSH1 0x20 DUP4 ADD CALLDATACOPY PUSH1 0x0 SWAP2 DUP2 ADD PUSH1 0x20 ADD SWAP2 SWAP1 SWAP2 MSTORE SWAP4 SWAP3 POP POP POP JUMP JUMPDEST PUSH1 0x0 DUP1 PUSH1 0x0 DUP1 PUSH1 0x80 DUP6 DUP8 SUB SLT ISZERO PUSH2 0x2801 JUMPI PUSH1 0x0 DUP1 REVERT JUMPDEST DUP5 CALLDATALOAD PUSH8 0xFFFFFFFFFFFFFFFF DUP1 DUP3 GT ISZERO PUSH2 0x2819 JUMPI PUSH1 0x0 DUP1 REVERT JUMPDEST PUSH2 0x2825 DUP9 DUP4 DUP10 ADD PUSH2 0x277B JUMP JUMPDEST SWAP6 POP PUSH1 0x20 DUP8 ADD CALLDATALOAD SWAP2 POP DUP1 DUP3 GT ISZERO PUSH2 0x283B JUMPI PUSH1 0x0 DUP1 REVERT JUMPDEST PUSH2 0x2847 DUP9 DUP4 DUP10 ADD PUSH2 0x277B JUMP JUMPDEST SWAP5 POP PUSH1 0x40 DUP8 ADD CALLDATALOAD SWAP2 POP DUP1 DUP3 GT ISZERO PUSH2 0x285D JUMPI PUSH1 0x0 DUP1 REVERT JUMPDEST PUSH2 0x2869 DUP9 DUP4 DUP10 ADD PUSH2 0x277B JUMP JUMPDEST SWAP4 POP PUSH1 0x60 DUP8 ADD CALLDATALOAD SWAP2 POP DUP1 DUP3 GT ISZERO PUSH2 0x287F JUMPI PUSH1 0x0 DUP1 REVERT JUMPDEST POP PUSH2 0x288C DUP8 DUP3 DUP9 ADD PUSH2 0x277B JUMP JUMPDEST SWAP2 POP POP SWAP3 SWAP6 SWAP2 SWAP5 POP SWAP3 POP JUMP JUMPDEST PUSH1 0x20 DUP1 DUP3 MSTORE DUP3 MLOAD DUP3 DUP3 ADD DUP2 SWAP1 MSTORE PUSH1 0x0 SWAP2 SWAP1 DUP5 DUP3 ADD SWAP1 PUSH1 0x40 DUP6 ADD SWAP1 DUP5 JUMPDEST DUP2 DUP2 LT ISZERO PUSH2 0x2569 JUMPI DUP4 MLOAD PUSH1 0x1 PUSH1 0x1 PUSH1 0xA0 SHL SUB AND DUP4 MSTORE SWAP3 DUP5 ADD SWAP3 SWAP2 DUP5 ADD SWAP2 PUSH1 0x1 ADD PUSH2 0x28B4 JUMP JUMPDEST PUSH1 0x0 DUP1 PUSH1 0x0 DUP1 PUSH1 0x0 PUSH1 0xA0 DUP7 DUP9 SUB SLT ISZERO PUSH2 0x28F1 JUMPI PUSH1 0x0 DUP1 REVERT JUMPDEST DUP6 CALLDATALOAD SWAP5 POP PUSH1 0x20 DUP7 ADD CALLDATALOAD PUSH8 0xFFFFFFFFFFFFFFFF DUP1 DUP3 GT ISZERO PUSH2 0x2910 JUMPI PUSH1 0x0 DUP1 REVERT JUMPDEST PUSH2 0x291C DUP10 DUP4 DUP11 ADD PUSH2 0x277B JUMP JUMPDEST SWAP6 POP PUSH1 0x40 DUP9 ADD CALLDATALOAD SWAP2 POP DUP1 DUP3 GT ISZERO PUSH2 0x2932 JUMPI PUSH1 0x0 DUP1 REVERT JUMPDEST PUSH2 0x293E DUP10 DUP4 DUP11 ADD PUSH2 0x277B JUMP JUMPDEST SWAP5 POP PUSH1 0x60 DUP9 ADD CALLDATALOAD SWAP2 POP DUP1 DUP3 GT ISZERO PUSH2 0x2954 JUMPI PUSH1 0x0 DUP1 REVERT JUMPDEST PUSH2 0x2960 DUP10 DUP4 DUP11 ADD PUSH2 0x277B JUMP JUMPDEST SWAP4 POP PUSH1 0x80 DUP9 ADD CALLDATALOAD SWAP2 POP DUP1 DUP3 GT ISZERO PUSH2 0x2976 JUMPI PUSH1 0x0 DUP1 REVERT JUMPDEST POP PUSH2 0x2983 DUP9 DUP3 DUP10 ADD PUSH2 0x277B JUMP JUMPDEST SWAP2 POP POP SWAP3 SWAP6 POP SWAP3 SWAP6 SWAP1 SWAP4 POP JUMP JUMPDEST PUSH1 0x0 DUP1 PUSH1 0x0 PUSH1 0x60 DUP5 DUP7 SUB SLT ISZERO PUSH2 0x29A5 JUMPI PUSH1 0x0 DUP1 REVERT JUMPDEST POP POP DUP2 CALLDATALOAD SWAP4 PUSH1 0x20 DUP4 ADD CALLDATALOAD SWAP4 POP PUSH1 0x40 SWAP1 SWAP3 ADD CALLDATALOAD SWAP2 SWAP1 POP JUMP JUMPDEST PUSH1 0x0 PUSH1 0x20 DUP3 DUP5 SUB SLT ISZERO PUSH2 0x29CE JUMPI PUSH1 0x0 DUP1 REVERT JUMPDEST PUSH2 0x23FB DUP3 PUSH2 0x2402 JUMP JUMPDEST PUSH1 0x1 DUP2 DUP2 SHR SWAP1 DUP3 AND DUP1 PUSH2 0x29EB JUMPI PUSH1 0x7F DUP3 AND SWAP2 POP JUMPDEST PUSH1 0x20 DUP3 LT DUP2 EQ ISZERO PUSH2 0x2A0C JUMPI PUSH4 0x4E487B71 PUSH1 0xE0 SHL PUSH1 0x0 MSTORE PUSH1 0x22 PUSH1 0x4 MSTORE PUSH1 0x24 PUSH1 0x0 REVERT JUMPDEST POP SWAP2 SWAP1 POP JUMP JUMPDEST PUSH4 0x4E487B71 PUSH1 0xE0 SHL PUSH1 0x0 MSTORE PUSH1 0x11 PUSH1 0x4 MSTORE PUSH1 0x24 PUSH1 0x0 REVERT JUMPDEST PUSH1 0x0 DUP3 DUP3 LT ISZERO PUSH2 0x2A3A JUMPI PUSH2 0x2A3A PUSH2 0x2A12 JUMP JUMPDEST POP SUB SWAP1 JUMP JUMPDEST PUSH1 0x0 PUSH1 0x0 NOT DUP3 EQ ISZERO PUSH2 0x2A53 JUMPI PUSH2 0x2A53 PUSH2 0x2A12 JUMP JUMPDEST POP PUSH1 0x1 ADD SWAP1 JUMP JUMPDEST PUSH4 0x4E487B71 PUSH1 0xE0 SHL PUSH1 0x0 MSTORE PUSH1 0x32 PUSH1 0x4 MSTORE PUSH1 0x24 PUSH1 0x0 REVERT JUMPDEST PUSH1 0x0 DUP3 NOT DUP3 GT ISZERO PUSH2 0x2A83 JUMPI PUSH2 0x2A83 PUSH2 0x2A12 JUMP JUMPDEST POP ADD SWAP1 JUMP JUMPDEST PUSH1 0x0 DUP2 PUSH1 0x0 NOT DIV DUP4 GT DUP3 ISZERO ISZERO AND ISZERO PUSH2 0x2AA2 JUMPI PUSH2 0x2AA2 PUSH2 0x2A12 JUMP JUMPDEST POP MUL SWAP1 JUMP JUMPDEST PUSH1 0x20 DUP1 DUP3 MSTORE PUSH1 0xF SWAP1 DUP3 ADD MSTORE PUSH15 0x135BDD9A59481B9BDD08199BDD5B99 PUSH1 0x8A SHL PUSH1 0x40 DUP3 ADD MSTORE PUSH1 0x60 ADD SWAP1 JUMP INVALID LOG2 PUSH5 0x6970667358 0x22 SLT KECCAK256 0xD DUP3 EXP DUP7 XOR 0xD5 COINBASE 0xB8 SWAP1 PUSH28 0x5C094A8A882A1A593BAC9CA6CFDF31A527548066687464736F6C6343 STOP ADDMOD SIGNEXTEND STOP CALLER "},"methodIdentifiers":{"addMovie(string,string,string,string)":"8f70d440","addTimeslot(uint256,uint256[],uint256[],uint256[],uint256[],uint256[])":"77340bba","balance()":"b69ef8a8","buyTicket(uint256,uint256,uint256)":"c4c6710d","deleteMovie(uint256)":"6b4f6cb7","deleteTimeSlot(uint256,uint256)":"58a9525b","getMovie(uint256)":"179ffe76","getMovieTicketHolders(uint256,uint256)":"af875f35","getMovieTimeSlots(uint256)":"2e130aca","getMovies()":"2c53b406","getTimeSlot(uint256)":"2b85dcc9","getTimeSlots(uint256)":"7cd35a0a","markTimeSlot(uint256,uint256)":"45e9a8fc","owner()":"8da5cb5b","renounceOwnership()":"715018a6","transferOwnership(address)":"f2fde38b","updateMovie(uint256,string,string,string,string)":"bd4c5d24","withdrawTo(address,uint256)":"205c2878"}}}}}