{
  "_format": "hh-sol-artifact-1",
  "contractName": "DappCinemas",
  "sourceName": "src/contracts/DappCinemas.sol",
  "abi": [
    {
      "anonymous": false,
      "inputs": [
        {
          "indexed": false,
          "internalType": "string",
          "name": "actionType",
          "type": "string"
        }
      ],
      "name": "Action",
      "type": "event"
    },
    {
      "anonymous": false,
      "inputs": [
        {
          "indexed": true,
          "internalType": "address",
          "name": "previousOwner",
          "type": "address"
        },
        {
          "indexed": true,
          "internalType": "address",
          "name": "newOwner",
          "type": "address"
        }
      ],
      "name": "OwnershipTransferred",
      "type": "event"
    },
    {
      "inputs": [
        {
          "internalType": "string",
          "name": "name",
          "type": "string"
        },
        {
          "internalType": "string",
          "name": "imageUrl",
          "type": "string"
        },
        {
          "internalType": "string",
          "name": "genre",
          "type": "string"
        },
        {
          "internalType": "string",
          "name": "description",
          "type": "string"
        }
      ],
      "name": "addMovie",
      "outputs": [],
      "stateMutability": "nonpayable",
      "type": "function"
    },
    {
      "inputs": [
        {
          "internalType": "uint256",
          "name": "movieId",
          "type": "uint256"
        },
        {
          "internalType": "uint256[]",
          "name": "ticketCosts",
          "type": "uint256[]"
        },
        {
          "internalType": "uint256[]",
          "name": "startTimes",
          "type": "uint256[]"
        },
        {
          "internalType": "uint256[]",
          "name": "endTimes",
          "type": "uint256[]"
        },
        {
          "internalType": "uint256[]",
          "name": "capacities",
          "type": "uint256[]"
        },
        {
          "internalType": "uint256[]",
          "name": "viewingDays",
          "type": "uint256[]"
        }
      ],
      "name": "addTimeslot",
      "outputs": [],
      "stateMutability": "nonpayable",
      "type": "function"
    },
    {
      "inputs": [],
      "name": "balance",
      "outputs": [
        {
          "internalType": "uint256",
          "name": "",
          "type": "uint256"
        }
      ],
      "stateMutability": "view",
      "type": "function"
    },
    {
      "inputs": [
        {
          "internalType": "uint256",
          "name": "movieId",
          "type": "uint256"
        },
        {
          "internalType": "uint256",
          "name": "slotId",
          "type": "uint256"
        },
        {
          "internalType": "uint256",
          "name": "tickets",
          "type": "uint256"
        }
      ],
      "name": "buyTicket",
      "outputs": [],
      "stateMutability": "payable",
      "type": "function"
    },
    {
      "inputs": [
        {
          "internalType": "uint256",
          "name": "movieId",
          "type": "uint256"
        }
      ],
      "name": "deleteMovie",
      "outputs": [],
      "stateMutability": "nonpayable",
      "type": "function"
    },
    {
      "inputs": [
        {
          "internalType": "uint256",
          "name": "movieId",
          "type": "uint256"
        },
        {
          "internalType": "uint256",
          "name": "slotId",
          "type": "uint256"
        }
      ],
      "name": "deleteTimeSlot",
      "outputs": [],
      "stateMutability": "nonpayable",
      "type": "function"
    },
    {
      "inputs": [
        {
          "internalType": "uint256",
          "name": "id",
          "type": "uint256"
        }
      ],
      "name": "getMovie",
      "outputs": [
        {
          "components": [
            {
              "internalType": "uint256",
              "name": "id",
              "type": "uint256"
            },
            {
              "internalType": "string",
              "name": "name",
              "type": "string"
            },
            {
              "internalType": "string",
              "name": "imageUrl",
              "type": "string"
            },
            {
              "internalType": "string",
              "name": "genre",
              "type": "string"
            },
            {
              "internalType": "string",
              "name": "description",
              "type": "string"
            },
            {
              "internalType": "uint256",
              "name": "timestamp",
              "type": "uint256"
            },
            {
              "internalType": "bool",
              "name": "deleted",
              "type": "bool"
            }
          ],
          "internalType": "struct DappCinemas.MovieStruct",
          "name": "",
          "type": "tuple"
        }
      ],
      "stateMutability": "view",
      "type": "function"
    },
    {
      "inputs": [
        {
          "internalType": "uint256",
          "name": "movieId",
          "type": "uint256"
        },
        {
          "internalType": "uint256",
          "name": "slotId",
          "type": "uint256"
        }
      ],
      "name": "getMovieTicketHolders",
      "outputs": [
        {
          "internalType": "address[]",
          "name": "",
          "type": "address[]"
        }
      ],
      "stateMutability": "view",
      "type": "function"
    },
    {
      "inputs": [
        {
          "internalType": "uint256",
          "name": "movieId",
          "type": "uint256"
        }
      ],
      "name": "getMovieTimeSlots",
      "outputs": [
        {
          "internalType": "uint256[]",
          "name": "MovieSlots",
          "type": "uint256[]"
        }
      ],
      "stateMutability": "view",
      "type": "function"
    },
    {
      "inputs": [],
      "name": "getMovies",
      "outputs": [
        {
          "components": [
            {
              "internalType": "uint256",
              "name": "id",
              "type": "uint256"
            },
            {
              "internalType": "string",
              "name": "name",
              "type": "string"
            },
            {
              "internalType": "string",
              "name": "imageUrl",
              "type": "string"
            },
            {
              "internalType": "string",
              "name": "genre",
              "type": "string"
            },
            {
              "internalType": "string",
              "name": "description",
              "type": "string"
            },
            {
              "internalType": "uint256",
              "name": "timestamp",
              "type": "uint256"
            },
            {
              "internalType": "bool",
              "name": "deleted",
              "type": "bool"
            }
          ],
          "internalType": "struct DappCinemas.MovieStruct[]",
          "name": "Movies",
          "type": "tuple[]"
        }
      ],
      "stateMutability": "view",
      "type": "function"
    },
    {
      "inputs": [
        {
          "internalType": "uint256",
          "name": "slotId",
          "type": "uint256"
        }
      ],
      "name": "getTimeSlot",
      "outputs": [
        {
          "components": [
            {
              "internalType": "uint256",
              "name": "id",
              "type": "uint256"
            },
            {
              "internalType": "uint256",
              "name": "movieId",
              "type": "uint256"
            },
            {
              "internalType": "uint256",
              "name": "ticketCost",
              "type": "uint256"
            },
            {
              "internalType": "uint256",
              "name": "startTime",
              "type": "uint256"
            },
            {
              "internalType": "uint256",
              "name": "endTime",
              "type": "uint256"
            },
            {
              "internalType": "uint256",
              "name": "capacity",
              "type": "uint256"
            },
            {
              "internalType": "uint256",
              "name": "seats",
              "type": "uint256"
            },
            {
              "internalType": "bool",
              "name": "deleted",
              "type": "bool"
            },
            {
              "internalType": "bool",
              "name": "completed",
              "type": "bool"
            },
            {
              "internalType": "uint256",
              "name": "day",
              "type": "uint256"
            },
            {
              "internalType": "uint256",
              "name": "balance",
              "type": "uint256"
            }
          ],
          "internalType": "struct DappCinemas.TimeSlotStruct",
          "name": "",
          "type": "tuple"
        }
      ],
      "stateMutability": "view",
      "type": "function"
    },
    {
      "inputs": [
        {
          "internalType": "uint256",
          "name": "movieId",
          "type": "uint256"
        }
      ],
      "name": "getTimeSlots",
      "outputs": [
        {
          "components": [
            {
              "internalType": "uint256",
              "name": "id",
              "type": "uint256"
            },
            {
              "internalType": "uint256",
              "name": "movieId",
              "type": "uint256"
            },
            {
              "internalType": "uint256",
              "name": "ticketCost",
              "type": "uint256"
            },
            {
              "internalType": "uint256",
              "name": "startTime",
              "type": "uint256"
            },
            {
              "internalType": "uint256",
              "name": "endTime",
              "type": "uint256"
            },
            {
              "internalType": "uint256",
              "name": "capacity",
              "type": "uint256"
            },
            {
              "internalType": "uint256",
              "name": "seats",
              "type": "uint256"
            },
            {
              "internalType": "bool",
              "name": "deleted",
              "type": "bool"
            },
            {
              "internalType": "bool",
              "name": "completed",
              "type": "bool"
            },
            {
              "internalType": "uint256",
              "name": "day",
              "type": "uint256"
            },
            {
              "internalType": "uint256",
              "name": "balance",
              "type": "uint256"
            }
          ],
          "internalType": "struct DappCinemas.TimeSlotStruct[]",
          "name": "MovieSlots",
          "type": "tuple[]"
        }
      ],
      "stateMutability": "view",
      "type": "function"
    },
    {
      "inputs": [
        {
          "internalType": "uint256",
          "name": "movieId",
          "type": "uint256"
        },
        {
          "internalType": "uint256",
          "name": "slotId",
          "type": "uint256"
        }
      ],
      "name": "markTimeSlot",
      "outputs": [],
      "stateMutability": "nonpayable",
      "type": "function"
    },
    {
      "inputs": [],
      "name": "owner",
      "outputs": [
        {
          "internalType": "address",
          "name": "",
          "type": "address"
        }
      ],
      "stateMutability": "view",
      "type": "function"
    },
    {
      "inputs": [],
      "name": "renounceOwnership",
      "outputs": [],
      "stateMutability": "nonpayable",
      "type": "function"
    },
    {
      "inputs": [
        {
          "internalType": "address",
          "name": "newOwner",
          "type": "address"
        }
      ],
      "name": "transferOwnership",
      "outputs": [],
      "stateMutability": "nonpayable",
      "type": "function"
    },
    {
      "inputs": [
        {
          "internalType": "uint256",
          "name": "movieId",
          "type": "uint256"
        },
        {
          "internalType": "string",
          "name": "name",
          "type": "string"
        },
        {
          "internalType": "string",
          "name": "imageUrl",
          "type": "string"
        },
        {
          "internalType": "string",
          "name": "genre",
          "type": "string"
        },
        {
          "internalType": "string",
          "name": "description",
          "type": "string"
        }
      ],
      "name": "updateMovie",
      "outputs": [],
      "stateMutability": "nonpayable",
      "type": "function"
    },
    {
      "inputs": [
        {
          "internalType": "address",
          "name": "to",
          "type": "address"
        },
        {
          "internalType": "uint256",
          "name": "amount",
          "type": "uint256"
        }
      ],
      "name": "withdrawTo",
      "outputs": [],
      "stateMutability": "nonpayable",
      "type": "function"
    }
  ],
  "bytecode": "0x608060405234801561001057600080fd5b5061001a3361001f565b61006f565b600080546001600160a01b038381166001600160a01b0319831681178455604051919092169283917f8be0079c531659141344cd1fd0a4f28419497f9722a3daafe3b4186f6b6457e09190a35050565b612bce806200007f6000396000f3fe6080604052600436106101095760003560e01c806377340bba11610095578063af875f3511610064578063af875f35146102ec578063b69ef8a814610319578063bd4c5d241461033d578063c4c6710d1461035d578063f2fde38b1461037057600080fd5b806377340bba146102575780637cd35a0a146102775780638da5cb5b146102a45780638f70d440146102cc57600080fd5b80632e130aca116100dc5780632e130aca146101b557806345e9a8fc146101e257806358a9525b146102025780636b4f6cb714610222578063715018a61461024257600080fd5b8063179ffe761461010e578063205c2878146101445780632b85dcc9146101665780632c53b40614610193575b600080fd5b34801561011a57600080fd5b5061012e6101293660046123bb565b610390565b60405161013b91906124b0565b60405180910390f35b34801561015057600080fd5b5061016461015f3660046124e6565b610628565b005b34801561017257600080fd5b506101866101813660046123bb565b6106a1565b60405161013b9190612588565b34801561019f57600080fd5b506101a8610741565b60405161013b9190612597565b3480156101c157600080fd5b506101d56101d03660046123bb565b610ad9565b60405161013b91906125f9565b3480156101ee57600080fd5b506101646101fd36600461263d565b610d29565b34801561020e57600080fd5b5061016461021d36600461263d565b610e2a565b34801561022e57600080fd5b5061016461023d3660046123bb565b610ffd565b34801561024e57600080fd5b5061016461117f565b34801561026357600080fd5b50610164610272366004612726565b611193565b34801561028357600080fd5b506102976102923660046123bb565b611591565b60405161013b9190612800565b3480156102b057600080fd5b506000546040516001600160a01b03909116815260200161013b565b3480156102d857600080fd5b506101646102e73660046128b3565b611815565b3480156102f857600080fd5b5061030c61030736600461263d565b611ac8565b60405161013b9190612960565b34801561032557600080fd5b5061032f60045481565b60405190815260200161013b565b34801561034957600080fd5b506101646103583660046129a1565b611b3e565b61016461036b366004612a58565b611e5e565b34801561037c57600080fd5b5061016461038b366004612a84565b6120c4565b610398612267565b600660008381526020019081526020016000206040518060e0016040529081600082015481526020016001820180546103d090612a9f565b80601f01602080910402602001604051908101604052809291908181526020018280546103fc90612a9f565b80156104495780601f1061041e57610100808354040283529160200191610449565b820191906000526020600020905b81548152906001019060200180831161042c57829003601f168201915b5050505050815260200160028201805461046290612a9f565b80601f016020809104026020016040519081016040528092919081815260200182805461048e90612a9f565b80156104db5780601f106104b0576101008083540402835291602001916104db565b820191906000526020600020905b8154815290600101906020018083116104be57829003601f168201915b505050505081526020016003820180546104f490612a9f565b80601f016020809104026020016040519081016040528092919081815260200182805461052090612a9f565b801561056d5780601f106105425761010080835404028352916020019161056d565b820191906000526020600020905b81548152906001019060200180831161055057829003601f168201915b5050505050815260200160048201805461058690612a9f565b80601f01602080910402602001604051908101604052809291908181526020018280546105b290612a9f565b80156105ff5780601f106105d4576101008083540402835291602001916105ff565b820191906000526020600020905b8154815290600101906020018083116105e257829003601f168201915b50505091835250506005820154602082015260069091015460ff16151560409091015292915050565b61063061213d565b80600454101561067b5760405162461bcd60e51b8152602060048201526011602482015270125b9cdd59999a58da595b9d08199d5b99607a1b60448201526064015b60405180910390fd5b806004600082825461068d9190612af0565b9091555061069d90508282612197565b5050565b6106a96122a6565b50600090815260076020818152604092839020835161016081018552815481526001820154928101929092526002810154938201939093526003830154606082015260048301546080820152600583015460a0820152600683015460c08201529082015460ff808216151560e08401526101009182900416151590820152600882015461012082015260099091015461014082015290565b6060600060015b600154811161078b576000818152600660208190526040909120015460ff16610779578161077581612b07565b9250505b8061078381612b07565b915050610748565b508067ffffffffffffffff8111156107a5576107a561265f565b6040519080825280602002602001820160405280156107de57816020015b6107cb612267565b8152602001906001900390816107c35790505b509150600060015b6001548111610ad3576000818152600660208190526040909120015460ff16610ac157600660008281526020019081526020016000206040518060e00160405290816000820154815260200160018201805461084190612a9f565b80601f016020809104026020016040519081016040528092919081815260200182805461086d90612a9f565b80156108ba5780601f1061088f576101008083540402835291602001916108ba565b820191906000526020600020905b81548152906001019060200180831161089d57829003601f168201915b505050505081526020016002820180546108d390612a9f565b80601f01602080910402602001604051908101604052809291908181526020018280546108ff90612a9f565b801561094c5780601f106109215761010080835404028352916020019161094c565b820191906000526020600020905b81548152906001019060200180831161092f57829003601f168201915b5050505050815260200160038201805461096590612a9f565b80601f016020809104026020016040519081016040528092919081815260200182805461099190612a9f565b80156109de5780601f106109b3576101008083540402835291602001916109de565b820191906000526020600020905b8154815290600101906020018083116109c157829003601f168201915b505050505081526020016004820180546109f790612a9f565b80601f0160208091040260200160405190810160405280929190818152602001828054610a2390612a9f565b8015610a705780601f10610a4557610100808354040283529160200191610a70565b820191906000526020600020905b815481529060010190602001808311610a5357829003601f168201915b50505091835250506005820154602082015260069091015460ff1615156040909101528451859084908110610aa757610aa7612b22565b60200260200101819052508180610abd90612b07565b9250505b80610acb81612b07565b9150506107e6565b50505090565b60606000805b600354811015610b92578360076000610af9846001612b38565b815260200190815260200160002060010154148015610b3b575060076000610b22836001612b38565b815260208101919091526040016000206007015460ff16155b8015610b6d5750610b4a6121fc565b60076000610b59846001612b38565b815260200190815260200160002060030154115b15610b805781610b7c81612b07565b9250505b80610b8a81612b07565b915050610adf565b50610b9e816002612b50565b67ffffffffffffffff811115610bb657610bb661265f565b604051908082528060200260200182016040528015610bdf578160200160208202803683370190505b5091506000805b600354811015610d21578460076000610c00846001612b38565b815260200190815260200160002060010154148015610c42575060076000610c29836001612b38565b815260208101919091526040016000206007015460ff16155b8015610c745750610c516121fc565b60076000610c60846001612b38565b815260200190815260200160002060030154115b15610d0f5760076000610c88836001612b38565b815260200190815260200160002060030154848380610ca690612b07565b945081518110610cb857610cb8612b22565b602090810291909101015260076000610cd2836001612b38565b815260200190815260200160002060040154848380610cf090612b07565b945081518110610d0257610d02612b22565b6020026020010181815250505b80610d1981612b07565b915050610be6565b505050919050565b610d3161213d565b60008281526005602052604090205460ff168015610d5f575060008181526007602052604090206001015482145b610d7b5760405162461bcd60e51b815260040161067290612b6f565b6000818152600760208190526040909120015460ff1615610dd95760405162461bcd60e51b8152602060048201526018602482015277151a5b595cdb1bdd08185b1c9958591e4819195b195d195960421b6044820152606401610672565b60008181526007602081905260408220908101805461ff001916610100179055600901546004805491929091610e10908490612b38565b909155505060009081526007602052604081206009015550565b610e3261213d565b60008281526005602052604090205460ff168015610e60575060008181526007602052604090206001015482145b610e7c5760405162461bcd60e51b815260040161067290612b6f565b6000818152600760208190526040909120015460ff1615610eda5760405162461bcd60e51b8152602060048201526018602482015277151a5b595cdb1bdd08185b1c9958591e4819195b195d195960421b6044820152606401610672565b60005b6000838152600860209081526040808320858452909152902054811015610f7057600083815260086020908152604080832085845290915290208054610f5e919083908110610f2e57610f2e612b22565b600091825260208083209091015485835260079091526040909120600201546001600160a01b0390911690612197565b80610f6881612b07565b915050610edd565b506000818152600760208181526040808420808401805460ff19166001179055868552600883528185208686528352932054919052600290910154610fb59190612b50565b60008281526007602052604081206009018054909190610fd6908490612af0565b90915550506000828152600860209081526040808320848452909152812061069d91612304565b61100561213d565b60008181526005602052604090205460ff1661105a5760405162461bcd60e51b81526020600482015260146024820152734d6f76696520646f65736e27742065786973742160601b6044820152606401610672565b60015b600354811161114c5760008281526008602090815260408083208484528252808320805482518185028101850190935280835291929091908301828280156110ce57602002820191906000526020600020905b81546001600160a01b031681526001909101906020018083116110b0575b5050505050905080516000146111395760405162461bcd60e51b815260206004820152602a60248201527f43616e6e6f742064656c657465206d6f766965207769746820707572636861736044820152696564207469636b65747360b01b6064820152608401610672565b508061114481612b07565b91505061105d565b506000908152600660208181526040808420909201805460ff199081166001179091556005909152912080549091169055565b61118761213d565b6111916000612217565b565b61119b61213d565b60008681526005602052604090205460ff166111c95760405162461bcd60e51b815260040161067290612b6f565b600085511161121a5760405162461bcd60e51b815260206004820152601e60248201527f5469636b65747320636f7374206d757374206e6f7420626520656d70747900006044820152606401610672565b600082511161126b5760405162461bcd60e51b815260206004820152601c60248201527f43617061636974696573206d757374206e6f7420626520656d707479000000006044820152606401610672565b60008451116112c75760405162461bcd60e51b815260206004820152602260248201527f53746172742074696d657320636f7374206d757374206e6f7420626520656d70604482015261747960f01b6064820152608401610672565b60008351116113185760405162461bcd60e51b815260206004820181905260248201527f456e642074696d657320636f7374206d757374206e6f7420626520656d7074796044820152606401610672565b60008151116113695760405162461bcd60e51b815260206004820152601e60248201527f56696577696e672064617973206d757374206e6f7420626520656d70747900006044820152606401610672565b8051855114801561137b575081518151145b8015611388575083518251145b8015611395575082518451145b80156113a2575080518351145b6114025760405162461bcd60e51b815260206004820152602b60248201527f416c6c20706172616d6574657273206d757374206861766520657175616c206160448201526a0e4e4c2f240d8cadccee8d60ab1b6064820152608401610672565b60005b81518110156115885761141c600380546001019055565b6114246122a6565b600354815260208101889052865187908390811061144457611444612b22565b602002602001015181604001818152505085828151811061146757611467612b22565b602002602001015181606001818152505084828151811061148a5761148a612b22565b60200260200101518160800181815250508282815181106114ad576114ad612b22565b6020026020010151816101200181815250508382815181106114d1576114d1612b22565b60209081029190910181015160a083019081528251600090815260078084526040918290208551815593850151600185015590840151600284015560608401516003840155608084015160048401559051600583015560c0830151600683015560e083015190820180546101008086015115150261ff00199315159390931661ffff19909116179190911790556101208201516008820155610140909101516009909101558061158081612b07565b915050611405565b50505050505050565b60606000805b60035481101561164a5783600760006115b1846001612b38565b8152602001908152602001600020600101541480156115f35750600760006115da836001612b38565b815260208101919091526040016000206007015460ff16155b801561162557506116026121fc565b60076000611611846001612b38565b815260200190815260200160002060030154115b15611638578161163481612b07565b9250505b8061164281612b07565b915050611597565b508067ffffffffffffffff8111156116645761166461265f565b60405190808252806020026020018201604052801561169d57816020015b61168a6122a6565b8152602001906001900390816116825790505b5091506000805b600354811015610d215784600760006116be846001612b38565b8152602001908152602001600020600101541480156117005750600760006116e7836001612b38565b815260208101919091526040016000206007015460ff16155b8015611732575061170f6121fc565b6007600061171e846001612b38565b815260200190815260200160002060030154115b156118035760076000611746836001612b38565b81526020808201929092526040908101600020815161016081018352815481526001820154938101939093526002810154918301919091526003810154606083015260048101546080830152600581015460a0830152600681015460c0830152600781015460ff808216151560e0850152610100918290041615159083015260088101546101208301526009015461014082015284836117e581612b07565b9450815181106117f7576117f7612b22565b60200260200101819052505b8061180d81612b07565b9150506116a4565b61181d61213d565b60008451116118645760405162461bcd60e51b8152602060048201526013602482015272135bdd9a59481b985b59481c995c5d5a5c9959606a1b6044820152606401610672565b60008351116118b55760405162461bcd60e51b815260206004820152601860248201527f4d6f76696520696d6167652075726c20726571756972656400000000000000006044820152606401610672565b60008251116118fd5760405162461bcd60e51b8152602060048201526014602482015273135bdd9a594819d95b9c99481c995c5d5a5c995960621b6044820152606401610672565b600081511161194e5760405162461bcd60e51b815260206004820152601a60248201527f4d6f766965206465736372697074696f6e2072657175697265640000000000006044820152606401610672565b61195c600180546001019055565b611964612267565b60015481526020810185905260408101849052606081018390526080810182905261198d6121fc565b60a0820152805160009081526006602090815260409091208251815581830151805184936119c2926001850192910190612322565b50604082015180516119de916002840191602090910190612322565b50606082015180516119fa916003840191602090910190612322565b5060808201518051611a16916004840191602090910190612322565b5060a082015160058083019190915560c0909201516006909101805491151560ff199283161790558251600090815260209290925260409182902080549091166001179055517f8b2c14fe955d044ef95ba32b88d2ceb87c6f73fcefdcebe906063a6d75690f2790611ab99060208082526018908201527f4d6f766965206164646564207375636365737366756c6c790000000000000000604082015260600190565b60405180910390a15050505050565b6000828152600860209081526040808320848452825291829020805483518184028101840190945280845260609392830182828015611b3057602002820191906000526020600020905b81546001600160a01b03168152600190910190602001808311611b12575b505050505090505b92915050565b611b4661213d565b60008581526005602052604090205460ff16611b9b5760405162461bcd60e51b81526020600482015260146024820152734d6f76696520646f65736e27742065786973742160601b6044820152606401610672565b6000845111611be25760405162461bcd60e51b8152602060048201526013602482015272135bdd9a59481b985b59481c995c5d5a5c9959606a1b6044820152606401610672565b6000835111611c335760405162461bcd60e51b815260206004820152601860248201527f4d6f76696520696d6167652055524c20726571756972656400000000000000006044820152606401610672565b6000825111611c7b5760405162461bcd60e51b8152602060048201526014602482015273135bdd9a594819d95b9c99481c995c5d5a5c995960621b6044820152606401610672565b6000815111611ccc5760405162461bcd60e51b815260206004820152601a60248201527f4d6f766965206465736372697074696f6e2072657175697265640000000000006044820152606401610672565b60015b6003548111611d665760008681526008602090815260408083208484529091529020805415611d535760405162461bcd60e51b815260206004820152602a60248201527f43616e6e6f7420757064617465206d6f766965207769746820707572636861736044820152696564207469636b65747360b01b6064820152608401610672565b5080611d5e81612b07565b915050611ccf565b5060008581526006602090815260409091208551611d8c92600190920191870190612322565b5060008581526006602090815260409091208451611db292600290920191860190612322565b5060008581526006602090815260409091208351611dd892600390920191850190612322565b5060008581526006602090815260409091208251611dfe92600490920191840190612322565b507f8b2c14fe955d044ef95ba32b88d2ceb87c6f73fcefdcebe906063a6d75690f27604051611ab9906020808252601a908201527f4d6f7669652075706461746564207375636365737366756c6c79000000000000604082015260600190565b60008381526005602052604090205460ff168015611e8c575060008281526007602052604090206001015483145b611ea85760405162461bcd60e51b815260040161067290612b6f565b600082815260076020526040902060020154611ec5908290612b50565b341015611f0a5760405162461bcd60e51b8152602060048201526013602482015272125b9cdd59999a58da595b9d08185b5bdd5b9d606a1b6044820152606401610672565b6000828152600760205260409020600681015460059091015411611f625760405162461bcd60e51b815260206004820152600f60248201526e4f7574206f6620636170616369747960881b6044820152606401610672565b60005b8181101561205557611f7b600280546001019055565b611fc46040518060e0016040528060008152602001600081526020016000815260200160006001600160a01b031681526020016000815260200160008152602001600081525090565b6002805482526000858152600760208181526040808420948501546080870152928890525260089091015460c083015281018490523360608201526120076121fc565b60a090910152600084815260086020908152604080832086845282528220805460018101825590835291200180546001600160a01b031916331790558061204d81612b07565b915050611f65565b5060008281526007602052604081206006018054839290612077908490612b38565b9091555050600082815260076020526040902060020154612099908290612b50565b600083815260076020526040812060090180549091906120ba908490612b38565b9091555050505050565b6120cc61213d565b6001600160a01b0381166121315760405162461bcd60e51b815260206004820152602660248201527f4f776e61626c653a206e6577206f776e657220697320746865207a65726f206160448201526564647265737360d01b6064820152608401610672565b61213a81612217565b50565b6000546001600160a01b031633146111915760405162461bcd60e51b815260206004820181905260248201527f4f776e61626c653a2063616c6c6572206973206e6f7420746865206f776e65726044820152606401610672565b6000826001600160a01b03168260405160006040518083038185875af1925050503d80600081146121e4576040519150601f19603f3d011682016040523d82523d6000602084013e6121e9565b606091505b50509050806121f757600080fd5b505050565b60008061220b426103e8612b50565b611b38906103e8612b38565b600080546001600160a01b038381166001600160a01b0319831681178455604051919092169283917f8be0079c531659141344cd1fd0a4f28419497f9722a3daafe3b4186f6b6457e09190a35050565b6040518060e001604052806000815260200160608152602001606081526020016060815260200160608152602001600081526020016000151581525090565b6040518061016001604052806000815260200160008152602001600081526020016000815260200160008152602001600081526020016000815260200160001515815260200160001515815260200160008152602001600081525090565b508054600082559060005260206000209081019061213a91906123a6565b82805461232e90612a9f565b90600052602060002090601f0160209004810192826123505760008555612396565b82601f1061236957805160ff1916838001178555612396565b82800160010185558215612396579182015b8281111561239657825182559160200191906001019061237b565b506123a29291506123a6565b5090565b5b808211156123a257600081556001016123a7565b6000602082840312156123cd57600080fd5b5035919050565b6000815180845260005b818110156123fa576020818501810151868301820152016123de565b8181111561240c576000602083870101525b50601f01601f19169290920160200192915050565b805182526000602082015160e0602085015261244060e08501826123d4565b90506040830151848203604086015261245982826123d4565b9150506060830151848203606086015261247382826123d4565b9150506080830151848203608086015261248d82826123d4565b91505060a083015160a085015260c0830151151560c08501528091505092915050565b6020815260006124c36020830184612421565b9392505050565b80356001600160a01b03811681146124e157600080fd5b919050565b600080604083850312156124f957600080fd5b612502836124ca565b946020939093013593505050565b805182526020810151602083015260408101516040830152606081015160608301526080810151608083015260a081015160a083015260c081015160c083015260e081015161256360e084018215159052565b5061010081810151151590830152610120808201519083015261014090810151910152565b6101608101611b388284612510565b6000602080830181845280855180835260408601915060408160051b870101925083870160005b828110156125ec57603f198886030184526125da858351612421565b945092850192908501906001016125be565b5092979650505050505050565b6020808252825182820181905260009190848201906040850190845b8181101561263157835183529284019291840191600101612615565b50909695505050505050565b6000806040838503121561265057600080fd5b50508035926020909101359150565b634e487b7160e01b600052604160045260246000fd5b604051601f8201601f1916810167ffffffffffffffff8111828210171561269e5761269e61265f565b604052919050565b600082601f8301126126b757600080fd5b8135602067ffffffffffffffff8211156126d3576126d361265f565b8160051b6126e2828201612675565b92835284810182019282810190878511156126fc57600080fd5b83870192505b8483101561271b57823582529183019190830190612702565b979650505050505050565b60008060008060008060c0878903121561273f57600080fd5b86359550602087013567ffffffffffffffff8082111561275e57600080fd5b61276a8a838b016126a6565b9650604089013591508082111561278057600080fd5b61278c8a838b016126a6565b955060608901359150808211156127a257600080fd5b6127ae8a838b016126a6565b945060808901359150808211156127c457600080fd5b6127d08a838b016126a6565b935060a08901359150808211156127e657600080fd5b506127f389828a016126a6565b9150509295509295509295565b6020808252825182820181905260009190848201906040850190845b818110156126315761282f838551612510565b92840192610160929092019160010161281c565b600082601f83011261285457600080fd5b813567ffffffffffffffff81111561286e5761286e61265f565b612881601f8201601f1916602001612675565b81815284602083860101111561289657600080fd5b816020850160208301376000918101602001919091529392505050565b600080600080608085870312156128c957600080fd5b843567ffffffffffffffff808211156128e157600080fd5b6128ed88838901612843565b9550602087013591508082111561290357600080fd5b61290f88838901612843565b9450604087013591508082111561292557600080fd5b61293188838901612843565b9350606087013591508082111561294757600080fd5b5061295487828801612843565b91505092959194509250565b6020808252825182820181905260009190848201906040850190845b818110156126315783516001600160a01b03168352928401929184019160010161297c565b600080600080600060a086880312156129b957600080fd5b85359450602086013567ffffffffffffffff808211156129d857600080fd5b6129e489838a01612843565b955060408801359150808211156129fa57600080fd5b612a0689838a01612843565b94506060880135915080821115612a1c57600080fd5b612a2889838a01612843565b93506080880135915080821115612a3e57600080fd5b50612a4b88828901612843565b9150509295509295909350565b600080600060608486031215612a6d57600080fd5b505081359360208301359350604090920135919050565b600060208284031215612a9657600080fd5b6124c3826124ca565b600181811c90821680612ab357607f821691505b60208210811415612ad457634e487b7160e01b600052602260045260246000fd5b50919050565b634e487b7160e01b600052601160045260246000fd5b600082821015612b0257612b02612ada565b500390565b6000600019821415612b1b57612b1b612ada565b5060010190565b634e487b7160e01b600052603260045260246000fd5b60008219821115612b4b57612b4b612ada565b500190565b6000816000190483118215151615612b6a57612b6a612ada565b500290565b6020808252600f908201526e135bdd9a59481b9bdd08199bdd5b99608a1b60408201526060019056fea2646970667358221220988bedd3d32411786ed70543cd765dbcad00b5a1799e09776e489ba651389f6b64736f6c634300080b0033",
  "linkReferences": {},
  "deployedLinkReferences": {}
}