{
  "_format": "hh-sol-artifact-1",
  "contractName": "DappCinemas",
  "sourceName": "src/contracts/DappCinemas.sol",
  "abi": [
    {
      "anonymous": false,
      "inputs": [
        {
          "indexed": false,
          "internalType": "string",
          "name": "actionType",
          "type": "string"
        }
      ],
      "name": "Action",
      "type": "event"
    },
    {
      "anonymous": false,
      "inputs": [
        {
          "indexed": true,
          "internalType": "address",
          "name": "previousOwner",
          "type": "address"
        },
        {
          "indexed": true,
          "internalType": "address",
          "name": "newOwner",
          "type": "address"
        }
      ],
      "name": "OwnershipTransferred",
      "type": "event"
    },
    {
      "inputs": [
        {
          "internalType": "string",
          "name": "name",
          "type": "string"
        },
        {
          "internalType": "string",
          "name": "imageUrl",
          "type": "string"
        },
        {
          "internalType": "string",
          "name": "genre",
          "type": "string"
        },
        {
          "internalType": "string",
          "name": "description",
          "type": "string"
        }
      ],
      "name": "addMovie",
      "outputs": [],
      "stateMutability": "nonpayable",
      "type": "function"
    },
    {
      "inputs": [
        {
          "internalType": "uint256",
          "name": "movieId",
          "type": "uint256"
        },
        {
          "internalType": "uint256[]",
          "name": "ticketCosts",
          "type": "uint256[]"
        },
        {
          "internalType": "uint256[]",
          "name": "startTimes",
          "type": "uint256[]"
        },
        {
          "internalType": "uint256[]",
          "name": "endTimes",
          "type": "uint256[]"
        },
        {
          "internalType": "uint256[]",
          "name": "capacities",
          "type": "uint256[]"
        },
        {
          "internalType": "uint256[]",
          "name": "viewingDays",
          "type": "uint256[]"
        }
      ],
      "name": "addTimeslot",
      "outputs": [],
      "stateMutability": "nonpayable",
      "type": "function"
    },
    {
      "inputs": [],
      "name": "balance",
      "outputs": [
        {
          "internalType": "uint256",
          "name": "",
          "type": "uint256"
        }
      ],
      "stateMutability": "view",
      "type": "function"
    },
    {
      "inputs": [
        {
          "internalType": "uint256",
          "name": "movieId",
          "type": "uint256"
        },
        {
          "internalType": "uint256",
          "name": "slotId",
          "type": "uint256"
        },
        {
          "internalType": "uint256",
          "name": "tickets",
          "type": "uint256"
        }
      ],
      "name": "buyTicket",
      "outputs": [],
      "stateMutability": "payable",
      "type": "function"
    },
    {
      "inputs": [
        {
          "internalType": "uint256",
          "name": "movieId",
          "type": "uint256"
        }
      ],
      "name": "deleteMovie",
      "outputs": [],
      "stateMutability": "nonpayable",
      "type": "function"
    },
    {
      "inputs": [
        {
          "internalType": "uint256",
          "name": "movieId",
          "type": "uint256"
        },
        {
          "internalType": "uint256",
          "name": "slotId",
          "type": "uint256"
        }
      ],
      "name": "deleteTimeSlot",
      "outputs": [],
      "stateMutability": "nonpayable",
      "type": "function"
    },
    {
      "inputs": [
        {
          "internalType": "uint256",
          "name": "id",
          "type": "uint256"
        }
      ],
      "name": "getMovie",
      "outputs": [
        {
          "components": [
            {
              "internalType": "uint256",
              "name": "id",
              "type": "uint256"
            },
            {
              "internalType": "string",
              "name": "name",
              "type": "string"
            },
            {
              "internalType": "string",
              "name": "imageUrl",
              "type": "string"
            },
            {
              "internalType": "string",
              "name": "genre",
              "type": "string"
            },
            {
              "internalType": "string",
              "name": "description",
              "type": "string"
            },
            {
              "internalType": "uint256",
              "name": "timestamp",
              "type": "uint256"
            },
            {
              "internalType": "bool",
              "name": "deleted",
              "type": "bool"
            }
          ],
          "internalType": "struct DappCinemas.MovieStruct",
          "name": "",
          "type": "tuple"
        }
      ],
      "stateMutability": "view",
      "type": "function"
    },
    {
      "inputs": [
        {
          "internalType": "uint256",
          "name": "movieId",
          "type": "uint256"
        },
        {
          "internalType": "uint256",
          "name": "slotId",
          "type": "uint256"
        }
      ],
      "name": "getMovieTicketHolders",
      "outputs": [
        {
          "internalType": "address[]",
          "name": "",
          "type": "address[]"
        }
      ],
      "stateMutability": "view",
      "type": "function"
    },
    {
      "inputs": [],
      "name": "getMovies",
      "outputs": [
        {
          "components": [
            {
              "internalType": "uint256",
              "name": "id",
              "type": "uint256"
            },
            {
              "internalType": "string",
              "name": "name",
              "type": "string"
            },
            {
              "internalType": "string",
              "name": "imageUrl",
              "type": "string"
            },
            {
              "internalType": "string",
              "name": "genre",
              "type": "string"
            },
            {
              "internalType": "string",
              "name": "description",
              "type": "string"
            },
            {
              "internalType": "uint256",
              "name": "timestamp",
              "type": "uint256"
            },
            {
              "internalType": "bool",
              "name": "deleted",
              "type": "bool"
            }
          ],
          "internalType": "struct DappCinemas.MovieStruct[]",
          "name": "Movies",
          "type": "tuple[]"
        }
      ],
      "stateMutability": "view",
      "type": "function"
    },
    {
      "inputs": [
        {
          "internalType": "uint256",
          "name": "slotId",
          "type": "uint256"
        }
      ],
      "name": "getTimeSlot",
      "outputs": [
        {
          "components": [
            {
              "internalType": "uint256",
              "name": "id",
              "type": "uint256"
            },
            {
              "internalType": "uint256",
              "name": "movieId",
              "type": "uint256"
            },
            {
              "internalType": "uint256",
              "name": "ticketCost",
              "type": "uint256"
            },
            {
              "internalType": "uint256",
              "name": "startTime",
              "type": "uint256"
            },
            {
              "internalType": "uint256",
              "name": "endTime",
              "type": "uint256"
            },
            {
              "internalType": "uint256",
              "name": "capacity",
              "type": "uint256"
            },
            {
              "internalType": "uint256",
              "name": "seats",
              "type": "uint256"
            },
            {
              "internalType": "bool",
              "name": "deleted",
              "type": "bool"
            },
            {
              "internalType": "bool",
              "name": "completed",
              "type": "bool"
            },
            {
              "internalType": "uint256",
              "name": "day",
              "type": "uint256"
            },
            {
              "internalType": "uint256",
              "name": "balance",
              "type": "uint256"
            }
          ],
          "internalType": "struct DappCinemas.TimeSlotStruct",
          "name": "",
          "type": "tuple"
        }
      ],
      "stateMutability": "view",
      "type": "function"
    },
    {
      "inputs": [
        {
          "internalType": "uint256",
          "name": "movieId",
          "type": "uint256"
        }
      ],
      "name": "getTimeSlots",
      "outputs": [
        {
          "components": [
            {
              "internalType": "uint256",
              "name": "id",
              "type": "uint256"
            },
            {
              "internalType": "uint256",
              "name": "movieId",
              "type": "uint256"
            },
            {
              "internalType": "uint256",
              "name": "ticketCost",
              "type": "uint256"
            },
            {
              "internalType": "uint256",
              "name": "startTime",
              "type": "uint256"
            },
            {
              "internalType": "uint256",
              "name": "endTime",
              "type": "uint256"
            },
            {
              "internalType": "uint256",
              "name": "capacity",
              "type": "uint256"
            },
            {
              "internalType": "uint256",
              "name": "seats",
              "type": "uint256"
            },
            {
              "internalType": "bool",
              "name": "deleted",
              "type": "bool"
            },
            {
              "internalType": "bool",
              "name": "completed",
              "type": "bool"
            },
            {
              "internalType": "uint256",
              "name": "day",
              "type": "uint256"
            },
            {
              "internalType": "uint256",
              "name": "balance",
              "type": "uint256"
            }
          ],
          "internalType": "struct DappCinemas.TimeSlotStruct[]",
          "name": "MovieSlots",
          "type": "tuple[]"
        }
      ],
      "stateMutability": "view",
      "type": "function"
    },
    {
      "inputs": [
        {
          "internalType": "uint256",
          "name": "day",
          "type": "uint256"
        }
      ],
      "name": "getTimeSlotsByDay",
      "outputs": [
        {
          "components": [
            {
              "internalType": "uint256",
              "name": "id",
              "type": "uint256"
            },
            {
              "internalType": "uint256",
              "name": "movieId",
              "type": "uint256"
            },
            {
              "internalType": "uint256",
              "name": "ticketCost",
              "type": "uint256"
            },
            {
              "internalType": "uint256",
              "name": "startTime",
              "type": "uint256"
            },
            {
              "internalType": "uint256",
              "name": "endTime",
              "type": "uint256"
            },
            {
              "internalType": "uint256",
              "name": "capacity",
              "type": "uint256"
            },
            {
              "internalType": "uint256",
              "name": "seats",
              "type": "uint256"
            },
            {
              "internalType": "bool",
              "name": "deleted",
              "type": "bool"
            },
            {
              "internalType": "bool",
              "name": "completed",
              "type": "bool"
            },
            {
              "internalType": "uint256",
              "name": "day",
              "type": "uint256"
            },
            {
              "internalType": "uint256",
              "name": "balance",
              "type": "uint256"
            }
          ],
          "internalType": "struct DappCinemas.TimeSlotStruct[]",
          "name": "MovieSlots",
          "type": "tuple[]"
        }
      ],
      "stateMutability": "view",
      "type": "function"
    },
    {
      "inputs": [
        {
          "internalType": "uint256",
          "name": "movieId",
          "type": "uint256"
        },
        {
          "internalType": "uint256",
          "name": "slotId",
          "type": "uint256"
        }
      ],
      "name": "markTimeSlot",
      "outputs": [],
      "stateMutability": "nonpayable",
      "type": "function"
    },
    {
      "inputs": [],
      "name": "owner",
      "outputs": [
        {
          "internalType": "address",
          "name": "",
          "type": "address"
        }
      ],
      "stateMutability": "view",
      "type": "function"
    },
    {
      "inputs": [],
      "name": "renounceOwnership",
      "outputs": [],
      "stateMutability": "nonpayable",
      "type": "function"
    },
    {
      "inputs": [
        {
          "internalType": "address",
          "name": "newOwner",
          "type": "address"
        }
      ],
      "name": "transferOwnership",
      "outputs": [],
      "stateMutability": "nonpayable",
      "type": "function"
    },
    {
      "inputs": [
        {
          "internalType": "uint256",
          "name": "movieId",
          "type": "uint256"
        },
        {
          "internalType": "string",
          "name": "name",
          "type": "string"
        },
        {
          "internalType": "string",
          "name": "imageUrl",
          "type": "string"
        },
        {
          "internalType": "string",
          "name": "genre",
          "type": "string"
        },
        {
          "internalType": "string",
          "name": "description",
          "type": "string"
        }
      ],
      "name": "updateMovie",
      "outputs": [],
      "stateMutability": "nonpayable",
      "type": "function"
    },
    {
      "inputs": [
        {
          "internalType": "address",
          "name": "to",
          "type": "address"
        },
        {
          "internalType": "uint256",
          "name": "amount",
          "type": "uint256"
        }
      ],
      "name": "withdrawTo",
      "outputs": [],
      "stateMutability": "nonpayable",
      "type": "function"
    }
  ],
  "bytecode": "0x608060405234801561001057600080fd5b5061001a3361001f565b61006f565b600080546001600160a01b038381166001600160a01b0319831681178455604051919092169283917f8be0079c531659141344cd1fd0a4f28419497f9722a3daafe3b4186f6b6457e09190a35050565b612acd806200007f6000396000f3fe6080604052600436106101095760003560e01c80637cd35a0a11610095578063b69ef8a811610064578063b69ef8a8146102ec578063bd4c5d2414610310578063c4c6710d14610330578063d6cbac9014610343578063f2fde38b1461036357600080fd5b80637cd35a0a1461024a5780638da5cb5b146102775780638f70d4401461029f578063af875f35146102bf57600080fd5b806345e9a8fc116100dc57806345e9a8fc146101b557806358a9525b146101d55780636b4f6cb7146101f5578063715018a61461021557806377340bba1461022a57600080fd5b8063179ffe761461010e578063205c2878146101445780632b85dcc9146101665780632c53b40614610193575b600080fd5b34801561011a57600080fd5b5061012e6101293660046122f2565b610383565b60405161013b91906123e7565b60405180910390f35b34801561015057600080fd5b5061016461015f36600461241d565b61061b565b005b34801561017257600080fd5b506101866101813660046122f2565b610694565b60405161013b91906124bf565b34801561019f57600080fd5b506101a8610734565b60405161013b91906124ce565b3480156101c157600080fd5b506101646101d0366004612530565b610acc565b3480156101e157600080fd5b506101646101f0366004612530565b610bcd565b34801561020157600080fd5b506101646102103660046122f2565b610da0565b34801561022157600080fd5b50610164610f22565b34801561023657600080fd5b50610164610245366004612619565b610f36565b34801561025657600080fd5b5061026a6102653660046122f2565b611334565b60405161013b91906126f3565b34801561028357600080fd5b506000546040516001600160a01b03909116815260200161013b565b3480156102ab57600080fd5b506101646102ba3660046127b2565b61155c565b3480156102cb57600080fd5b506102df6102da366004612530565b61180f565b60405161013b919061285f565b3480156102f857600080fd5b5061030260045481565b60405190815260200161013b565b34801561031c57600080fd5b5061016461032b3660046128a0565b611885565b61016461033e366004612957565b611ba5565b34801561034f57600080fd5b5061026a61035e3660046122f2565b611e15565b34801561036f57600080fd5b5061016461037e366004612983565b611ffb565b61038b61219e565b600660008381526020019081526020016000206040518060e0016040529081600082015481526020016001820180546103c39061299e565b80601f01602080910402602001604051908101604052809291908181526020018280546103ef9061299e565b801561043c5780601f106104115761010080835404028352916020019161043c565b820191906000526020600020905b81548152906001019060200180831161041f57829003601f168201915b505050505081526020016002820180546104559061299e565b80601f01602080910402602001604051908101604052809291908181526020018280546104819061299e565b80156104ce5780601f106104a3576101008083540402835291602001916104ce565b820191906000526020600020905b8154815290600101906020018083116104b157829003601f168201915b505050505081526020016003820180546104e79061299e565b80601f01602080910402602001604051908101604052809291908181526020018280546105139061299e565b80156105605780601f1061053557610100808354040283529160200191610560565b820191906000526020600020905b81548152906001019060200180831161054357829003601f168201915b505050505081526020016004820180546105799061299e565b80601f01602080910402602001604051908101604052809291908181526020018280546105a59061299e565b80156105f25780601f106105c7576101008083540402835291602001916105f2565b820191906000526020600020905b8154815290600101906020018083116105d557829003601f168201915b50505091835250506005820154602082015260069091015460ff16151560409091015292915050565b610623612074565b80600454101561066e5760405162461bcd60e51b8152602060048201526011602482015270125b9cdd59999a58da595b9d08199d5b99607a1b60448201526064015b60405180910390fd5b806004600082825461068091906129ef565b90915550610690905082826120ce565b5050565b61069c6121dd565b50600090815260076020818152604092839020835161016081018552815481526001820154928101929092526002810154938201939093526003830154606082015260048301546080820152600583015460a0820152600683015460c08201529082015460ff808216151560e08401526101009182900416151590820152600882015461012082015260099091015461014082015290565b6060600060015b600154811161077e576000818152600660208190526040909120015460ff1661076c578161076881612a06565b9250505b8061077681612a06565b91505061073b565b508067ffffffffffffffff81111561079857610798612552565b6040519080825280602002602001820160405280156107d157816020015b6107be61219e565b8152602001906001900390816107b65790505b509150600060015b6001548111610ac6576000818152600660208190526040909120015460ff16610ab457600660008281526020019081526020016000206040518060e0016040529081600082015481526020016001820180546108349061299e565b80601f01602080910402602001604051908101604052809291908181526020018280546108609061299e565b80156108ad5780601f10610882576101008083540402835291602001916108ad565b820191906000526020600020905b81548152906001019060200180831161089057829003601f168201915b505050505081526020016002820180546108c69061299e565b80601f01602080910402602001604051908101604052809291908181526020018280546108f29061299e565b801561093f5780601f106109145761010080835404028352916020019161093f565b820191906000526020600020905b81548152906001019060200180831161092257829003601f168201915b505050505081526020016003820180546109589061299e565b80601f01602080910402602001604051908101604052809291908181526020018280546109849061299e565b80156109d15780601f106109a6576101008083540402835291602001916109d1565b820191906000526020600020905b8154815290600101906020018083116109b457829003601f168201915b505050505081526020016004820180546109ea9061299e565b80601f0160208091040260200160405190810160405280929190818152602001828054610a169061299e565b8015610a635780601f10610a3857610100808354040283529160200191610a63565b820191906000526020600020905b815481529060010190602001808311610a4657829003601f168201915b50505091835250506005820154602082015260069091015460ff1615156040909101528451859084908110610a9a57610a9a612a21565b60200260200101819052508180610ab090612a06565b9250505b80610abe81612a06565b9150506107d9565b50505090565b610ad4612074565b60008281526005602052604090205460ff168015610b02575060008181526007602052604090206001015482145b610b1e5760405162461bcd60e51b815260040161066590612a37565b6000818152600760208190526040909120015460ff1615610b7c5760405162461bcd60e51b8152602060048201526018602482015277151a5b595cdb1bdd08185b1c9958591e4819195b195d195960421b6044820152606401610665565b60008181526007602081905260408220908101805461ff001916610100179055600901546004805491929091610bb3908490612a60565b909155505060009081526007602052604081206009015550565b610bd5612074565b60008281526005602052604090205460ff168015610c03575060008181526007602052604090206001015482145b610c1f5760405162461bcd60e51b815260040161066590612a37565b6000818152600760208190526040909120015460ff1615610c7d5760405162461bcd60e51b8152602060048201526018602482015277151a5b595cdb1bdd08185b1c9958591e4819195b195d195960421b6044820152606401610665565b60005b6000838152600860209081526040808320858452909152902054811015610d1357600083815260086020908152604080832085845290915290208054610d01919083908110610cd157610cd1612a21565b600091825260208083209091015485835260079091526040909120600201546001600160a01b03909116906120ce565b80610d0b81612a06565b915050610c80565b506000818152600760208181526040808420808401805460ff19166001179055868552600883528185208686528352932054919052600290910154610d589190612a78565b60008281526007602052604081206009018054909190610d799084906129ef565b9091555050600082815260086020908152604080832084845290915281206106909161223b565b610da8612074565b60008181526005602052604090205460ff16610dfd5760405162461bcd60e51b81526020600482015260146024820152734d6f76696520646f65736e27742065786973742160601b6044820152606401610665565b60015b6003548111610eef576000828152600860209081526040808320848452825280832080548251818502810185019093528083529192909190830182828015610e7157602002820191906000526020600020905b81546001600160a01b03168152600190910190602001808311610e53575b505050505090508051600014610edc5760405162461bcd60e51b815260206004820152602a60248201527f43616e6e6f742064656c657465206d6f766965207769746820707572636861736044820152696564207469636b65747360b01b6064820152608401610665565b5080610ee781612a06565b915050610e00565b506000908152600660208181526040808420909201805460ff199081166001179091556005909152912080549091169055565b610f2a612074565b610f346000612133565b565b610f3e612074565b60008681526005602052604090205460ff16610f6c5760405162461bcd60e51b815260040161066590612a37565b6000855111610fbd5760405162461bcd60e51b815260206004820152601e60248201527f5469636b65747320636f7374206d757374206e6f7420626520656d70747900006044820152606401610665565b600082511161100e5760405162461bcd60e51b815260206004820152601c60248201527f43617061636974696573206d757374206e6f7420626520656d707479000000006044820152606401610665565b600084511161106a5760405162461bcd60e51b815260206004820152602260248201527f53746172742074696d657320636f7374206d757374206e6f7420626520656d70604482015261747960f01b6064820152608401610665565b60008351116110bb5760405162461bcd60e51b815260206004820181905260248201527f456e642074696d657320636f7374206d757374206e6f7420626520656d7074796044820152606401610665565b600081511161110c5760405162461bcd60e51b815260206004820152601e60248201527f56696577696e672064617973206d757374206e6f7420626520656d70747900006044820152606401610665565b8051855114801561111e575081518151145b801561112b575083518251145b8015611138575082518451145b8015611145575080518351145b6111a55760405162461bcd60e51b815260206004820152602b60248201527f416c6c20706172616d6574657273206d757374206861766520657175616c206160448201526a0e4e4c2f240d8cadccee8d60ab1b6064820152608401610665565b60005b815181101561132b576111bf600380546001019055565b6111c76121dd565b60035481526020810188905286518790839081106111e7576111e7612a21565b602002602001015181604001818152505085828151811061120a5761120a612a21565b602002602001015181606001818152505084828151811061122d5761122d612a21565b602002602001015181608001818152505082828151811061125057611250612a21565b60200260200101518161012001818152505083828151811061127457611274612a21565b60209081029190910181015160a083019081528251600090815260078084526040918290208551815593850151600185015590840151600284015560608401516003840155608084015160048401559051600583015560c0830151600683015560e083015190820180546101008086015115150261ff00199315159390931661ffff19909116179190911790556101208201516008820155610140909101516009909101558061132381612a06565b9150506111a8565b50505050505050565b60606000805b6003548110156113bb578360076000611354846001612a60565b81526020019081526020016000206001015414801561139657506007600061137d836001612a60565b815260208101919091526040016000206007015460ff16155b156113a957816113a581612a06565b9250505b806113b381612a06565b91505061133a565b508067ffffffffffffffff8111156113d5576113d5612552565b60405190808252806020026020018201604052801561140e57816020015b6113fb6121dd565b8152602001906001900390816113f35790505b5091506000805b60035481101561155457846007600061142f846001612a60565b815260200190815260200160002060010154148015611471575060076000611458836001612a60565b815260208101919091526040016000206007015460ff16155b156115425760076000611485836001612a60565b81526020808201929092526040908101600020815161016081018352815481526001820154938101939093526002810154918301919091526003810154606083015260048101546080830152600581015460a0830152600681015460c0830152600781015460ff808216151560e08501526101009182900416151590830152600881015461012083015260090154610140820152848361152481612a06565b94508151811061153657611536612a21565b60200260200101819052505b8061154c81612a06565b915050611415565b505050919050565b611564612074565b60008451116115ab5760405162461bcd60e51b8152602060048201526013602482015272135bdd9a59481b985b59481c995c5d5a5c9959606a1b6044820152606401610665565b60008351116115fc5760405162461bcd60e51b815260206004820152601860248201527f4d6f76696520696d6167652075726c20726571756972656400000000000000006044820152606401610665565b60008251116116445760405162461bcd60e51b8152602060048201526014602482015273135bdd9a594819d95b9c99481c995c5d5a5c995960621b6044820152606401610665565b60008151116116955760405162461bcd60e51b815260206004820152601a60248201527f4d6f766965206465736372697074696f6e2072657175697265640000000000006044820152606401610665565b6116a3600180546001019055565b6116ab61219e565b6001548152602081018590526040810184905260608101839052608081018290526116d4612183565b60a082015280516000908152600660209081526040909120825181558183015180518493611709926001850192910190612259565b5060408201518051611725916002840191602090910190612259565b5060608201518051611741916003840191602090910190612259565b506080820151805161175d916004840191602090910190612259565b5060a082015160058083019190915560c0909201516006909101805491151560ff199283161790558251600090815260209290925260409182902080549091166001179055517f8b2c14fe955d044ef95ba32b88d2ceb87c6f73fcefdcebe906063a6d75690f27906118009060208082526018908201527f4d6f766965206164646564207375636365737366756c6c790000000000000000604082015260600190565b60405180910390a15050505050565b600082815260086020908152604080832084845282529182902080548351818402810184019094528084526060939283018282801561187757602002820191906000526020600020905b81546001600160a01b03168152600190910190602001808311611859575b505050505090505b92915050565b61188d612074565b60008581526005602052604090205460ff166118e25760405162461bcd60e51b81526020600482015260146024820152734d6f76696520646f65736e27742065786973742160601b6044820152606401610665565b60008451116119295760405162461bcd60e51b8152602060048201526013602482015272135bdd9a59481b985b59481c995c5d5a5c9959606a1b6044820152606401610665565b600083511161197a5760405162461bcd60e51b815260206004820152601860248201527f4d6f76696520696d6167652055524c20726571756972656400000000000000006044820152606401610665565b60008251116119c25760405162461bcd60e51b8152602060048201526014602482015273135bdd9a594819d95b9c99481c995c5d5a5c995960621b6044820152606401610665565b6000815111611a135760405162461bcd60e51b815260206004820152601a60248201527f4d6f766965206465736372697074696f6e2072657175697265640000000000006044820152606401610665565b60015b6003548111611aad5760008681526008602090815260408083208484529091529020805415611a9a5760405162461bcd60e51b815260206004820152602a60248201527f43616e6e6f7420757064617465206d6f766965207769746820707572636861736044820152696564207469636b65747360b01b6064820152608401610665565b5080611aa581612a06565b915050611a16565b5060008581526006602090815260409091208551611ad392600190920191870190612259565b5060008581526006602090815260409091208451611af992600290920191860190612259565b5060008581526006602090815260409091208351611b1f92600390920191850190612259565b5060008581526006602090815260409091208251611b4592600490920191840190612259565b507f8b2c14fe955d044ef95ba32b88d2ceb87c6f73fcefdcebe906063a6d75690f27604051611800906020808252601a908201527f4d6f7669652075706461746564207375636365737366756c6c79000000000000604082015260600190565b60008381526005602052604090205460ff168015611bd3575060008281526007602052604090206001015483145b611bef5760405162461bcd60e51b815260040161066590612a37565b600082815260076020526040902060020154611c0c908290612a78565b341015611c515760405162461bcd60e51b8152602060048201526013602482015272125b9cdd59999a58da595b9d08185b5bdd5b9d606a1b6044820152606401610665565b6000828152600760205260409020600681015460059091015411611ca95760405162461bcd60e51b815260206004820152600f60248201526e4f7574206f6620636170616369747960881b6044820152606401610665565b60005b81811015611da657611cc2600280546001019055565b611d1560405180610100016040528060008152602001600081526020016000815260200160006001600160a01b031681526020016000815260200160008152602001600081526020016000151581525090565b6002805482526000858152600760208181526040808420948501546080870152928890525260089091015460c08301528101849052336060820152611d58612183565b60a090910152600084815260086020908152604080832086845282528220805460018101825590835291200180546001600160a01b0319163317905580611d9e81612a06565b915050611cac565b5060008281526007602052604081206006018054839290611dc8908490612a60565b9091555050600082815260076020526040902060020154611dea908290612a78565b60008381526007602052604081206009018054909190611e0b908490612a60565b9091555050505050565b60606000805b600354811015611e9c578360076000611e35846001612a60565b815260200190815260200160002060080154148015611e77575060076000611e5e836001612a60565b815260208101919091526040016000206007015460ff16155b15611e8a5781611e8681612a06565b9250505b80611e9481612a06565b915050611e1b565b508067ffffffffffffffff811115611eb657611eb6612552565b604051908082528060200260200182016040528015611eef57816020015b611edc6121dd565b815260200190600190039081611ed45790505b5091506000805b600354811015611554578460076000611f10846001612a60565b815260200190815260200160002060080154148015611f52575060076000611f39836001612a60565b815260208101919091526040016000206007015460ff16155b15611fe95760076000611f66836001612a60565b815260200190815260200160002060030154848381518110611f8a57611f8a612a21565b60209081029190910101516060015260076000611fa8836001612a60565b815260200190815260200160002060040154848380611fc690612a06565b945081518110611fd857611fd8612a21565b602002602001015160800181815250505b80611ff381612a06565b915050611ef6565b612003612074565b6001600160a01b0381166120685760405162461bcd60e51b815260206004820152602660248201527f4f776e61626c653a206e6577206f776e657220697320746865207a65726f206160448201526564647265737360d01b6064820152608401610665565b61207181612133565b50565b6000546001600160a01b03163314610f345760405162461bcd60e51b815260206004820181905260248201527f4f776e61626c653a2063616c6c6572206973206e6f7420746865206f776e65726044820152606401610665565b6000826001600160a01b03168260405160006040518083038185875af1925050503d806000811461211b576040519150601f19603f3d011682016040523d82523d6000602084013e612120565b606091505b505090508061212e57600080fd5b505050565b600080546001600160a01b038381166001600160a01b0319831681178455604051919092169283917f8be0079c531659141344cd1fd0a4f28419497f9722a3daafe3b4186f6b6457e09190a35050565b600080612192426103e8612a78565b61187f906103e8612a60565b6040518060e001604052806000815260200160608152602001606081526020016060815260200160608152602001600081526020016000151581525090565b6040518061016001604052806000815260200160008152602001600081526020016000815260200160008152602001600081526020016000815260200160001515815260200160001515815260200160008152602001600081525090565b508054600082559060005260206000209081019061207191906122dd565b8280546122659061299e565b90600052602060002090601f01602090048101928261228757600085556122cd565b82601f106122a057805160ff19168380011785556122cd565b828001600101855582156122cd579182015b828111156122cd5782518255916020019190600101906122b2565b506122d99291506122dd565b5090565b5b808211156122d957600081556001016122de565b60006020828403121561230457600080fd5b5035919050565b6000815180845260005b8181101561233157602081850181015186830182015201612315565b81811115612343576000602083870101525b50601f01601f19169290920160200192915050565b805182526000602082015160e0602085015261237760e085018261230b565b905060408301518482036040860152612390828261230b565b915050606083015184820360608601526123aa828261230b565b915050608083015184820360808601526123c4828261230b565b91505060a083015160a085015260c0830151151560c08501528091505092915050565b6020815260006123fa6020830184612358565b9392505050565b80356001600160a01b038116811461241857600080fd5b919050565b6000806040838503121561243057600080fd5b61243983612401565b946020939093013593505050565b805182526020810151602083015260408101516040830152606081015160608301526080810151608083015260a081015160a083015260c081015160c083015260e081015161249a60e084018215159052565b5061010081810151151590830152610120808201519083015261014090810151910152565b610160810161187f8284612447565b6000602080830181845280855180835260408601915060408160051b870101925083870160005b8281101561252357603f19888603018452612511858351612358565b945092850192908501906001016124f5565b5092979650505050505050565b6000806040838503121561254357600080fd5b50508035926020909101359150565b634e487b7160e01b600052604160045260246000fd5b604051601f8201601f1916810167ffffffffffffffff8111828210171561259157612591612552565b604052919050565b600082601f8301126125aa57600080fd5b8135602067ffffffffffffffff8211156125c6576125c6612552565b8160051b6125d5828201612568565b92835284810182019282810190878511156125ef57600080fd5b83870192505b8483101561260e578235825291830191908301906125f5565b979650505050505050565b60008060008060008060c0878903121561263257600080fd5b86359550602087013567ffffffffffffffff8082111561265157600080fd5b61265d8a838b01612599565b9650604089013591508082111561267357600080fd5b61267f8a838b01612599565b9550606089013591508082111561269557600080fd5b6126a18a838b01612599565b945060808901359150808211156126b757600080fd5b6126c38a838b01612599565b935060a08901359150808211156126d957600080fd5b506126e689828a01612599565b9150509295509295509295565b6020808252825182820181905260009190848201906040850190845b8181101561273657612722838551612447565b92840192610160929092019160010161270f565b50909695505050505050565b600082601f83011261275357600080fd5b813567ffffffffffffffff81111561276d5761276d612552565b612780601f8201601f1916602001612568565b81815284602083860101111561279557600080fd5b816020850160208301376000918101602001919091529392505050565b600080600080608085870312156127c857600080fd5b843567ffffffffffffffff808211156127e057600080fd5b6127ec88838901612742565b9550602087013591508082111561280257600080fd5b61280e88838901612742565b9450604087013591508082111561282457600080fd5b61283088838901612742565b9350606087013591508082111561284657600080fd5b5061285387828801612742565b91505092959194509250565b6020808252825182820181905260009190848201906040850190845b818110156127365783516001600160a01b03168352928401929184019160010161287b565b600080600080600060a086880312156128b857600080fd5b85359450602086013567ffffffffffffffff808211156128d757600080fd5b6128e389838a01612742565b955060408801359150808211156128f957600080fd5b61290589838a01612742565b9450606088013591508082111561291b57600080fd5b61292789838a01612742565b9350608088013591508082111561293d57600080fd5b5061294a88828901612742565b9150509295509295909350565b60008060006060848603121561296c57600080fd5b505081359360208301359350604090920135919050565b60006020828403121561299557600080fd5b6123fa82612401565b600181811c908216806129b257607f821691505b602082108114156129d357634e487b7160e01b600052602260045260246000fd5b50919050565b634e487b7160e01b600052601160045260246000fd5b600082821015612a0157612a016129d9565b500390565b6000600019821415612a1a57612a1a6129d9565b5060010190565b634e487b7160e01b600052603260045260246000fd5b6020808252600f908201526e135bdd9a59481b9bdd08199bdd5b99608a1b604082015260600190565b60008219821115612a7357612a736129d9565b500190565b6000816000190483118215151615612a9257612a926129d9565b50029056fea26469706673582212204f7ca528658415b3d68543aee3ba7b067e714151f0c4ce458f2350aa10cfc19064736f6c634300080b0033",
  "linkReferences": {},
  "deployedLinkReferences": {}
}