{
  "_format": "hh-sol-artifact-1",
  "contractName": "DappCinemas",
  "sourceName": "src/contracts/DappCinemas.sol",
  "abi": [
    {
      "anonymous": false,
      "inputs": [
        {
          "indexed": false,
          "internalType": "string",
          "name": "actionType",
          "type": "string"
        }
      ],
      "name": "Action",
      "type": "event"
    },
    {
      "anonymous": false,
      "inputs": [
        {
          "indexed": true,
          "internalType": "address",
          "name": "previousOwner",
          "type": "address"
        },
        {
          "indexed": true,
          "internalType": "address",
          "name": "newOwner",
          "type": "address"
        }
      ],
      "name": "OwnershipTransferred",
      "type": "event"
    },
    {
      "inputs": [
        {
          "internalType": "string",
          "name": "name",
          "type": "string"
        },
        {
          "internalType": "string",
          "name": "imageUrl",
          "type": "string"
        },
        {
          "internalType": "string",
          "name": "genre",
          "type": "string"
        },
        {
          "internalType": "string",
          "name": "description",
          "type": "string"
        }
      ],
      "name": "addMovie",
      "outputs": [],
      "stateMutability": "nonpayable",
      "type": "function"
    },
    {
      "inputs": [
        {
          "internalType": "uint256",
          "name": "movieId",
          "type": "uint256"
        },
        {
          "internalType": "uint256",
          "name": "ticketCost",
          "type": "uint256"
        },
        {
          "internalType": "uint256",
          "name": "startTime",
          "type": "uint256"
        },
        {
          "internalType": "uint256",
          "name": "endTime",
          "type": "uint256"
        },
        {
          "internalType": "uint256",
          "name": "capacity",
          "type": "uint256"
        },
        {
          "internalType": "uint256",
          "name": "day",
          "type": "uint256"
        }
      ],
      "name": "addSlot",
      "outputs": [],
      "stateMutability": "nonpayable",
      "type": "function"
    },
    {
      "inputs": [
        {
          "internalType": "uint256",
          "name": "movieId",
          "type": "uint256"
        },
        {
          "internalType": "uint256",
          "name": "day",
          "type": "uint256"
        },
        {
          "internalType": "uint256",
          "name": "id",
          "type": "uint256"
        }
      ],
      "name": "buyTicket",
      "outputs": [],
      "stateMutability": "payable",
      "type": "function"
    },
    {
      "inputs": [
        {
          "internalType": "uint256",
          "name": "movieId",
          "type": "uint256"
        }
      ],
      "name": "checkForTicketHolders",
      "outputs": [
        {
          "internalType": "bool",
          "name": "",
          "type": "bool"
        }
      ],
      "stateMutability": "view",
      "type": "function"
    },
    {
      "inputs": [
        {
          "internalType": "uint256",
          "name": "id",
          "type": "uint256"
        }
      ],
      "name": "deleteMovie",
      "outputs": [],
      "stateMutability": "nonpayable",
      "type": "function"
    },
    {
      "inputs": [
        {
          "internalType": "uint256",
          "name": "id",
          "type": "uint256"
        },
        {
          "internalType": "uint256",
          "name": "movieId",
          "type": "uint256"
        }
      ],
      "name": "deleteSlot",
      "outputs": [],
      "stateMutability": "nonpayable",
      "type": "function"
    },
    {
      "inputs": [
        {
          "internalType": "uint256",
          "name": "id",
          "type": "uint256"
        }
      ],
      "name": "getMovie",
      "outputs": [
        {
          "components": [
            {
              "internalType": "uint256",
              "name": "id",
              "type": "uint256"
            },
            {
              "internalType": "string",
              "name": "name",
              "type": "string"
            },
            {
              "internalType": "string",
              "name": "imageUrl",
              "type": "string"
            },
            {
              "internalType": "string",
              "name": "genre",
              "type": "string"
            },
            {
              "internalType": "string",
              "name": "description",
              "type": "string"
            },
            {
              "internalType": "uint256",
              "name": "timestamp",
              "type": "uint256"
            },
            {
              "internalType": "bool",
              "name": "deleted",
              "type": "bool"
            }
          ],
          "internalType": "struct DappCinemas.MovieStruct",
          "name": "",
          "type": "tuple"
        }
      ],
      "stateMutability": "view",
      "type": "function"
    },
    {
      "inputs": [],
      "name": "getMovies",
      "outputs": [
        {
          "components": [
            {
              "internalType": "uint256",
              "name": "id",
              "type": "uint256"
            },
            {
              "internalType": "string",
              "name": "name",
              "type": "string"
            },
            {
              "internalType": "string",
              "name": "imageUrl",
              "type": "string"
            },
            {
              "internalType": "string",
              "name": "genre",
              "type": "string"
            },
            {
              "internalType": "string",
              "name": "description",
              "type": "string"
            },
            {
              "internalType": "uint256",
              "name": "timestamp",
              "type": "uint256"
            },
            {
              "internalType": "bool",
              "name": "deleted",
              "type": "bool"
            }
          ],
          "internalType": "struct DappCinemas.MovieStruct[]",
          "name": "Movies",
          "type": "tuple[]"
        }
      ],
      "stateMutability": "view",
      "type": "function"
    },
    {
      "inputs": [
        {
          "internalType": "uint256",
          "name": "movieId",
          "type": "uint256"
        },
        {
          "internalType": "uint256",
          "name": "id",
          "type": "uint256"
        }
      ],
      "name": "getSlot",
      "outputs": [
        {
          "components": [
            {
              "internalType": "uint256",
              "name": "id",
              "type": "uint256"
            },
            {
              "internalType": "uint256",
              "name": "movieId",
              "type": "uint256"
            },
            {
              "internalType": "uint256",
              "name": "ticketCost",
              "type": "uint256"
            },
            {
              "internalType": "uint256",
              "name": "startTime",
              "type": "uint256"
            },
            {
              "internalType": "uint256",
              "name": "endTime",
              "type": "uint256"
            },
            {
              "internalType": "uint256",
              "name": "capacity",
              "type": "uint256"
            },
            {
              "internalType": "uint256",
              "name": "seatings",
              "type": "uint256"
            },
            {
              "internalType": "bool",
              "name": "deleted",
              "type": "bool"
            },
            {
              "internalType": "bool",
              "name": "published",
              "type": "bool"
            },
            {
              "internalType": "uint256",
              "name": "day",
              "type": "uint256"
            }
          ],
          "internalType": "struct DappCinemas.TimeSlotStruct",
          "name": "",
          "type": "tuple"
        }
      ],
      "stateMutability": "view",
      "type": "function"
    },
    {
      "inputs": [
        {
          "internalType": "uint256",
          "name": "id",
          "type": "uint256"
        },
        {
          "internalType": "uint256",
          "name": "day",
          "type": "uint256"
        }
      ],
      "name": "getSlotForDay",
      "outputs": [
        {
          "components": [
            {
              "internalType": "uint256",
              "name": "id",
              "type": "uint256"
            },
            {
              "internalType": "uint256",
              "name": "movieId",
              "type": "uint256"
            },
            {
              "internalType": "uint256",
              "name": "ticketCost",
              "type": "uint256"
            },
            {
              "internalType": "uint256",
              "name": "startTime",
              "type": "uint256"
            },
            {
              "internalType": "uint256",
              "name": "endTime",
              "type": "uint256"
            },
            {
              "internalType": "uint256",
              "name": "capacity",
              "type": "uint256"
            },
            {
              "internalType": "uint256",
              "name": "seatings",
              "type": "uint256"
            },
            {
              "internalType": "bool",
              "name": "deleted",
              "type": "bool"
            },
            {
              "internalType": "bool",
              "name": "published",
              "type": "bool"
            },
            {
              "internalType": "uint256",
              "name": "day",
              "type": "uint256"
            }
          ],
          "internalType": "struct DappCinemas.TimeSlotStruct",
          "name": "",
          "type": "tuple"
        }
      ],
      "stateMutability": "view",
      "type": "function"
    },
    {
      "inputs": [
        {
          "internalType": "uint256",
          "name": "day",
          "type": "uint256"
        }
      ],
      "name": "getSlots",
      "outputs": [
        {
          "components": [
            {
              "internalType": "uint256",
              "name": "id",
              "type": "uint256"
            },
            {
              "internalType": "uint256",
              "name": "movieId",
              "type": "uint256"
            },
            {
              "internalType": "uint256",
              "name": "ticketCost",
              "type": "uint256"
            },
            {
              "internalType": "uint256",
              "name": "startTime",
              "type": "uint256"
            },
            {
              "internalType": "uint256",
              "name": "endTime",
              "type": "uint256"
            },
            {
              "internalType": "uint256",
              "name": "capacity",
              "type": "uint256"
            },
            {
              "internalType": "uint256",
              "name": "seatings",
              "type": "uint256"
            },
            {
              "internalType": "bool",
              "name": "deleted",
              "type": "bool"
            },
            {
              "internalType": "bool",
              "name": "published",
              "type": "bool"
            },
            {
              "internalType": "uint256",
              "name": "day",
              "type": "uint256"
            }
          ],
          "internalType": "struct DappCinemas.TimeSlotStruct[]",
          "name": "Timelines",
          "type": "tuple[]"
        }
      ],
      "stateMutability": "view",
      "type": "function"
    },
    {
      "inputs": [
        {
          "internalType": "uint256",
          "name": "movieId",
          "type": "uint256"
        }
      ],
      "name": "getSlotsForMovie",
      "outputs": [
        {
          "components": [
            {
              "internalType": "uint256",
              "name": "id",
              "type": "uint256"
            },
            {
              "internalType": "uint256",
              "name": "movieId",
              "type": "uint256"
            },
            {
              "internalType": "uint256",
              "name": "ticketCost",
              "type": "uint256"
            },
            {
              "internalType": "uint256",
              "name": "startTime",
              "type": "uint256"
            },
            {
              "internalType": "uint256",
              "name": "endTime",
              "type": "uint256"
            },
            {
              "internalType": "uint256",
              "name": "capacity",
              "type": "uint256"
            },
            {
              "internalType": "uint256",
              "name": "seatings",
              "type": "uint256"
            },
            {
              "internalType": "bool",
              "name": "deleted",
              "type": "bool"
            },
            {
              "internalType": "bool",
              "name": "published",
              "type": "bool"
            },
            {
              "internalType": "uint256",
              "name": "day",
              "type": "uint256"
            }
          ],
          "internalType": "struct DappCinemas.TimeSlotStruct[]",
          "name": "Timelines",
          "type": "tuple[]"
        }
      ],
      "stateMutability": "view",
      "type": "function"
    },
    {
      "inputs": [
        {
          "internalType": "uint256",
          "name": "movieId",
          "type": "uint256"
        },
        {
          "internalType": "uint256",
          "name": "day",
          "type": "uint256"
        }
      ],
      "name": "getTicketHolders",
      "outputs": [
        {
          "components": [
            {
              "internalType": "uint256",
              "name": "id",
              "type": "uint256"
            },
            {
              "internalType": "uint256",
              "name": "movieId",
              "type": "uint256"
            },
            {
              "internalType": "uint256",
              "name": "slotId",
              "type": "uint256"
            },
            {
              "internalType": "address",
              "name": "owner",
              "type": "address"
            },
            {
              "internalType": "uint256",
              "name": "cost",
              "type": "uint256"
            },
            {
              "internalType": "uint256",
              "name": "timestamp",
              "type": "uint256"
            },
            {
              "internalType": "uint256",
              "name": "day",
              "type": "uint256"
            },
            {
              "internalType": "bool",
              "name": "refunded",
              "type": "bool"
            }
          ],
          "internalType": "struct DappCinemas.TicketStruct[]",
          "name": "",
          "type": "tuple[]"
        }
      ],
      "stateMutability": "view",
      "type": "function"
    },
    {
      "inputs": [],
      "name": "owner",
      "outputs": [
        {
          "internalType": "address",
          "name": "",
          "type": "address"
        }
      ],
      "stateMutability": "view",
      "type": "function"
    },
    {
      "inputs": [
        {
          "internalType": "uint256",
          "name": "id",
          "type": "uint256"
        },
        {
          "internalType": "uint256",
          "name": "movieId",
          "type": "uint256"
        },
        {
          "internalType": "uint256",
          "name": "day",
          "type": "uint256"
        }
      ],
      "name": "publishTimeSlot",
      "outputs": [],
      "stateMutability": "nonpayable",
      "type": "function"
    },
    {
      "inputs": [],
      "name": "renounceOwnership",
      "outputs": [],
      "stateMutability": "nonpayable",
      "type": "function"
    },
    {
      "inputs": [],
      "name": "returnOwner",
      "outputs": [
        {
          "internalType": "address",
          "name": "",
          "type": "address"
        }
      ],
      "stateMutability": "view",
      "type": "function"
    },
    {
      "inputs": [
        {
          "internalType": "address",
          "name": "newOwner",
          "type": "address"
        }
      ],
      "name": "transferOwnership",
      "outputs": [],
      "stateMutability": "nonpayable",
      "type": "function"
    },
    {
      "inputs": [
        {
          "internalType": "uint256",
          "name": "id",
          "type": "uint256"
        },
        {
          "internalType": "string",
          "name": "name",
          "type": "string"
        },
        {
          "internalType": "string",
          "name": "imageUrl",
          "type": "string"
        },
        {
          "internalType": "string",
          "name": "genre",
          "type": "string"
        },
        {
          "internalType": "string",
          "name": "description",
          "type": "string"
        }
      ],
      "name": "updateMovie",
      "outputs": [],
      "stateMutability": "nonpayable",
      "type": "function"
    }
  ],
  "bytecode": "0x608060405234801561001057600080fd5b5061001a3361001f565b61006f565b600080546001600160a01b038381166001600160a01b0319831681178455604051919092169283917f8be0079c531659141344cd1fd0a4f28419497f9722a3daafe3b4186f6b6457e09190a35050565b612a598061007e6000396000f3fe6080604052600436106101145760003560e01c80638da5cb5b116100a0578063c4c6710d11610064578063c4c6710d1461033f578063ec3f15c514610352578063ee79904914610372578063f2fde38b14610392578063fc0b98b1146103b257600080fd5b80638da5cb5b1461028f5780638f70d440146102c157806394a927fe146102e1578063af022025146102ff578063bd4c5d241461031f57600080fd5b80635fe975d8116100e75780635fe975d8146101cb578063608928e1146101f857806365621036146102385780636b4f6cb714610258578063715018a61461027a57600080fd5b8063179ffe761461011957806320ced1051461014f57806323d5bd361461017c5780632c53b406146101a9575b600080fd5b34801561012557600080fd5b506101396101343660046123d5565b6103d2565b60405161014691906124ca565b60405180910390f35b34801561015b57600080fd5b5061016f61016a3660046124e4565b61066a565b6040516101469190612506565b34801561018857600080fd5b5061019c6101973660046123d5565b610738565b604051610146919061260b565b3480156101b557600080fd5b506101be6108dc565b604051610146919061265a565b3480156101d757600080fd5b506101eb6101e63660046124e4565b610c72565b60405161014691906126bc565b34801561020457600080fd5b506102286102133660046123d5565b60009081526006602052604090205460ff1690565b6040519015158152602001610146565b34801561024457600080fd5b506101eb6102533660046124e4565b610d2c565b34801561026457600080fd5b506102786102733660046123d5565b610d54565b005b34801561028657600080fd5b50610278610e4d565b34801561029b57600080fd5b506000546001600160a01b03165b6040516001600160a01b039091168152602001610146565b3480156102cd57600080fd5b506102786102dc36600461276e565b610e61565b3480156102ed57600080fd5b506000546001600160a01b03166102a9565b34801561030b57600080fd5b5061027861031a3660046124e4565b61111a565b34801561032b57600080fd5b5061027861033a36600461281b565b61131f565b61027861034d3660046128d2565b611603565b34801561035e57600080fd5b5061027861036d3660046128d2565b61195b565b34801561037e57600080fd5b5061027861038d3660046128fe565b611ae5565b34801561039e57600080fd5b506102786103ad366004612941565b611e0b565b3480156103be57600080fd5b5061019c6103cd3660046123d5565b611e84565b6103da6122a6565b600360008381526020019081526020016000206040518060e0016040529081600082015481526020016001820180546104129061296a565b80601f016020809104026020016040519081016040528092919081815260200182805461043e9061296a565b801561048b5780601f106104605761010080835404028352916020019161048b565b820191906000526020600020905b81548152906001019060200180831161046e57829003601f168201915b505050505081526020016002820180546104a49061296a565b80601f01602080910402602001604051908101604052809291908181526020018280546104d09061296a565b801561051d5780601f106104f25761010080835404028352916020019161051d565b820191906000526020600020905b81548152906001019060200180831161050057829003601f168201915b505050505081526020016003820180546105369061296a565b80601f01602080910402602001604051908101604052809291908181526020018280546105629061296a565b80156105af5780601f10610584576101008083540402835291602001916105af565b820191906000526020600020905b81548152906001019060200180831161059257829003601f168201915b505050505081526020016004820180546105c89061296a565b80601f01602080910402602001604051908101604052809291908181526020018280546105f49061296a565b80156106415780601f1061061657610100808354040283529160200191610641565b820191906000526020600020905b81548152906001019060200180831161062457829003601f168201915b50505091835250506005820154602082015260069091015460ff16151560409091015292915050565b60008281526009602090815260408083208484528252808320805482518185028101850190935280835260609492939192909184015b8282101561072b576000848152602090819020604080516101008101825260088602909201805483526001808201548486015260028201549284019290925260038101546001600160a01b0316606084015260048101546080840152600581015460a0840152600681015460c08401526007015460ff16151560e083015290835290920191016106a0565b5050505090505b92915050565b60606000805b600084815260086020526040902054811015610774578161075e816129bb565b925050808061076c906129bb565b91505061073e565b508067ffffffffffffffff81111561078e5761078e6126cb565b6040519080825280602002602001820160405280156107c757816020015b6107b46122e5565b8152602001906001900390816107ac5790505b5091506000805b6000858152600860205260409020548110156108d4576000858152600860205260408120805483908110610804576108046129d6565b600091825260209182902060408051610140810182526009909302909101805483526001810154938301939093526002830154908201526003820154606082015260048201546080820152600582015460a0820152600682015460c0820152600782015460ff808216151560e08401526101009182900416151590820152600890910154610120820152855190915081908690859081106108a7576108a76129d6565b602002602001018190525082806108bd906129bb565b9350505080806108cc906129bb565b9150506107ce565b505050919050565b6060600060015b60015481116109255760008181526003602052604090206006015460ff16610913578161090f816129bb565b9250505b8061091d816129bb565b9150506108e3565b508067ffffffffffffffff81111561093f5761093f6126cb565b60405190808252806020026020018201604052801561097857816020015b6109656122a6565b81526020019060019003908161095d5790505b509150600060015b6001548111610c6c5760008181526003602052604090206006015460ff16610c5a57600360008281526020019081526020016000206040518060e0016040529081600082015481526020016001820180546109da9061296a565b80601f0160208091040260200160405190810160405280929190818152602001828054610a069061296a565b8015610a535780601f10610a2857610100808354040283529160200191610a53565b820191906000526020600020905b815481529060010190602001808311610a3657829003601f168201915b50505050508152602001600282018054610a6c9061296a565b80601f0160208091040260200160405190810160405280929190818152602001828054610a989061296a565b8015610ae55780601f10610aba57610100808354040283529160200191610ae5565b820191906000526020600020905b815481529060010190602001808311610ac857829003601f168201915b50505050508152602001600382018054610afe9061296a565b80601f0160208091040260200160405190810160405280929190818152602001828054610b2a9061296a565b8015610b775780601f10610b4c57610100808354040283529160200191610b77565b820191906000526020600020905b815481529060010190602001808311610b5a57829003601f168201915b50505050508152602001600482018054610b909061296a565b80601f0160208091040260200160405190810160405280929190818152602001828054610bbc9061296a565b8015610c095780601f10610bde57610100808354040283529160200191610c09565b820191906000526020600020905b815481529060010190602001808311610bec57829003601f168201915b50505091835250506005820154602082015260069091015460ff1615156040909101528451859084908110610c4057610c406129d6565b60200260200101819052508180610c56906129bb565b9250505b80610c64816129bb565b915050610980565b50505090565b610c7a6122e5565b6000838152600860205260409020805483908110610c9a57610c9a6129d6565b600091825260209182902060408051610140810182526009909302909101805483526001810154938301939093526002830154908201526003820154606082015260048201546080820152600582015460a0820152600682015460c0820152600782015460ff808216151560e08401526101009182900416151590820152600890910154610120820152905092915050565b610d346122e5565b6000828152600760205260409020805484908110610c9a57610c9a6129d6565b610d5c612020565b60008181526004602052604090205460ff161515600114610dbb5760405162461bcd60e51b81526020600482015260146024820152736d6f76696520646f65736e27742065786973742160601b60448201526064015b60405180910390fd5b60008181526006602052604090205460ff1615610e1a5760405162461bcd60e51b815260206004820181905260248201527f6d6f76696520616c726561647920686173207469636b657420686f6c646572736044820152606401610db2565b6000908152600360209081526040808320600601805460ff19908116600117909155600490925290912080549091169055565b610e55612020565b610e5f600061207a565b565b610e69612020565b6000845111610eb05760405162461bcd60e51b8152602060048201526013602482015272135bdd9a59481b985b59481c995c5d5a5c9959606a1b6044820152606401610db2565b6000835111610efc5760405162461bcd60e51b8152602060048201526018602482015277135bdd9a59481a5b5859d9481d5c9b081c995c5d5a5c995960421b6044820152606401610db2565b6000825111610f445760405162461bcd60e51b8152602060048201526014602482015273135bdd9a594819d95b9c99481c995c5d5a5c995960621b6044820152606401610db2565b6000815111610f955760405162461bcd60e51b815260206004820152601a60248201527f4d6f766965206465736372697074696f6e2072657175697265640000000000006044820152606401610db2565b610fa3600180546001019055565b610fab6122a6565b600154815260208101859052604081018490526060810183905260808101829052610fd46120ca565b60a08201528060036000610fe760015490565b81526020808201929092526040016000208251815582820151805191926110169260018501929091019061233c565b506040820151805161103291600284019160209091019061233c565b506060820151805161104e91600384019160209091019061233c565b506080820151805161106a91600484019160209091019061233c565b5060a0820151600582015560c0909101516006909101805491151560ff1992831617905560018054600090815260046020908152604091829020805490941690921790925581518181526018918101919091527f4d6f766965206164646564207375636365737366756c6c790000000000000000918101919091527f8b2c14fe955d044ef95ba32b88d2ceb87c6f73fcefdcebe906063a6d75690f27906060015b60405180910390a15050505050565b611122612020565b60008281526005602052604090205460ff166111795760405162461bcd60e51b81526020600482015260166024820152751d1a5b595cdb1bdd08191bd95cdb89dd08195e1a5cdd60521b6044820152606401610db2565b6000818152600860205260409020805483908110611199576111996129d6565b906000526020600020906009020160070160019054906101000a900460ff16156112155760405162461bcd60e51b815260206004820152602760248201527f4e6f7420616c6c6f7765642c2074696d65736c6f7420616c7265616479207075604482015266189b1a5cda195960ca1b6064820152608401610db2565b600081815260086020526040902080546112529183918590811061123b5761123b6129d6565b9060005260206000209060090201600801546120e5565b600081815260086020526040902080546001919084908110611276576112766129d6565b906000526020600020906009020160070160006101000a81548160ff0219169083151502179055506001600760006008600085815260200190815260200160002085815481106112c8576112c86129d6565b906000526020600020906009020160080154815260200190815260200160002083815481106112f9576112f96129d6565b60009182526020909120600990910201600701805460ff19169115159190911790555050565b611327612020565b60008581526004602052604090205460ff1615156001146113815760405162461bcd60e51b81526020600482015260146024820152736d6f76696520646f65736e27742065786973742160601b6044820152606401610db2565b60008581526006602052604090205460ff16156113e05760405162461bcd60e51b815260206004820181905260248201527f6d6f76696520616c726561647920686173207469636b657420686f6c646572736044820152606401610db2565b60008451116114275760405162461bcd60e51b8152602060048201526013602482015272135bdd9a59481b985b59481c995c5d5a5c9959606a1b6044820152606401610db2565b60008351116114735760405162461bcd60e51b8152602060048201526018602482015277135bdd9a59481a5b5859d9481d5c9b081c995c5d5a5c995960421b6044820152606401610db2565b60008251116114bb5760405162461bcd60e51b8152602060048201526014602482015273135bdd9a594819d95b9c99481c995c5d5a5c995960621b6044820152606401610db2565b600081511161150c5760405162461bcd60e51b815260206004820152601a60248201527f4d6f766965206465736372697074696f6e2072657175697265640000000000006044820152606401610db2565b600085815260036020908152604090912085516115319260019092019187019061233c565b50600085815260036020908152604090912084516115579260029092019186019061233c565b506000858152600360208181526040909220845161157d9391909201919085019061233c565b50600085815260036020908152604090912082516115a39260049092019184019061233c565b507f8b2c14fe955d044ef95ba32b88d2ceb87c6f73fcefdcebe906063a6d75690f2760405161110b906020808252601a908201527f4d6f7669652075706461746564207375636365737366756c6c79000000000000604082015260600190565b6000838152600860205260409020805482908110611623576116236129d6565b90600052602060002090600902016002015434101561167a5760405162461bcd60e51b8152602060048201526013602482015272125b9cdd59999a58da595b9d08185b5bdd5b9d606a1b6044820152606401610db2565b600083815260086020526040902080548290811061169a5761169a6129d6565b906000526020600020906009020160070160019054906101000a900460ff166117055760405162461bcd60e51b815260206004820152601760248201527f54696d6520736c6f7420646f65736e27742065786973740000000000000000006044820152606401610db2565b6000838152600860205260409020805482908110611725576117256129d6565b90600052602060002090600902016005015460086000858152602001908152602001600020828154811061175b5761175b6129d6565b906000526020600020906009020160060154106117c45760405162461bcd60e51b815260206004820152602160248201527f43617061636974792066756c6c2c20626f6f6b20746865206e65787420736c6f6044820152601d60fa1b6064820152608401610db2565b6117d2600280546001019055565b61182560405180610100016040528060008152602001600081526020016000815260200160006001600160a01b031681526020016000815260200160008152602001600081526020016000151581525090565b60025481526020810184905260c08101839052604081018290523460808201523360608201526118536120ca565b60a08201526000838152600760205260409020805483908110611878576118786129d6565b600091825260208220600660099092020101805491611896836129bb565b909155505060008481526009602090815260408083209583529481528482208054600181810183559184528284208551600890920201908155848301518183015584870151600282015560608501516003820180546001600160a01b039092166001600160a01b03199092169190911790556080850151600482015560a0850151600582015560c085015160068083019190915560e0909501516007909101805491151560ff1992831617905596835292905292909220805490931690911790915550565b611963612020565b60008381526005602052604090205460ff166119ba5760405162461bcd60e51b81526020600482015260166024820152751d1a5b595cdb1bdd08191bd95cdb89dd08195e1a5cdd60521b6044820152606401610db2565b60008281526008602052604090208054849081106119da576119da6129d6565b906000526020600020906009020160070160019054906101000a900460ff1615611a465760405162461bcd60e51b815260206004820152601a60248201527f74696d65736c6f7420616c7265616479207075626c69736865640000000000006044820152606401610db2565b600082815260086020526040902080546001919085908110611a6a57611a6a6129d6565b906000526020600020906009020160070160016101000a81548160ff0219169083151502179055506001600760008381526020019081526020016000208481548110611ab857611ab86129d6565b906000526020600020906009020160070160016101000a81548160ff021916908315150217905550505050565b611aed612020565b60008211611b3d5760405162461bcd60e51b815260206004820181905260248201527f4361706163697479206d7573742062652067726561746572207468616e2030216044820152606401610db2565b60008511611b995760405162461bcd60e51b8152602060048201526024808201527f5469636b6574207072696365206d7573742062652067726561746572207468616044820152636e20302160e01b6064820152608401610db2565b611ba16122e5565b6007600083815260200190815260200160002080549050816000018181525050868160200181815250508581604001818152505084816060018181525050838160800181815250508181610120018181525050828160a00181815250506001600560006007600086815260200190815260200160002080549050815260200190815260200160002060006101000a81548160ff02191690831515021790555060086000888152602001908152602001600020819080600181540180825580915050600190039060005260206000209060090201600090919091909150600082015181600001556020820151816001015560408201518160020155606082015181600301556080820151816004015560a0820151816005015560c0820151816006015560e08201518160070160006101000a81548160ff0219169083151502179055506101008201518160070160016101000a81548160ff021916908315150217905550610120820151816008015550506007600083815260200190815260200160002060086000898152602001908152602001600020826000015181548110611d4c57611d4c6129d6565b600091825260208083208454600181810187559585529190932060099283029093018054919092029092019182558281015492820192909255600280830154908201556003808301549082015560048083015490820155600580830154908201556006808301549082015560078083018054918301805460ff938416151560ff19821681178355925461010090819004909416151590930261ff001990921661ffff199093169290921717905560089182015491015550505050505050565b611e13612020565b6001600160a01b038116611e785760405162461bcd60e51b815260206004820152602660248201527f4f776e61626c653a206e6577206f776e657220697320746865207a65726f206160448201526564647265737360d01b6064820152608401610db2565b611e818161207a565b50565b60606000805b600084815260076020526040902054811015611ec05781611eaa816129bb565b9250508080611eb8906129bb565b915050611e8a565b508067ffffffffffffffff811115611eda57611eda6126cb565b604051908082528060200260200182016040528015611f1357816020015b611f006122e5565b815260200190600190039081611ef85790505b5091506000805b6000858152600760205260409020548110156108d4576000858152600760205260408120805483908110611f5057611f506129d6565b600091825260209182902060408051610140810182526009909302909101805483526001810154938301939093526002830154908201526003820154606082015260048201546080820152600582015460a0820152600682015460c0820152600782015460ff808216151560e0840152610100918290041615159082015260089091015461012082015285519091508190869085908110611ff357611ff36129d6565b60200260200101819052508280612009906129bb565b935050508080612018906129bb565b915050611f1a565b6000546001600160a01b03163314610e5f5760405162461bcd60e51b815260206004820181905260248201527f4f776e61626c653a2063616c6c6572206973206e6f7420746865206f776e65726044820152606401610db2565b600080546001600160a01b038381166001600160a01b0319831681178455604051919092169283917f8be0079c531659141344cd1fd0a4f28419497f9722a3daafe3b4186f6b6457e09190a35050565b6000806120d9426103e86129ec565b610732906103e8612a0b565b60015b600083815260096020908152604080832085845290915290205481116121ea5760008381526009602090815260408083208584529091528120805483908110612133576121336129d6565b60009182526020918290206040805161010081018252600890930290910180548352600181015493830184905260028101549183019190915260038101546001600160a01b0316606083015260048101546080830152600581015460a0830152600681015460c08301526007015460ff16151560e082015291508414156121d757600160e08201526121c560026121ef565b6121d781606001518260800151612246565b50806121e2816129bb565b9150506120e8565b505050565b80548061223e5760405162461bcd60e51b815260206004820152601b60248201527f436f756e7465723a2064656372656d656e74206f766572666c6f7700000000006044820152606401610db2565b600019019055565b6000826001600160a01b03168260405160006040518083038185875af1925050503d8060008114612293576040519150601f19603f3d011682016040523d82523d6000602084013e612298565b606091505b50509050806121ea57600080fd5b6040518060e001604052806000815260200160608152602001606081526020016060815260200160608152602001600081526020016000151581525090565b60405180610140016040528060008152602001600081526020016000815260200160008152602001600081526020016000815260200160008152602001600015158152602001600015158152602001600081525090565b8280546123489061296a565b90600052602060002090601f01602090048101928261236a57600085556123b0565b82601f1061238357805160ff19168380011785556123b0565b828001600101855582156123b0579182015b828111156123b0578251825591602001919060010190612395565b506123bc9291506123c0565b5090565b5b808211156123bc57600081556001016123c1565b6000602082840312156123e757600080fd5b5035919050565b6000815180845260005b81811015612414576020818501810151868301820152016123f8565b81811115612426576000602083870101525b50601f01601f19169290920160200192915050565b805182526000602082015160e0602085015261245a60e08501826123ee565b90506040830151848203604086015261247382826123ee565b9150506060830151848203606086015261248d82826123ee565b915050608083015184820360808601526124a782826123ee565b91505060a083015160a085015260c0830151151560c08501528091505092915050565b6020815260006124dd602083018461243b565b9392505050565b600080604083850312156124f757600080fd5b50508035926020909101359150565b602080825282518282018190526000919060409081850190868401855b8281101561259157815180518552868101518786015285810151868601526060808201516001600160a01b0316908601526080808201519086015260a0808201519086015260c0808201519086015260e0908101511515908501526101009093019290850190600101612523565b5091979650505050505050565b805182526020810151602083015260408101516040830152606081015160608301526080810151608083015260a081015160a083015260c081015160c083015260e08101516125f160e084018215159052565b506101008181015115159083015261012090810151910152565b6020808252825182820181905260009190848201906040850190845b8181101561264e5761263a83855161259e565b928401926101409290920191600101612627565b50909695505050505050565b6000602080830181845280855180835260408601915060408160051b870101925083870160005b828110156126af57603f1988860301845261269d85835161243b565b94509285019290850190600101612681565b5092979650505050505050565b6101408101610732828461259e565b634e487b7160e01b600052604160045260246000fd5b600082601f8301126126f257600080fd5b813567ffffffffffffffff8082111561270d5761270d6126cb565b604051601f8301601f19908116603f01168101908282118183101715612735576127356126cb565b8160405283815286602085880101111561274e57600080fd5b836020870160208301376000602085830101528094505050505092915050565b6000806000806080858703121561278457600080fd5b843567ffffffffffffffff8082111561279c57600080fd5b6127a8888389016126e1565b955060208701359150808211156127be57600080fd5b6127ca888389016126e1565b945060408701359150808211156127e057600080fd5b6127ec888389016126e1565b9350606087013591508082111561280257600080fd5b5061280f878288016126e1565b91505092959194509250565b600080600080600060a0868803121561283357600080fd5b85359450602086013567ffffffffffffffff8082111561285257600080fd5b61285e89838a016126e1565b9550604088013591508082111561287457600080fd5b61288089838a016126e1565b9450606088013591508082111561289657600080fd5b6128a289838a016126e1565b935060808801359150808211156128b857600080fd5b506128c5888289016126e1565b9150509295509295909350565b6000806000606084860312156128e757600080fd5b505081359360208301359350604090920135919050565b60008060008060008060c0878903121561291757600080fd5b505084359660208601359650604086013595606081013595506080810135945060a0013592509050565b60006020828403121561295357600080fd5b81356001600160a01b03811681146124dd57600080fd5b600181811c9082168061297e57607f821691505b6020821081141561299f57634e487b7160e01b600052602260045260246000fd5b50919050565b634e487b7160e01b600052601160045260246000fd5b60006000198214156129cf576129cf6129a5565b5060010190565b634e487b7160e01b600052603260045260246000fd5b6000816000190483118215151615612a0657612a066129a5565b500290565b60008219821115612a1e57612a1e6129a5565b50019056fea26469706673582212205a7b7b41477778c1e8d77d70fdfe66f300994b4cfadaa24cf427711d716fe4ee64736f6c634300080b0033",
  "linkReferences": {},
  "deployedLinkReferences": {}
}