{
  "_format": "hh-sol-artifact-1",
  "contractName": "DappCinemas",
  "sourceName": "src/contracts/DappCinemas.sol",
  "abi": [
    {
      "anonymous": false,
      "inputs": [
        {
          "indexed": false,
          "internalType": "string",
          "name": "actionType",
          "type": "string"
        }
      ],
      "name": "Action",
      "type": "event"
    },
    {
      "anonymous": false,
      "inputs": [
        {
          "indexed": true,
          "internalType": "address",
          "name": "previousOwner",
          "type": "address"
        },
        {
          "indexed": true,
          "internalType": "address",
          "name": "newOwner",
          "type": "address"
        }
      ],
      "name": "OwnershipTransferred",
      "type": "event"
    },
    {
      "inputs": [
        {
          "internalType": "string",
          "name": "name",
          "type": "string"
        },
        {
          "internalType": "string",
          "name": "imageUrl",
          "type": "string"
        },
        {
          "internalType": "string",
          "name": "genre",
          "type": "string"
        },
        {
          "internalType": "string",
          "name": "description",
          "type": "string"
        }
      ],
      "name": "addMovie",
      "outputs": [],
      "stateMutability": "nonpayable",
      "type": "function"
    },
    {
      "inputs": [
        {
          "internalType": "uint256",
          "name": "movieId",
          "type": "uint256"
        },
        {
          "internalType": "uint256",
          "name": "ticketCost",
          "type": "uint256"
        },
        {
          "internalType": "uint256",
          "name": "startTime",
          "type": "uint256"
        },
        {
          "internalType": "uint256",
          "name": "endTime",
          "type": "uint256"
        },
        {
          "internalType": "uint256",
          "name": "capacity",
          "type": "uint256"
        },
        {
          "internalType": "uint256",
          "name": "day",
          "type": "uint256"
        }
      ],
      "name": "addSlot",
      "outputs": [],
      "stateMutability": "nonpayable",
      "type": "function"
    },
    {
      "inputs": [
        {
          "internalType": "uint256",
          "name": "movieId",
          "type": "uint256"
        },
        {
          "internalType": "uint256",
          "name": "day",
          "type": "uint256"
        },
        {
          "internalType": "uint256",
          "name": "id",
          "type": "uint256"
        }
      ],
      "name": "buyTicket",
      "outputs": [],
      "stateMutability": "payable",
      "type": "function"
    },
    {
      "inputs": [
        {
          "internalType": "uint256",
          "name": "movieId",
          "type": "uint256"
        }
      ],
      "name": "checkForTicketHolders",
      "outputs": [
        {
          "internalType": "bool",
          "name": "",
          "type": "bool"
        }
      ],
      "stateMutability": "view",
      "type": "function"
    },
    {
      "inputs": [
        {
          "internalType": "uint256",
          "name": "id",
          "type": "uint256"
        }
      ],
      "name": "deleteMovie",
      "outputs": [],
      "stateMutability": "nonpayable",
      "type": "function"
    },
    {
      "inputs": [
        {
          "internalType": "uint256",
          "name": "id",
          "type": "uint256"
        },
        {
          "internalType": "uint256",
          "name": "movieId",
          "type": "uint256"
        }
      ],
      "name": "deleteSlot",
      "outputs": [],
      "stateMutability": "nonpayable",
      "type": "function"
    },
    {
      "inputs": [
        {
          "internalType": "uint256",
          "name": "id",
          "type": "uint256"
        }
      ],
      "name": "getMovie",
      "outputs": [
        {
          "components": [
            {
              "internalType": "uint256",
              "name": "id",
              "type": "uint256"
            },
            {
              "internalType": "string",
              "name": "name",
              "type": "string"
            },
            {
              "internalType": "string",
              "name": "imageUrl",
              "type": "string"
            },
            {
              "internalType": "string",
              "name": "genre",
              "type": "string"
            },
            {
              "internalType": "string",
              "name": "description",
              "type": "string"
            },
            {
              "internalType": "uint256",
              "name": "timestamp",
              "type": "uint256"
            },
            {
              "internalType": "bool",
              "name": "deleted",
              "type": "bool"
            }
          ],
          "internalType": "struct DappCinemas.MovieStruct",
          "name": "",
          "type": "tuple"
        }
      ],
      "stateMutability": "view",
      "type": "function"
    },
    {
      "inputs": [],
      "name": "getMovies",
      "outputs": [
        {
          "components": [
            {
              "internalType": "uint256",
              "name": "id",
              "type": "uint256"
            },
            {
              "internalType": "string",
              "name": "name",
              "type": "string"
            },
            {
              "internalType": "string",
              "name": "imageUrl",
              "type": "string"
            },
            {
              "internalType": "string",
              "name": "genre",
              "type": "string"
            },
            {
              "internalType": "string",
              "name": "description",
              "type": "string"
            },
            {
              "internalType": "uint256",
              "name": "timestamp",
              "type": "uint256"
            },
            {
              "internalType": "bool",
              "name": "deleted",
              "type": "bool"
            }
          ],
          "internalType": "struct DappCinemas.MovieStruct[]",
          "name": "Movies",
          "type": "tuple[]"
        }
      ],
      "stateMutability": "view",
      "type": "function"
    },
    {
      "inputs": [
        {
          "internalType": "uint256",
          "name": "movieId",
          "type": "uint256"
        },
        {
          "internalType": "uint256",
          "name": "id",
          "type": "uint256"
        }
      ],
      "name": "getSlot",
      "outputs": [
        {
          "components": [
            {
              "internalType": "uint256",
              "name": "id",
              "type": "uint256"
            },
            {
              "internalType": "uint256",
              "name": "movieId",
              "type": "uint256"
            },
            {
              "internalType": "uint256",
              "name": "ticketCost",
              "type": "uint256"
            },
            {
              "internalType": "uint256",
              "name": "startTime",
              "type": "uint256"
            },
            {
              "internalType": "uint256",
              "name": "endTime",
              "type": "uint256"
            },
            {
              "internalType": "uint256",
              "name": "capacity",
              "type": "uint256"
            },
            {
              "internalType": "uint256",
              "name": "seatings",
              "type": "uint256"
            },
            {
              "internalType": "bool",
              "name": "deleted",
              "type": "bool"
            },
            {
              "internalType": "bool",
              "name": "published",
              "type": "bool"
            },
            {
              "internalType": "uint256",
              "name": "day",
              "type": "uint256"
            }
          ],
          "internalType": "struct DappCinemas.TimeSlotStruct",
          "name": "",
          "type": "tuple"
        }
      ],
      "stateMutability": "view",
      "type": "function"
    },
    {
      "inputs": [
        {
          "internalType": "uint256",
          "name": "id",
          "type": "uint256"
        },
        {
          "internalType": "uint256",
          "name": "day",
          "type": "uint256"
        }
      ],
      "name": "getSlotForDay",
      "outputs": [
        {
          "components": [
            {
              "internalType": "uint256",
              "name": "id",
              "type": "uint256"
            },
            {
              "internalType": "uint256",
              "name": "movieId",
              "type": "uint256"
            },
            {
              "internalType": "uint256",
              "name": "ticketCost",
              "type": "uint256"
            },
            {
              "internalType": "uint256",
              "name": "startTime",
              "type": "uint256"
            },
            {
              "internalType": "uint256",
              "name": "endTime",
              "type": "uint256"
            },
            {
              "internalType": "uint256",
              "name": "capacity",
              "type": "uint256"
            },
            {
              "internalType": "uint256",
              "name": "seatings",
              "type": "uint256"
            },
            {
              "internalType": "bool",
              "name": "deleted",
              "type": "bool"
            },
            {
              "internalType": "bool",
              "name": "published",
              "type": "bool"
            },
            {
              "internalType": "uint256",
              "name": "day",
              "type": "uint256"
            }
          ],
          "internalType": "struct DappCinemas.TimeSlotStruct",
          "name": "",
          "type": "tuple"
        }
      ],
      "stateMutability": "view",
      "type": "function"
    },
    {
      "inputs": [
        {
          "internalType": "uint256",
          "name": "day",
          "type": "uint256"
        }
      ],
      "name": "getSlots",
      "outputs": [
        {
          "components": [
            {
              "internalType": "uint256",
              "name": "id",
              "type": "uint256"
            },
            {
              "internalType": "uint256",
              "name": "movieId",
              "type": "uint256"
            },
            {
              "internalType": "uint256",
              "name": "ticketCost",
              "type": "uint256"
            },
            {
              "internalType": "uint256",
              "name": "startTime",
              "type": "uint256"
            },
            {
              "internalType": "uint256",
              "name": "endTime",
              "type": "uint256"
            },
            {
              "internalType": "uint256",
              "name": "capacity",
              "type": "uint256"
            },
            {
              "internalType": "uint256",
              "name": "seatings",
              "type": "uint256"
            },
            {
              "internalType": "bool",
              "name": "deleted",
              "type": "bool"
            },
            {
              "internalType": "bool",
              "name": "published",
              "type": "bool"
            },
            {
              "internalType": "uint256",
              "name": "day",
              "type": "uint256"
            }
          ],
          "internalType": "struct DappCinemas.TimeSlotStruct[]",
          "name": "Timelines",
          "type": "tuple[]"
        }
      ],
      "stateMutability": "view",
      "type": "function"
    },
    {
      "inputs": [
        {
          "internalType": "uint256",
          "name": "movieId",
          "type": "uint256"
        }
      ],
      "name": "getSlotsForMovie",
      "outputs": [
        {
          "components": [
            {
              "internalType": "uint256",
              "name": "id",
              "type": "uint256"
            },
            {
              "internalType": "uint256",
              "name": "movieId",
              "type": "uint256"
            },
            {
              "internalType": "uint256",
              "name": "ticketCost",
              "type": "uint256"
            },
            {
              "internalType": "uint256",
              "name": "startTime",
              "type": "uint256"
            },
            {
              "internalType": "uint256",
              "name": "endTime",
              "type": "uint256"
            },
            {
              "internalType": "uint256",
              "name": "capacity",
              "type": "uint256"
            },
            {
              "internalType": "uint256",
              "name": "seatings",
              "type": "uint256"
            },
            {
              "internalType": "bool",
              "name": "deleted",
              "type": "bool"
            },
            {
              "internalType": "bool",
              "name": "published",
              "type": "bool"
            },
            {
              "internalType": "uint256",
              "name": "day",
              "type": "uint256"
            }
          ],
          "internalType": "struct DappCinemas.TimeSlotStruct[]",
          "name": "Timelines",
          "type": "tuple[]"
        }
      ],
      "stateMutability": "view",
      "type": "function"
    },
    {
      "inputs": [
        {
          "internalType": "uint256",
          "name": "movieId",
          "type": "uint256"
        },
        {
          "internalType": "uint256",
          "name": "day",
          "type": "uint256"
        }
      ],
      "name": "getTicketHolders",
      "outputs": [
        {
          "components": [
            {
              "internalType": "uint256",
              "name": "id",
              "type": "uint256"
            },
            {
              "internalType": "uint256",
              "name": "movieId",
              "type": "uint256"
            },
            {
              "internalType": "uint256",
              "name": "slotId",
              "type": "uint256"
            },
            {
              "internalType": "address",
              "name": "owner",
              "type": "address"
            },
            {
              "internalType": "uint256",
              "name": "cost",
              "type": "uint256"
            },
            {
              "internalType": "uint256",
              "name": "timestamp",
              "type": "uint256"
            },
            {
              "internalType": "uint256",
              "name": "day",
              "type": "uint256"
            },
            {
              "internalType": "bool",
              "name": "refunded",
              "type": "bool"
            }
          ],
          "internalType": "struct DappCinemas.TicketStruct[]",
          "name": "",
          "type": "tuple[]"
        }
      ],
      "stateMutability": "view",
      "type": "function"
    },
    {
      "inputs": [],
      "name": "owner",
      "outputs": [
        {
          "internalType": "address",
          "name": "",
          "type": "address"
        }
      ],
      "stateMutability": "view",
      "type": "function"
    },
    {
      "inputs": [
        {
          "internalType": "uint256",
          "name": "id",
          "type": "uint256"
        },
        {
          "internalType": "uint256",
          "name": "movieId",
          "type": "uint256"
        },
        {
          "internalType": "uint256",
          "name": "day",
          "type": "uint256"
        }
      ],
      "name": "publishTimeSlot",
      "outputs": [],
      "stateMutability": "nonpayable",
      "type": "function"
    },
    {
      "inputs": [],
      "name": "renounceOwnership",
      "outputs": [],
      "stateMutability": "nonpayable",
      "type": "function"
    },
    {
      "inputs": [],
      "name": "returnOwner",
      "outputs": [
        {
          "internalType": "address",
          "name": "",
          "type": "address"
        }
      ],
      "stateMutability": "view",
      "type": "function"
    },
    {
      "inputs": [
        {
          "internalType": "address",
          "name": "newOwner",
          "type": "address"
        }
      ],
      "name": "transferOwnership",
      "outputs": [],
      "stateMutability": "nonpayable",
      "type": "function"
    },
    {
      "inputs": [
        {
          "internalType": "uint256",
          "name": "id",
          "type": "uint256"
        },
        {
          "internalType": "string",
          "name": "name",
          "type": "string"
        },
        {
          "internalType": "string",
          "name": "imageUrl",
          "type": "string"
        },
        {
          "internalType": "string",
          "name": "genre",
          "type": "string"
        },
        {
          "internalType": "string",
          "name": "description",
          "type": "string"
        }
      ],
      "name": "updateMovie",
      "outputs": [],
      "stateMutability": "nonpayable",
      "type": "function"
    }
  ],
  "bytecode": "0x608060405234801561001057600080fd5b5061001a3361001f565b61006f565b600080546001600160a01b038381166001600160a01b0319831681178455604051919092169283917f8be0079c531659141344cd1fd0a4f28419497f9722a3daafe3b4186f6b6457e09190a35050565b6129c08061007e6000396000f3fe6080604052600436106101145760003560e01c80638da5cb5b116100a0578063c4c6710d11610064578063c4c6710d1461033f578063ec3f15c514610352578063ee79904914610372578063f2fde38b14610392578063fc0b98b1146103b257600080fd5b80638da5cb5b1461028f5780638f70d440146102c157806394a927fe146102e1578063af022025146102ff578063bd4c5d241461031f57600080fd5b80635fe975d8116100e75780635fe975d8146101cb578063608928e1146101f857806365621036146102385780636b4f6cb714610258578063715018a61461027a57600080fd5b8063179ffe761461011957806320ced1051461014f57806323d5bd361461017c5780632c53b406146101a9575b600080fd5b34801561012557600080fd5b5061013961013436600461233c565b6103d2565b6040516101469190612431565b60405180910390f35b34801561015b57600080fd5b5061016f61016a36600461244b565b61066a565b604051610146919061246d565b34801561018857600080fd5b5061019c61019736600461233c565b610738565b6040516101469190612572565b3480156101b557600080fd5b506101be6108dc565b60405161014691906125c1565b3480156101d757600080fd5b506101eb6101e636600461244b565b610c72565b6040516101469190612623565b34801561020457600080fd5b5061022861021336600461233c565b60009081526006602052604090205460ff1690565b6040519015158152602001610146565b34801561024457600080fd5b506101eb61025336600461244b565b610d2c565b34801561026457600080fd5b5061027861027336600461233c565b610d54565b005b34801561028657600080fd5b50610278610e4d565b34801561029b57600080fd5b506000546001600160a01b03165b6040516001600160a01b039091168152602001610146565b3480156102cd57600080fd5b506102786102dc3660046126d5565b610e61565b3480156102ed57600080fd5b506000546001600160a01b03166102a9565b34801561030b57600080fd5b5061027861031a36600461244b565b61111a565b34801561032b57600080fd5b5061027861033a366004612782565b611283565b61027861034d366004612839565b611567565b34801561035e57600080fd5b5061027861036d366004612839565b611902565b34801561037e57600080fd5b5061027861038d366004612865565b611a8c565b34801561039e57600080fd5b506102786103ad3660046128a8565b611db2565b3480156103be57600080fd5b5061019c6103cd36600461233c565b611e2b565b6103da61220d565b600360008381526020019081526020016000206040518060e001604052908160008201548152602001600182018054610412906128d1565b80601f016020809104026020016040519081016040528092919081815260200182805461043e906128d1565b801561048b5780601f106104605761010080835404028352916020019161048b565b820191906000526020600020905b81548152906001019060200180831161046e57829003601f168201915b505050505081526020016002820180546104a4906128d1565b80601f01602080910402602001604051908101604052809291908181526020018280546104d0906128d1565b801561051d5780601f106104f25761010080835404028352916020019161051d565b820191906000526020600020905b81548152906001019060200180831161050057829003601f168201915b50505050508152602001600382018054610536906128d1565b80601f0160208091040260200160405190810160405280929190818152602001828054610562906128d1565b80156105af5780601f10610584576101008083540402835291602001916105af565b820191906000526020600020905b81548152906001019060200180831161059257829003601f168201915b505050505081526020016004820180546105c8906128d1565b80601f01602080910402602001604051908101604052809291908181526020018280546105f4906128d1565b80156106415780601f1061061657610100808354040283529160200191610641565b820191906000526020600020905b81548152906001019060200180831161062457829003601f168201915b50505091835250506005820154602082015260069091015460ff16151560409091015292915050565b60008281526009602090815260408083208484528252808320805482518185028101850190935280835260609492939192909184015b8282101561072b576000848152602090819020604080516101008101825260088602909201805483526001808201548486015260028201549284019290925260038101546001600160a01b0316606084015260048101546080840152600581015460a0840152600681015460c08401526007015460ff16151560e083015290835290920191016106a0565b5050505090505b92915050565b60606000805b600084815260086020526040902054811015610774578161075e81612922565b925050808061076c90612922565b91505061073e565b508067ffffffffffffffff81111561078e5761078e612632565b6040519080825280602002602001820160405280156107c757816020015b6107b461224c565b8152602001906001900390816107ac5790505b5091506000805b6000858152600860205260409020548110156108d45760008581526008602052604081208054839081106108045761080461293d565b600091825260209182902060408051610140810182526009909302909101805483526001810154938301939093526002830154908201526003820154606082015260048201546080820152600582015460a0820152600682015460c0820152600782015460ff808216151560e08401526101009182900416151590820152600890910154610120820152855190915081908690859081106108a7576108a761293d565b602002602001018190525082806108bd90612922565b9350505080806108cc90612922565b9150506107ce565b505050919050565b6060600060015b60015481116109255760008181526003602052604090206006015460ff16610913578161090f81612922565b9250505b8061091d81612922565b9150506108e3565b508067ffffffffffffffff81111561093f5761093f612632565b60405190808252806020026020018201604052801561097857816020015b61096561220d565b81526020019060019003908161095d5790505b509150600060015b6001548111610c6c5760008181526003602052604090206006015460ff16610c5a57600360008281526020019081526020016000206040518060e0016040529081600082015481526020016001820180546109da906128d1565b80601f0160208091040260200160405190810160405280929190818152602001828054610a06906128d1565b8015610a535780601f10610a2857610100808354040283529160200191610a53565b820191906000526020600020905b815481529060010190602001808311610a3657829003601f168201915b50505050508152602001600282018054610a6c906128d1565b80601f0160208091040260200160405190810160405280929190818152602001828054610a98906128d1565b8015610ae55780601f10610aba57610100808354040283529160200191610ae5565b820191906000526020600020905b815481529060010190602001808311610ac857829003601f168201915b50505050508152602001600382018054610afe906128d1565b80601f0160208091040260200160405190810160405280929190818152602001828054610b2a906128d1565b8015610b775780601f10610b4c57610100808354040283529160200191610b77565b820191906000526020600020905b815481529060010190602001808311610b5a57829003601f168201915b50505050508152602001600482018054610b90906128d1565b80601f0160208091040260200160405190810160405280929190818152602001828054610bbc906128d1565b8015610c095780601f10610bde57610100808354040283529160200191610c09565b820191906000526020600020905b815481529060010190602001808311610bec57829003601f168201915b50505091835250506005820154602082015260069091015460ff1615156040909101528451859084908110610c4057610c4061293d565b60200260200101819052508180610c5690612922565b9250505b80610c6481612922565b915050610980565b50505090565b610c7a61224c565b6000838152600860205260409020805483908110610c9a57610c9a61293d565b600091825260209182902060408051610140810182526009909302909101805483526001810154938301939093526002830154908201526003820154606082015260048201546080820152600582015460a0820152600682015460c0820152600782015460ff808216151560e08401526101009182900416151590820152600890910154610120820152905092915050565b610d3461224c565b6000828152600760205260409020805484908110610c9a57610c9a61293d565b610d5c611fc7565b60008181526004602052604090205460ff161515600114610dbb5760405162461bcd60e51b81526020600482015260146024820152736d6f76696520646f65736e27742065786973742160601b60448201526064015b60405180910390fd5b60008181526006602052604090205460ff1615610e1a5760405162461bcd60e51b815260206004820181905260248201527f6d6f76696520616c726561647920686173207469636b657420686f6c646572736044820152606401610db2565b6000908152600360209081526040808320600601805460ff19908116600117909155600490925290912080549091169055565b610e55611fc7565b610e5f6000612021565b565b610e69611fc7565b6000845111610eb05760405162461bcd60e51b8152602060048201526013602482015272135bdd9a59481b985b59481c995c5d5a5c9959606a1b6044820152606401610db2565b6000835111610efc5760405162461bcd60e51b8152602060048201526018602482015277135bdd9a59481a5b5859d9481d5c9b081c995c5d5a5c995960421b6044820152606401610db2565b6000825111610f445760405162461bcd60e51b8152602060048201526014602482015273135bdd9a594819d95b9c99481c995c5d5a5c995960621b6044820152606401610db2565b6000815111610f955760405162461bcd60e51b815260206004820152601a60248201527f4d6f766965206465736372697074696f6e2072657175697265640000000000006044820152606401610db2565b610fa3600180546001019055565b610fab61220d565b600154815260208101859052604081018490526060810183905260808101829052610fd4612071565b60a08201528060036000610fe760015490565b8152602080820192909252604001600020825181558282015180519192611016926001850192909101906122a3565b50604082015180516110329160028401916020909101906122a3565b506060820151805161104e9160038401916020909101906122a3565b506080820151805161106a9160048401916020909101906122a3565b5060a0820151600582015560c0909101516006909101805491151560ff1992831617905560018054600090815260046020908152604091829020805490941690921790925581518181526018918101919091527f4d6f766965206164646564207375636365737366756c6c790000000000000000918101919091527f8b2c14fe955d044ef95ba32b88d2ceb87c6f73fcefdcebe906063a6d75690f27906060015b60405180910390a15050505050565b611122611fc7565b60008281526005602052604090205460ff166111795760405162461bcd60e51b81526020600482015260166024820152751d1a5b595cdb1bdd08191bd95cdb89dd08195e1a5cdd60521b6044820152606401610db2565b600081815260086020526040902080546111b69183918590811061119f5761119f61293d565b90600052602060002090600902016008015461208c565b6000818152600860205260409020805460019190849081106111da576111da61293d565b906000526020600020906009020160070160006101000a81548160ff02191690831515021790555060016007600060086000858152602001908152602001600020858154811061122c5761122c61293d565b9060005260206000209060090201600801548152602001908152602001600020838154811061125d5761125d61293d565b60009182526020909120600990910201600701805460ff19169115159190911790555050565b61128b611fc7565b60008581526004602052604090205460ff1615156001146112e55760405162461bcd60e51b81526020600482015260146024820152736d6f76696520646f65736e27742065786973742160601b6044820152606401610db2565b60008581526006602052604090205460ff16156113445760405162461bcd60e51b815260206004820181905260248201527f6d6f76696520616c726561647920686173207469636b657420686f6c646572736044820152606401610db2565b600084511161138b5760405162461bcd60e51b8152602060048201526013602482015272135bdd9a59481b985b59481c995c5d5a5c9959606a1b6044820152606401610db2565b60008351116113d75760405162461bcd60e51b8152602060048201526018602482015277135bdd9a59481a5b5859d9481d5c9b081c995c5d5a5c995960421b6044820152606401610db2565b600082511161141f5760405162461bcd60e51b8152602060048201526014602482015273135bdd9a594819d95b9c99481c995c5d5a5c995960621b6044820152606401610db2565b60008151116114705760405162461bcd60e51b815260206004820152601a60248201527f4d6f766965206465736372697074696f6e2072657175697265640000000000006044820152606401610db2565b60008581526003602090815260409091208551611495926001909201918701906122a3565b50600085815260036020908152604090912084516114bb926002909201918601906122a3565b50600085815260036020818152604090922084516114e1939190920191908501906122a3565b5060008581526003602090815260409091208251611507926004909201918401906122a3565b507f8b2c14fe955d044ef95ba32b88d2ceb87c6f73fcefdcebe906063a6d75690f2760405161110b906020808252601a908201527f4d6f7669652075706461746564207375636365737366756c6c79000000000000604082015260600190565b60008381526008602052604090208054829081106115875761158761293d565b9060005260206000209060090201600201543410156115de5760405162461bcd60e51b8152602060048201526013602482015272125b9cdd59999a58da595b9d08185b5bdd5b9d606a1b6044820152606401610db2565b60008381526008602052604090208054829081106115fe576115fe61293d565b906000526020600020906009020160070160019054906101000a900460ff166116695760405162461bcd60e51b815260206004820152601760248201527f54696d6520736c6f7420646f65736e27742065786973740000000000000000006044820152606401610db2565b60008381526008602052604090208054829081106116895761168961293d565b9060005260206000209060090201600501546008600085815260200190815260200160002082815481106116bf576116bf61293d565b906000526020600020906009020160060154106117285760405162461bcd60e51b815260206004820152602160248201527f43617061636974792066756c6c2c20626f6f6b20746865206e65787420736c6f6044820152601d60fa1b6064820152608401610db2565b611736600280546001019055565b61178960405180610100016040528060008152602001600081526020016000815260200160006001600160a01b031681526020016000815260200160008152602001600081526020016000151581525090565b60025481526020810184905260c08101839052604081018290523460808201523360608201526117b7612071565b60a082015260008381526007602052604090208054839081106117dc576117dc61293d565b6000918252602082206006600990920201018054916117fa83612922565b9091555050600084815260086020526040902080548390811061181f5761181f61293d565b60009182526020822060066009909202010180549161183d83612922565b909155505060008481526009602090815260408083209583529481528482208054600181810183559184528284208551600890920201908155848301518183015584870151600282015560608501516003820180546001600160a01b039092166001600160a01b03199092169190911790556080850151600482015560a0850151600582015560c085015160068083019190915560e0909501516007909101805491151560ff1992831617905596835292905292909220805490931690911790915550565b61190a611fc7565b60008381526005602052604090205460ff166119615760405162461bcd60e51b81526020600482015260166024820152751d1a5b595cdb1bdd08191bd95cdb89dd08195e1a5cdd60521b6044820152606401610db2565b60008281526008602052604090208054849081106119815761198161293d565b906000526020600020906009020160070160019054906101000a900460ff16156119ed5760405162461bcd60e51b815260206004820152601a60248201527f74696d65736c6f7420616c7265616479207075626c69736865640000000000006044820152606401610db2565b600082815260086020526040902080546001919085908110611a1157611a1161293d565b906000526020600020906009020160070160016101000a81548160ff0219169083151502179055506001600760008381526020019081526020016000208481548110611a5f57611a5f61293d565b906000526020600020906009020160070160016101000a81548160ff021916908315150217905550505050565b611a94611fc7565b60008211611ae45760405162461bcd60e51b815260206004820181905260248201527f4361706163697479206d7573742062652067726561746572207468616e2030216044820152606401610db2565b60008511611b405760405162461bcd60e51b8152602060048201526024808201527f5469636b6574207072696365206d7573742062652067726561746572207468616044820152636e20302160e01b6064820152608401610db2565b611b4861224c565b6007600083815260200190815260200160002080549050816000018181525050868160200181815250508581604001818152505084816060018181525050838160800181815250508181610120018181525050828160a00181815250506001600560006007600086815260200190815260200160002080549050815260200190815260200160002060006101000a81548160ff02191690831515021790555060086000888152602001908152602001600020819080600181540180825580915050600190039060005260206000209060090201600090919091909150600082015181600001556020820151816001015560408201518160020155606082015181600301556080820151816004015560a0820151816005015560c0820151816006015560e08201518160070160006101000a81548160ff0219169083151502179055506101008201518160070160016101000a81548160ff021916908315150217905550610120820151816008015550506007600083815260200190815260200160002060086000898152602001908152602001600020826000015181548110611cf357611cf361293d565b600091825260208083208454600181810187559585529190932060099283029093018054919092029092019182558281015492820192909255600280830154908201556003808301549082015560048083015490820155600580830154908201556006808301549082015560078083018054918301805460ff938416151560ff19821681178355925461010090819004909416151590930261ff001990921661ffff199093169290921717905560089182015491015550505050505050565b611dba611fc7565b6001600160a01b038116611e1f5760405162461bcd60e51b815260206004820152602660248201527f4f776e61626c653a206e6577206f776e657220697320746865207a65726f206160448201526564647265737360d01b6064820152608401610db2565b611e2881612021565b50565b60606000805b600084815260076020526040902054811015611e675781611e5181612922565b9250508080611e5f90612922565b915050611e31565b508067ffffffffffffffff811115611e8157611e81612632565b604051908082528060200260200182016040528015611eba57816020015b611ea761224c565b815260200190600190039081611e9f5790505b5091506000805b6000858152600760205260409020548110156108d4576000858152600760205260408120805483908110611ef757611ef761293d565b600091825260209182902060408051610140810182526009909302909101805483526001810154938301939093526002830154908201526003820154606082015260048201546080820152600582015460a0820152600682015460c0820152600782015460ff808216151560e0840152610100918290041615159082015260089091015461012082015285519091508190869085908110611f9a57611f9a61293d565b60200260200101819052508280611fb090612922565b935050508080611fbf90612922565b915050611ec1565b6000546001600160a01b03163314610e5f5760405162461bcd60e51b815260206004820181905260248201527f4f776e61626c653a2063616c6c6572206973206e6f7420746865206f776e65726044820152606401610db2565b600080546001600160a01b038381166001600160a01b0319831681178455604051919092169283917f8be0079c531659141344cd1fd0a4f28419497f9722a3daafe3b4186f6b6457e09190a35050565b600080612080426103e8612953565b610732906103e8612972565b60005b600083815260096020908152604080832085845290915290205481101561215157600083815260096020908152604080832085845290915281208054839081106120db576120db61293d565b906000526020600020906008020190508381600101541480156121035750600781015460ff16155b1561213e5760078101805460ff191660011790556121216002612156565b6003810154600482015461213e916001600160a01b0316906121ad565b508061214981612922565b91505061208f565b505050565b8054806121a55760405162461bcd60e51b815260206004820152601b60248201527f436f756e7465723a2064656372656d656e74206f766572666c6f7700000000006044820152606401610db2565b600019019055565b6000826001600160a01b03168260405160006040518083038185875af1925050503d80600081146121fa576040519150601f19603f3d011682016040523d82523d6000602084013e6121ff565b606091505b505090508061215157600080fd5b6040518060e001604052806000815260200160608152602001606081526020016060815260200160608152602001600081526020016000151581525090565b60405180610140016040528060008152602001600081526020016000815260200160008152602001600081526020016000815260200160008152602001600015158152602001600015158152602001600081525090565b8280546122af906128d1565b90600052602060002090601f0160209004810192826122d15760008555612317565b82601f106122ea57805160ff1916838001178555612317565b82800160010185558215612317579182015b828111156123175782518255916020019190600101906122fc565b50612323929150612327565b5090565b5b808211156123235760008155600101612328565b60006020828403121561234e57600080fd5b5035919050565b6000815180845260005b8181101561237b5760208185018101518683018201520161235f565b8181111561238d576000602083870101525b50601f01601f19169290920160200192915050565b805182526000602082015160e060208501526123c160e0850182612355565b9050604083015184820360408601526123da8282612355565b915050606083015184820360608601526123f48282612355565b9150506080830151848203608086015261240e8282612355565b91505060a083015160a085015260c0830151151560c08501528091505092915050565b60208152600061244460208301846123a2565b9392505050565b6000806040838503121561245e57600080fd5b50508035926020909101359150565b602080825282518282018190526000919060409081850190868401855b828110156124f857815180518552868101518786015285810151868601526060808201516001600160a01b0316908601526080808201519086015260a0808201519086015260c0808201519086015260e090810151151590850152610100909301929085019060010161248a565b5091979650505050505050565b805182526020810151602083015260408101516040830152606081015160608301526080810151608083015260a081015160a083015260c081015160c083015260e081015161255860e084018215159052565b506101008181015115159083015261012090810151910152565b6020808252825182820181905260009190848201906040850190845b818110156125b5576125a1838551612505565b92840192610140929092019160010161258e565b50909695505050505050565b6000602080830181845280855180835260408601915060408160051b870101925083870160005b8281101561261657603f198886030184526126048583516123a2565b945092850192908501906001016125e8565b5092979650505050505050565b61014081016107328284612505565b634e487b7160e01b600052604160045260246000fd5b600082601f83011261265957600080fd5b813567ffffffffffffffff8082111561267457612674612632565b604051601f8301601f19908116603f0116810190828211818310171561269c5761269c612632565b816040528381528660208588010111156126b557600080fd5b836020870160208301376000602085830101528094505050505092915050565b600080600080608085870312156126eb57600080fd5b843567ffffffffffffffff8082111561270357600080fd5b61270f88838901612648565b9550602087013591508082111561272557600080fd5b61273188838901612648565b9450604087013591508082111561274757600080fd5b61275388838901612648565b9350606087013591508082111561276957600080fd5b5061277687828801612648565b91505092959194509250565b600080600080600060a0868803121561279a57600080fd5b85359450602086013567ffffffffffffffff808211156127b957600080fd5b6127c589838a01612648565b955060408801359150808211156127db57600080fd5b6127e789838a01612648565b945060608801359150808211156127fd57600080fd5b61280989838a01612648565b9350608088013591508082111561281f57600080fd5b5061282c88828901612648565b9150509295509295909350565b60008060006060848603121561284e57600080fd5b505081359360208301359350604090920135919050565b60008060008060008060c0878903121561287e57600080fd5b505084359660208601359650604086013595606081013595506080810135945060a0013592509050565b6000602082840312156128ba57600080fd5b81356001600160a01b038116811461244457600080fd5b600181811c908216806128e557607f821691505b6020821081141561290657634e487b7160e01b600052602260045260246000fd5b50919050565b634e487b7160e01b600052601160045260246000fd5b60006000198214156129365761293661290c565b5060010190565b634e487b7160e01b600052603260045260246000fd5b600081600019048311821515161561296d5761296d61290c565b500290565b600082198211156129855761298561290c565b50019056fea2646970667358221220c2509b0ba4c150f7cd2dac81e2f7a06565d2e52031efd3855eef9bc5f52f90b764736f6c634300080b0033",
  "linkReferences": {},
  "deployedLinkReferences": {}
}