{
  "_format": "hh-sol-artifact-1",
  "contractName": "DappCinemas",
  "sourceName": "src/contracts/DappCinemas.sol",
  "abi": [
    {
      "anonymous": false,
      "inputs": [
        {
          "indexed": false,
          "internalType": "string",
          "name": "actionType",
          "type": "string"
        }
      ],
      "name": "Action",
      "type": "event"
    },
    {
      "anonymous": false,
      "inputs": [
        {
          "indexed": true,
          "internalType": "address",
          "name": "previousOwner",
          "type": "address"
        },
        {
          "indexed": true,
          "internalType": "address",
          "name": "newOwner",
          "type": "address"
        }
      ],
      "name": "OwnershipTransferred",
      "type": "event"
    },
    {
      "inputs": [
        {
          "internalType": "string",
          "name": "name",
          "type": "string"
        },
        {
          "internalType": "string",
          "name": "imageUrl",
          "type": "string"
        },
        {
          "internalType": "string",
          "name": "genre",
          "type": "string"
        },
        {
          "internalType": "string",
          "name": "description",
          "type": "string"
        }
      ],
      "name": "addMovie",
      "outputs": [],
      "stateMutability": "nonpayable",
      "type": "function"
    },
    {
      "inputs": [
        {
          "internalType": "uint256",
          "name": "movieId",
          "type": "uint256"
        },
        {
          "internalType": "uint256[]",
          "name": "ticketCosts",
          "type": "uint256[]"
        },
        {
          "internalType": "uint256[]",
          "name": "startTimes",
          "type": "uint256[]"
        },
        {
          "internalType": "uint256[]",
          "name": "endTimes",
          "type": "uint256[]"
        },
        {
          "internalType": "uint256[]",
          "name": "capacities",
          "type": "uint256[]"
        },
        {
          "internalType": "uint256[]",
          "name": "viewingDays",
          "type": "uint256[]"
        }
      ],
      "name": "addTimeslot",
      "outputs": [],
      "stateMutability": "nonpayable",
      "type": "function"
    },
    {
      "inputs": [],
      "name": "balance",
      "outputs": [
        {
          "internalType": "uint256",
          "name": "",
          "type": "uint256"
        }
      ],
      "stateMutability": "view",
      "type": "function"
    },
    {
      "inputs": [
        {
          "internalType": "uint256",
          "name": "movieId",
          "type": "uint256"
        },
        {
          "internalType": "uint256",
          "name": "slotId",
          "type": "uint256"
        },
        {
          "internalType": "uint256",
          "name": "tickets",
          "type": "uint256"
        }
      ],
      "name": "buyTicket",
      "outputs": [],
      "stateMutability": "payable",
      "type": "function"
    },
    {
      "inputs": [
        {
          "internalType": "uint256",
          "name": "movieId",
          "type": "uint256"
        }
      ],
      "name": "deleteMovie",
      "outputs": [],
      "stateMutability": "nonpayable",
      "type": "function"
    },
    {
      "inputs": [
        {
          "internalType": "uint256",
          "name": "movieId",
          "type": "uint256"
        },
        {
          "internalType": "uint256",
          "name": "slotId",
          "type": "uint256"
        }
      ],
      "name": "deleteTimeSlot",
      "outputs": [],
      "stateMutability": "nonpayable",
      "type": "function"
    },
    {
      "inputs": [
        {
          "internalType": "uint256",
          "name": "id",
          "type": "uint256"
        }
      ],
      "name": "getMovie",
      "outputs": [
        {
          "components": [
            {
              "internalType": "uint256",
              "name": "id",
              "type": "uint256"
            },
            {
              "internalType": "string",
              "name": "name",
              "type": "string"
            },
            {
              "internalType": "string",
              "name": "imageUrl",
              "type": "string"
            },
            {
              "internalType": "string",
              "name": "genre",
              "type": "string"
            },
            {
              "internalType": "string",
              "name": "description",
              "type": "string"
            },
            {
              "internalType": "uint256",
              "name": "timestamp",
              "type": "uint256"
            },
            {
              "internalType": "bool",
              "name": "deleted",
              "type": "bool"
            }
          ],
          "internalType": "struct DappCinemas.MovieStruct",
          "name": "",
          "type": "tuple"
        }
      ],
      "stateMutability": "view",
      "type": "function"
    },
    {
      "inputs": [
        {
          "internalType": "uint256",
          "name": "movieId",
          "type": "uint256"
        },
        {
          "internalType": "uint256",
          "name": "slotId",
          "type": "uint256"
        }
      ],
      "name": "getMovieTicketHolders",
      "outputs": [
        {
          "internalType": "address[]",
          "name": "",
          "type": "address[]"
        }
      ],
      "stateMutability": "view",
      "type": "function"
    },
    {
      "inputs": [
        {
          "internalType": "uint256",
          "name": "movieId",
          "type": "uint256"
        }
      ],
      "name": "getMovieTimeSlots",
      "outputs": [
        {
          "internalType": "uint256[]",
          "name": "MovieSlots",
          "type": "uint256[]"
        }
      ],
      "stateMutability": "view",
      "type": "function"
    },
    {
      "inputs": [],
      "name": "getMovies",
      "outputs": [
        {
          "components": [
            {
              "internalType": "uint256",
              "name": "id",
              "type": "uint256"
            },
            {
              "internalType": "string",
              "name": "name",
              "type": "string"
            },
            {
              "internalType": "string",
              "name": "imageUrl",
              "type": "string"
            },
            {
              "internalType": "string",
              "name": "genre",
              "type": "string"
            },
            {
              "internalType": "string",
              "name": "description",
              "type": "string"
            },
            {
              "internalType": "uint256",
              "name": "timestamp",
              "type": "uint256"
            },
            {
              "internalType": "bool",
              "name": "deleted",
              "type": "bool"
            }
          ],
          "internalType": "struct DappCinemas.MovieStruct[]",
          "name": "Movies",
          "type": "tuple[]"
        }
      ],
      "stateMutability": "view",
      "type": "function"
    },
    {
      "inputs": [
        {
          "internalType": "uint256",
          "name": "slotId",
          "type": "uint256"
        }
      ],
      "name": "getTimeSlot",
      "outputs": [
        {
          "components": [
            {
              "internalType": "uint256",
              "name": "id",
              "type": "uint256"
            },
            {
              "internalType": "uint256",
              "name": "movieId",
              "type": "uint256"
            },
            {
              "internalType": "uint256",
              "name": "ticketCost",
              "type": "uint256"
            },
            {
              "internalType": "uint256",
              "name": "startTime",
              "type": "uint256"
            },
            {
              "internalType": "uint256",
              "name": "endTime",
              "type": "uint256"
            },
            {
              "internalType": "uint256",
              "name": "capacity",
              "type": "uint256"
            },
            {
              "internalType": "uint256",
              "name": "seats",
              "type": "uint256"
            },
            {
              "internalType": "bool",
              "name": "deleted",
              "type": "bool"
            },
            {
              "internalType": "bool",
              "name": "completed",
              "type": "bool"
            },
            {
              "internalType": "uint256",
              "name": "day",
              "type": "uint256"
            },
            {
              "internalType": "uint256",
              "name": "balance",
              "type": "uint256"
            }
          ],
          "internalType": "struct DappCinemas.TimeSlotStruct",
          "name": "",
          "type": "tuple"
        }
      ],
      "stateMutability": "view",
      "type": "function"
    },
    {
      "inputs": [
        {
          "internalType": "uint256",
          "name": "movieId",
          "type": "uint256"
        }
      ],
      "name": "getTimeSlots",
      "outputs": [
        {
          "components": [
            {
              "internalType": "uint256",
              "name": "id",
              "type": "uint256"
            },
            {
              "internalType": "uint256",
              "name": "movieId",
              "type": "uint256"
            },
            {
              "internalType": "uint256",
              "name": "ticketCost",
              "type": "uint256"
            },
            {
              "internalType": "uint256",
              "name": "startTime",
              "type": "uint256"
            },
            {
              "internalType": "uint256",
              "name": "endTime",
              "type": "uint256"
            },
            {
              "internalType": "uint256",
              "name": "capacity",
              "type": "uint256"
            },
            {
              "internalType": "uint256",
              "name": "seats",
              "type": "uint256"
            },
            {
              "internalType": "bool",
              "name": "deleted",
              "type": "bool"
            },
            {
              "internalType": "bool",
              "name": "completed",
              "type": "bool"
            },
            {
              "internalType": "uint256",
              "name": "day",
              "type": "uint256"
            },
            {
              "internalType": "uint256",
              "name": "balance",
              "type": "uint256"
            }
          ],
          "internalType": "struct DappCinemas.TimeSlotStruct[]",
          "name": "MovieSlots",
          "type": "tuple[]"
        }
      ],
      "stateMutability": "view",
      "type": "function"
    },
    {
      "inputs": [
        {
          "internalType": "uint256",
          "name": "movieId",
          "type": "uint256"
        },
        {
          "internalType": "uint256",
          "name": "slotId",
          "type": "uint256"
        }
      ],
      "name": "markTimeSlot",
      "outputs": [],
      "stateMutability": "nonpayable",
      "type": "function"
    },
    {
      "inputs": [],
      "name": "owner",
      "outputs": [
        {
          "internalType": "address",
          "name": "",
          "type": "address"
        }
      ],
      "stateMutability": "view",
      "type": "function"
    },
    {
      "inputs": [],
      "name": "renounceOwnership",
      "outputs": [],
      "stateMutability": "nonpayable",
      "type": "function"
    },
    {
      "inputs": [
        {
          "internalType": "address",
          "name": "newOwner",
          "type": "address"
        }
      ],
      "name": "transferOwnership",
      "outputs": [],
      "stateMutability": "nonpayable",
      "type": "function"
    },
    {
      "inputs": [
        {
          "internalType": "uint256",
          "name": "movieId",
          "type": "uint256"
        },
        {
          "internalType": "string",
          "name": "name",
          "type": "string"
        },
        {
          "internalType": "string",
          "name": "imageUrl",
          "type": "string"
        },
        {
          "internalType": "string",
          "name": "genre",
          "type": "string"
        },
        {
          "internalType": "string",
          "name": "description",
          "type": "string"
        }
      ],
      "name": "updateMovie",
      "outputs": [],
      "stateMutability": "nonpayable",
      "type": "function"
    },
    {
      "inputs": [
        {
          "internalType": "address",
          "name": "to",
          "type": "address"
        },
        {
          "internalType": "uint256",
          "name": "amount",
          "type": "uint256"
        }
      ],
      "name": "withdrawTo",
      "outputs": [],
      "stateMutability": "nonpayable",
      "type": "function"
    }
  ],
  "bytecode": "0x608060405234801561001057600080fd5b5061001a3361001f565b61006f565b600080546001600160a01b038381166001600160a01b0319831681178455604051919092169283917f8be0079c531659141344cd1fd0a4f28419497f9722a3daafe3b4186f6b6457e09190a35050565b612b06806200007f6000396000f3fe6080604052600436106101095760003560e01c806377340bba11610095578063af875f3511610064578063af875f35146102ec578063b69ef8a814610319578063bd4c5d241461033d578063c4c6710d1461035d578063f2fde38b1461037057600080fd5b806377340bba146102575780637cd35a0a146102775780638da5cb5b146102a45780638f70d440146102cc57600080fd5b80632e130aca116100dc5780632e130aca146101b557806345e9a8fc146101e257806358a9525b146102025780636b4f6cb714610222578063715018a61461024257600080fd5b8063179ffe761461010e578063205c2878146101445780632b85dcc9146101665780632c53b40614610193575b600080fd5b34801561011a57600080fd5b5061012e6101293660046122f3565b610390565b60405161013b91906123e8565b60405180910390f35b34801561015057600080fd5b5061016461015f36600461241e565b610628565b005b34801561017257600080fd5b506101866101813660046122f3565b6106a1565b60405161013b91906124c0565b34801561019f57600080fd5b506101a8610741565b60405161013b91906124cf565b3480156101c157600080fd5b506101d56101d03660046122f3565b610ad9565b60405161013b9190612531565b3480156101ee57600080fd5b506101646101fd366004612575565b610cc5565b34801561020e57600080fd5b5061016461021d366004612575565b610dc6565b34801561022e57600080fd5b5061016461023d3660046122f3565b610f99565b34801561024e57600080fd5b5061016461111b565b34801561026357600080fd5b5061016461027236600461265e565b61112f565b34801561028357600080fd5b506102976102923660046122f3565b61152d565b60405161013b9190612738565b3480156102b057600080fd5b506000546040516001600160a01b03909116815260200161013b565b3480156102d857600080fd5b506101646102e73660046127eb565b61174d565b3480156102f857600080fd5b5061030c610307366004612575565b611a00565b60405161013b9190612898565b34801561032557600080fd5b5061032f60045481565b60405190815260200161013b565b34801561034957600080fd5b506101646103583660046128d9565b611a76565b61016461036b366004612990565b611d96565b34801561037c57600080fd5b5061016461038b3660046129bc565b611ffc565b61039861219f565b600660008381526020019081526020016000206040518060e0016040529081600082015481526020016001820180546103d0906129d7565b80601f01602080910402602001604051908101604052809291908181526020018280546103fc906129d7565b80156104495780601f1061041e57610100808354040283529160200191610449565b820191906000526020600020905b81548152906001019060200180831161042c57829003601f168201915b50505050508152602001600282018054610462906129d7565b80601f016020809104026020016040519081016040528092919081815260200182805461048e906129d7565b80156104db5780601f106104b0576101008083540402835291602001916104db565b820191906000526020600020905b8154815290600101906020018083116104be57829003601f168201915b505050505081526020016003820180546104f4906129d7565b80601f0160208091040260200160405190810160405280929190818152602001828054610520906129d7565b801561056d5780601f106105425761010080835404028352916020019161056d565b820191906000526020600020905b81548152906001019060200180831161055057829003601f168201915b50505050508152602001600482018054610586906129d7565b80601f01602080910402602001604051908101604052809291908181526020018280546105b2906129d7565b80156105ff5780601f106105d4576101008083540402835291602001916105ff565b820191906000526020600020905b8154815290600101906020018083116105e257829003601f168201915b50505091835250506005820154602082015260069091015460ff16151560409091015292915050565b610630612075565b80600454101561067b5760405162461bcd60e51b8152602060048201526011602482015270125b9cdd59999a58da595b9d08199d5b99607a1b60448201526064015b60405180910390fd5b806004600082825461068d9190612a28565b9091555061069d905082826120cf565b5050565b6106a96121de565b50600090815260076020818152604092839020835161016081018552815481526001820154928101929092526002810154938201939093526003830154606082015260048301546080820152600583015460a0820152600683015460c08201529082015460ff808216151560e08401526101009182900416151590820152600882015461012082015260099091015461014082015290565b6060600060015b600154811161078b576000818152600660208190526040909120015460ff16610779578161077581612a3f565b9250505b8061078381612a3f565b915050610748565b508067ffffffffffffffff8111156107a5576107a5612597565b6040519080825280602002602001820160405280156107de57816020015b6107cb61219f565b8152602001906001900390816107c35790505b509150600060015b6001548111610ad3576000818152600660208190526040909120015460ff16610ac157600660008281526020019081526020016000206040518060e001604052908160008201548152602001600182018054610841906129d7565b80601f016020809104026020016040519081016040528092919081815260200182805461086d906129d7565b80156108ba5780601f1061088f576101008083540402835291602001916108ba565b820191906000526020600020905b81548152906001019060200180831161089d57829003601f168201915b505050505081526020016002820180546108d3906129d7565b80601f01602080910402602001604051908101604052809291908181526020018280546108ff906129d7565b801561094c5780601f106109215761010080835404028352916020019161094c565b820191906000526020600020905b81548152906001019060200180831161092f57829003601f168201915b50505050508152602001600382018054610965906129d7565b80601f0160208091040260200160405190810160405280929190818152602001828054610991906129d7565b80156109de5780601f106109b3576101008083540402835291602001916109de565b820191906000526020600020905b8154815290600101906020018083116109c157829003601f168201915b505050505081526020016004820180546109f7906129d7565b80601f0160208091040260200160405190810160405280929190818152602001828054610a23906129d7565b8015610a705780601f10610a4557610100808354040283529160200191610a70565b820191906000526020600020905b815481529060010190602001808311610a5357829003601f168201915b50505091835250506005820154602082015260069091015460ff1615156040909101528451859084908110610aa757610aa7612a5a565b60200260200101819052508180610abd90612a3f565b9250505b80610acb81612a3f565b9150506107e6565b50505090565b60606000805b600354811015610b60578360076000610af9846001612a70565b815260200190815260200160002060010154148015610b3b575060076000610b22836001612a70565b815260208101919091526040016000206007015460ff16155b15610b4e5781610b4a81612a3f565b9250505b80610b5881612a3f565b915050610adf565b50610b6c816002612a88565b67ffffffffffffffff811115610b8457610b84612597565b604051908082528060200260200182016040528015610bad578160200160208202803683370190505b5091506000805b600354811015610cbd578460076000610bce846001612a70565b815260200190815260200160002060010154148015610c10575060076000610bf7836001612a70565b815260208101919091526040016000206007015460ff16155b15610cab5760076000610c24836001612a70565b815260200190815260200160002060030154848380610c4290612a3f565b945081518110610c5457610c54612a5a565b602090810291909101015260076000610c6e836001612a70565b815260200190815260200160002060040154848380610c8c90612a3f565b945081518110610c9e57610c9e612a5a565b6020026020010181815250505b80610cb581612a3f565b915050610bb4565b505050919050565b610ccd612075565b60008281526005602052604090205460ff168015610cfb575060008181526007602052604090206001015482145b610d175760405162461bcd60e51b815260040161067290612aa7565b6000818152600760208190526040909120015460ff1615610d755760405162461bcd60e51b8152602060048201526018602482015277151a5b595cdb1bdd08185b1c9958591e4819195b195d195960421b6044820152606401610672565b60008181526007602081905260408220908101805461ff001916610100179055600901546004805491929091610dac908490612a70565b909155505060009081526007602052604081206009015550565b610dce612075565b60008281526005602052604090205460ff168015610dfc575060008181526007602052604090206001015482145b610e185760405162461bcd60e51b815260040161067290612aa7565b6000818152600760208190526040909120015460ff1615610e765760405162461bcd60e51b8152602060048201526018602482015277151a5b595cdb1bdd08185b1c9958591e4819195b195d195960421b6044820152606401610672565b60005b6000838152600860209081526040808320858452909152902054811015610f0c57600083815260086020908152604080832085845290915290208054610efa919083908110610eca57610eca612a5a565b600091825260208083209091015485835260079091526040909120600201546001600160a01b03909116906120cf565b80610f0481612a3f565b915050610e79565b506000818152600760208181526040808420808401805460ff19166001179055868552600883528185208686528352932054919052600290910154610f519190612a88565b60008281526007602052604081206009018054909190610f72908490612a28565b90915550506000828152600860209081526040808320848452909152812061069d9161223c565b610fa1612075565b60008181526005602052604090205460ff16610ff65760405162461bcd60e51b81526020600482015260146024820152734d6f76696520646f65736e27742065786973742160601b6044820152606401610672565b60015b60035481116110e857600082815260086020908152604080832084845282528083208054825181850281018501909352808352919290919083018282801561106a57602002820191906000526020600020905b81546001600160a01b0316815260019091019060200180831161104c575b5050505050905080516000146110d55760405162461bcd60e51b815260206004820152602a60248201527f43616e6e6f742064656c657465206d6f766965207769746820707572636861736044820152696564207469636b65747360b01b6064820152608401610672565b50806110e081612a3f565b915050610ff9565b506000908152600660208181526040808420909201805460ff199081166001179091556005909152912080549091169055565b611123612075565b61112d6000612134565b565b611137612075565b60008681526005602052604090205460ff166111655760405162461bcd60e51b815260040161067290612aa7565b60008551116111b65760405162461bcd60e51b815260206004820152601e60248201527f5469636b65747320636f7374206d757374206e6f7420626520656d70747900006044820152606401610672565b60008251116112075760405162461bcd60e51b815260206004820152601c60248201527f43617061636974696573206d757374206e6f7420626520656d707479000000006044820152606401610672565b60008451116112635760405162461bcd60e51b815260206004820152602260248201527f53746172742074696d657320636f7374206d757374206e6f7420626520656d70604482015261747960f01b6064820152608401610672565b60008351116112b45760405162461bcd60e51b815260206004820181905260248201527f456e642074696d657320636f7374206d757374206e6f7420626520656d7074796044820152606401610672565b60008151116113055760405162461bcd60e51b815260206004820152601e60248201527f56696577696e672064617973206d757374206e6f7420626520656d70747900006044820152606401610672565b80518551148015611317575081518151145b8015611324575083518251145b8015611331575082518451145b801561133e575080518351145b61139e5760405162461bcd60e51b815260206004820152602b60248201527f416c6c20706172616d6574657273206d757374206861766520657175616c206160448201526a0e4e4c2f240d8cadccee8d60ab1b6064820152608401610672565b60005b8151811015611524576113b8600380546001019055565b6113c06121de565b60035481526020810188905286518790839081106113e0576113e0612a5a565b602002602001015181604001818152505085828151811061140357611403612a5a565b602002602001015181606001818152505084828151811061142657611426612a5a565b602002602001015181608001818152505082828151811061144957611449612a5a565b60200260200101518161012001818152505083828151811061146d5761146d612a5a565b60209081029190910181015160a083019081528251600090815260078084526040918290208551815593850151600185015590840151600284015560608401516003840155608084015160048401559051600583015560c0830151600683015560e083015190820180546101008086015115150261ff00199315159390931661ffff19909116179190911790556101208201516008820155610140909101516009909101558061151c81612a3f565b9150506113a1565b50505050505050565b60606000805b6003548110156115b457836007600061154d846001612a70565b81526020019081526020016000206001015414801561158f575060076000611576836001612a70565b815260208101919091526040016000206007015460ff16155b156115a2578161159e81612a3f565b9250505b806115ac81612a3f565b915050611533565b508067ffffffffffffffff8111156115ce576115ce612597565b60405190808252806020026020018201604052801561160757816020015b6115f46121de565b8152602001906001900390816115ec5790505b5091506000805b600354811015610cbd578460076000611628846001612a70565b81526020019081526020016000206001015414801561166a575060076000611651836001612a70565b815260208101919091526040016000206007015460ff16155b1561173b576007600061167e836001612a70565b81526020808201929092526040908101600020815161016081018352815481526001820154938101939093526002810154918301919091526003810154606083015260048101546080830152600581015460a0830152600681015460c0830152600781015460ff808216151560e08501526101009182900416151590830152600881015461012083015260090154610140820152848361171d81612a3f565b94508151811061172f5761172f612a5a565b60200260200101819052505b8061174581612a3f565b91505061160e565b611755612075565b600084511161179c5760405162461bcd60e51b8152602060048201526013602482015272135bdd9a59481b985b59481c995c5d5a5c9959606a1b6044820152606401610672565b60008351116117ed5760405162461bcd60e51b815260206004820152601860248201527f4d6f76696520696d6167652075726c20726571756972656400000000000000006044820152606401610672565b60008251116118355760405162461bcd60e51b8152602060048201526014602482015273135bdd9a594819d95b9c99481c995c5d5a5c995960621b6044820152606401610672565b60008151116118865760405162461bcd60e51b815260206004820152601a60248201527f4d6f766965206465736372697074696f6e2072657175697265640000000000006044820152606401610672565b611894600180546001019055565b61189c61219f565b6001548152602081018590526040810184905260608101839052608081018290526118c5612184565b60a0820152805160009081526006602090815260409091208251815581830151805184936118fa92600185019291019061225a565b506040820151805161191691600284019160209091019061225a565b506060820151805161193291600384019160209091019061225a565b506080820151805161194e91600484019160209091019061225a565b5060a082015160058083019190915560c0909201516006909101805491151560ff199283161790558251600090815260209290925260409182902080549091166001179055517f8b2c14fe955d044ef95ba32b88d2ceb87c6f73fcefdcebe906063a6d75690f27906119f19060208082526018908201527f4d6f766965206164646564207375636365737366756c6c790000000000000000604082015260600190565b60405180910390a15050505050565b6000828152600860209081526040808320848452825291829020805483518184028101840190945280845260609392830182828015611a6857602002820191906000526020600020905b81546001600160a01b03168152600190910190602001808311611a4a575b505050505090505b92915050565b611a7e612075565b60008581526005602052604090205460ff16611ad35760405162461bcd60e51b81526020600482015260146024820152734d6f76696520646f65736e27742065786973742160601b6044820152606401610672565b6000845111611b1a5760405162461bcd60e51b8152602060048201526013602482015272135bdd9a59481b985b59481c995c5d5a5c9959606a1b6044820152606401610672565b6000835111611b6b5760405162461bcd60e51b815260206004820152601860248201527f4d6f76696520696d6167652055524c20726571756972656400000000000000006044820152606401610672565b6000825111611bb35760405162461bcd60e51b8152602060048201526014602482015273135bdd9a594819d95b9c99481c995c5d5a5c995960621b6044820152606401610672565b6000815111611c045760405162461bcd60e51b815260206004820152601a60248201527f4d6f766965206465736372697074696f6e2072657175697265640000000000006044820152606401610672565b60015b6003548111611c9e5760008681526008602090815260408083208484529091529020805415611c8b5760405162461bcd60e51b815260206004820152602a60248201527f43616e6e6f7420757064617465206d6f766965207769746820707572636861736044820152696564207469636b65747360b01b6064820152608401610672565b5080611c9681612a3f565b915050611c07565b5060008581526006602090815260409091208551611cc49260019092019187019061225a565b5060008581526006602090815260409091208451611cea9260029092019186019061225a565b5060008581526006602090815260409091208351611d109260039092019185019061225a565b5060008581526006602090815260409091208251611d369260049092019184019061225a565b507f8b2c14fe955d044ef95ba32b88d2ceb87c6f73fcefdcebe906063a6d75690f276040516119f1906020808252601a908201527f4d6f7669652075706461746564207375636365737366756c6c79000000000000604082015260600190565b60008381526005602052604090205460ff168015611dc4575060008281526007602052604090206001015483145b611de05760405162461bcd60e51b815260040161067290612aa7565b600082815260076020526040902060020154611dfd908290612a88565b341015611e425760405162461bcd60e51b8152602060048201526013602482015272125b9cdd59999a58da595b9d08185b5bdd5b9d606a1b6044820152606401610672565b6000828152600760205260409020600681015460059091015411611e9a5760405162461bcd60e51b815260206004820152600f60248201526e4f7574206f6620636170616369747960881b6044820152606401610672565b60005b81811015611f8d57611eb3600280546001019055565b611efc6040518060e0016040528060008152602001600081526020016000815260200160006001600160a01b031681526020016000815260200160008152602001600081525090565b6002805482526000858152600760208181526040808420948501546080870152928890525260089091015460c08301528101849052336060820152611f3f612184565b60a090910152600084815260086020908152604080832086845282528220805460018101825590835291200180546001600160a01b0319163317905580611f8581612a3f565b915050611e9d565b5060008281526007602052604081206006018054839290611faf908490612a70565b9091555050600082815260076020526040902060020154611fd1908290612a88565b60008381526007602052604081206009018054909190611ff2908490612a70565b9091555050505050565b612004612075565b6001600160a01b0381166120695760405162461bcd60e51b815260206004820152602660248201527f4f776e61626c653a206e6577206f776e657220697320746865207a65726f206160448201526564647265737360d01b6064820152608401610672565b61207281612134565b50565b6000546001600160a01b0316331461112d5760405162461bcd60e51b815260206004820181905260248201527f4f776e61626c653a2063616c6c6572206973206e6f7420746865206f776e65726044820152606401610672565b6000826001600160a01b03168260405160006040518083038185875af1925050503d806000811461211c576040519150601f19603f3d011682016040523d82523d6000602084013e612121565b606091505b505090508061212f57600080fd5b505050565b600080546001600160a01b038381166001600160a01b0319831681178455604051919092169283917f8be0079c531659141344cd1fd0a4f28419497f9722a3daafe3b4186f6b6457e09190a35050565b600080612193426103e8612a88565b611a70906103e8612a70565b6040518060e001604052806000815260200160608152602001606081526020016060815260200160608152602001600081526020016000151581525090565b6040518061016001604052806000815260200160008152602001600081526020016000815260200160008152602001600081526020016000815260200160001515815260200160001515815260200160008152602001600081525090565b508054600082559060005260206000209081019061207291906122de565b828054612266906129d7565b90600052602060002090601f01602090048101928261228857600085556122ce565b82601f106122a157805160ff19168380011785556122ce565b828001600101855582156122ce579182015b828111156122ce5782518255916020019190600101906122b3565b506122da9291506122de565b5090565b5b808211156122da57600081556001016122df565b60006020828403121561230557600080fd5b5035919050565b6000815180845260005b8181101561233257602081850181015186830182015201612316565b81811115612344576000602083870101525b50601f01601f19169290920160200192915050565b805182526000602082015160e0602085015261237860e085018261230c565b905060408301518482036040860152612391828261230c565b915050606083015184820360608601526123ab828261230c565b915050608083015184820360808601526123c5828261230c565b91505060a083015160a085015260c0830151151560c08501528091505092915050565b6020815260006123fb6020830184612359565b9392505050565b80356001600160a01b038116811461241957600080fd5b919050565b6000806040838503121561243157600080fd5b61243a83612402565b946020939093013593505050565b805182526020810151602083015260408101516040830152606081015160608301526080810151608083015260a081015160a083015260c081015160c083015260e081015161249b60e084018215159052565b5061010081810151151590830152610120808201519083015261014090810151910152565b6101608101611a708284612448565b6000602080830181845280855180835260408601915060408160051b870101925083870160005b8281101561252457603f19888603018452612512858351612359565b945092850192908501906001016124f6565b5092979650505050505050565b6020808252825182820181905260009190848201906040850190845b818110156125695783518352928401929184019160010161254d565b50909695505050505050565b6000806040838503121561258857600080fd5b50508035926020909101359150565b634e487b7160e01b600052604160045260246000fd5b604051601f8201601f1916810167ffffffffffffffff811182821017156125d6576125d6612597565b604052919050565b600082601f8301126125ef57600080fd5b8135602067ffffffffffffffff82111561260b5761260b612597565b8160051b61261a8282016125ad565b928352848101820192828101908785111561263457600080fd5b83870192505b848310156126535782358252918301919083019061263a565b979650505050505050565b60008060008060008060c0878903121561267757600080fd5b86359550602087013567ffffffffffffffff8082111561269657600080fd5b6126a28a838b016125de565b965060408901359150808211156126b857600080fd5b6126c48a838b016125de565b955060608901359150808211156126da57600080fd5b6126e68a838b016125de565b945060808901359150808211156126fc57600080fd5b6127088a838b016125de565b935060a089013591508082111561271e57600080fd5b5061272b89828a016125de565b9150509295509295509295565b6020808252825182820181905260009190848201906040850190845b8181101561256957612767838551612448565b928401926101609290920191600101612754565b600082601f83011261278c57600080fd5b813567ffffffffffffffff8111156127a6576127a6612597565b6127b9601f8201601f19166020016125ad565b8181528460208386010111156127ce57600080fd5b816020850160208301376000918101602001919091529392505050565b6000806000806080858703121561280157600080fd5b843567ffffffffffffffff8082111561281957600080fd5b6128258883890161277b565b9550602087013591508082111561283b57600080fd5b6128478883890161277b565b9450604087013591508082111561285d57600080fd5b6128698883890161277b565b9350606087013591508082111561287f57600080fd5b5061288c8782880161277b565b91505092959194509250565b6020808252825182820181905260009190848201906040850190845b818110156125695783516001600160a01b0316835292840192918401916001016128b4565b600080600080600060a086880312156128f157600080fd5b85359450602086013567ffffffffffffffff8082111561291057600080fd5b61291c89838a0161277b565b9550604088013591508082111561293257600080fd5b61293e89838a0161277b565b9450606088013591508082111561295457600080fd5b61296089838a0161277b565b9350608088013591508082111561297657600080fd5b506129838882890161277b565b9150509295509295909350565b6000806000606084860312156129a557600080fd5b505081359360208301359350604090920135919050565b6000602082840312156129ce57600080fd5b6123fb82612402565b600181811c908216806129eb57607f821691505b60208210811415612a0c57634e487b7160e01b600052602260045260246000fd5b50919050565b634e487b7160e01b600052601160045260246000fd5b600082821015612a3a57612a3a612a12565b500390565b6000600019821415612a5357612a53612a12565b5060010190565b634e487b7160e01b600052603260045260246000fd5b60008219821115612a8357612a83612a12565b500190565b6000816000190483118215151615612aa257612aa2612a12565b500290565b6020808252600f908201526e135bdd9a59481b9bdd08199bdd5b99608a1b60408201526060019056fea26469706673582212200d820a8618d541b8907b5c094a8a882a1a593bac9ca6cfdf31a527548066687464736f6c634300080b0033",
  "linkReferences": {},
  "deployedLinkReferences": {}
}