{
  "_format": "hh-sol-artifact-1",
  "contractName": "DappCinemas",
  "sourceName": "src/contracts/DappCinemas.sol",
  "abi": [
    {
      "anonymous": false,
      "inputs": [
        {
          "indexed": false,
          "internalType": "string",
          "name": "actionType",
          "type": "string"
        }
      ],
      "name": "Action",
      "type": "event"
    },
    {
      "anonymous": false,
      "inputs": [
        {
          "indexed": true,
          "internalType": "address",
          "name": "previousOwner",
          "type": "address"
        },
        {
          "indexed": true,
          "internalType": "address",
          "name": "newOwner",
          "type": "address"
        }
      ],
      "name": "OwnershipTransferred",
      "type": "event"
    },
    {
      "inputs": [
        {
          "internalType": "string",
          "name": "name",
          "type": "string"
        },
        {
          "internalType": "string",
          "name": "imageUrl",
          "type": "string"
        },
        {
          "internalType": "string",
          "name": "genre",
          "type": "string"
        },
        {
          "internalType": "string",
          "name": "description",
          "type": "string"
        }
      ],
      "name": "addMovie",
      "outputs": [],
      "stateMutability": "nonpayable",
      "type": "function"
    },
    {
      "inputs": [
        {
          "internalType": "uint256",
          "name": "movieId",
          "type": "uint256"
        },
        {
          "internalType": "uint256[]",
          "name": "ticketCosts",
          "type": "uint256[]"
        },
        {
          "internalType": "uint256[]",
          "name": "startTimes",
          "type": "uint256[]"
        },
        {
          "internalType": "uint256[]",
          "name": "endTimes",
          "type": "uint256[]"
        },
        {
          "internalType": "uint256[]",
          "name": "capacities",
          "type": "uint256[]"
        },
        {
          "internalType": "uint256[]",
          "name": "viewingDays",
          "type": "uint256[]"
        }
      ],
      "name": "addTimeslot",
      "outputs": [],
      "stateMutability": "nonpayable",
      "type": "function"
    },
    {
      "inputs": [],
      "name": "balance",
      "outputs": [
        {
          "internalType": "uint256",
          "name": "",
          "type": "uint256"
        }
      ],
      "stateMutability": "view",
      "type": "function"
    },
    {
      "inputs": [
        {
          "internalType": "uint256",
          "name": "movieId",
          "type": "uint256"
        },
        {
          "internalType": "uint256",
          "name": "slotId",
          "type": "uint256"
        },
        {
          "internalType": "uint256",
          "name": "tickets",
          "type": "uint256"
        }
      ],
      "name": "buyTicket",
      "outputs": [],
      "stateMutability": "payable",
      "type": "function"
    },
    {
      "inputs": [
        {
          "internalType": "uint256",
          "name": "movieId",
          "type": "uint256"
        }
      ],
      "name": "deleteMovie",
      "outputs": [],
      "stateMutability": "nonpayable",
      "type": "function"
    },
    {
      "inputs": [
        {
          "internalType": "uint256",
          "name": "movieId",
          "type": "uint256"
        },
        {
          "internalType": "uint256",
          "name": "slotId",
          "type": "uint256"
        }
      ],
      "name": "deleteTimeSlot",
      "outputs": [],
      "stateMutability": "nonpayable",
      "type": "function"
    },
    {
      "inputs": [
        {
          "internalType": "uint256",
          "name": "id",
          "type": "uint256"
        }
      ],
      "name": "getMovie",
      "outputs": [
        {
          "components": [
            {
              "internalType": "uint256",
              "name": "id",
              "type": "uint256"
            },
            {
              "internalType": "string",
              "name": "name",
              "type": "string"
            },
            {
              "internalType": "string",
              "name": "imageUrl",
              "type": "string"
            },
            {
              "internalType": "string",
              "name": "genre",
              "type": "string"
            },
            {
              "internalType": "string",
              "name": "description",
              "type": "string"
            },
            {
              "internalType": "uint256",
              "name": "timestamp",
              "type": "uint256"
            },
            {
              "internalType": "bool",
              "name": "deleted",
              "type": "bool"
            }
          ],
          "internalType": "struct DappCinemas.MovieStruct",
          "name": "",
          "type": "tuple"
        }
      ],
      "stateMutability": "view",
      "type": "function"
    },
    {
      "inputs": [
        {
          "internalType": "uint256",
          "name": "movieId",
          "type": "uint256"
        },
        {
          "internalType": "uint256",
          "name": "slotId",
          "type": "uint256"
        }
      ],
      "name": "getMovieTicketHolders",
      "outputs": [
        {
          "internalType": "address[]",
          "name": "",
          "type": "address[]"
        }
      ],
      "stateMutability": "view",
      "type": "function"
    },
    {
      "inputs": [
        {
          "internalType": "uint256",
          "name": "movieId",
          "type": "uint256"
        }
      ],
      "name": "getMovieTimeSlots",
      "outputs": [
        {
          "internalType": "uint256[]",
          "name": "MovieSlots",
          "type": "uint256[]"
        }
      ],
      "stateMutability": "view",
      "type": "function"
    },
    {
      "inputs": [],
      "name": "getMovies",
      "outputs": [
        {
          "components": [
            {
              "internalType": "uint256",
              "name": "id",
              "type": "uint256"
            },
            {
              "internalType": "string",
              "name": "name",
              "type": "string"
            },
            {
              "internalType": "string",
              "name": "imageUrl",
              "type": "string"
            },
            {
              "internalType": "string",
              "name": "genre",
              "type": "string"
            },
            {
              "internalType": "string",
              "name": "description",
              "type": "string"
            },
            {
              "internalType": "uint256",
              "name": "timestamp",
              "type": "uint256"
            },
            {
              "internalType": "bool",
              "name": "deleted",
              "type": "bool"
            }
          ],
          "internalType": "struct DappCinemas.MovieStruct[]",
          "name": "Movies",
          "type": "tuple[]"
        }
      ],
      "stateMutability": "view",
      "type": "function"
    },
    {
      "inputs": [
        {
          "internalType": "uint256",
          "name": "slotId",
          "type": "uint256"
        }
      ],
      "name": "getTimeSlot",
      "outputs": [
        {
          "components": [
            {
              "internalType": "uint256",
              "name": "id",
              "type": "uint256"
            },
            {
              "internalType": "uint256",
              "name": "movieId",
              "type": "uint256"
            },
            {
              "internalType": "uint256",
              "name": "ticketCost",
              "type": "uint256"
            },
            {
              "internalType": "uint256",
              "name": "startTime",
              "type": "uint256"
            },
            {
              "internalType": "uint256",
              "name": "endTime",
              "type": "uint256"
            },
            {
              "internalType": "uint256",
              "name": "capacity",
              "type": "uint256"
            },
            {
              "internalType": "uint256",
              "name": "seats",
              "type": "uint256"
            },
            {
              "internalType": "bool",
              "name": "deleted",
              "type": "bool"
            },
            {
              "internalType": "bool",
              "name": "published",
              "type": "bool"
            },
            {
              "internalType": "uint256",
              "name": "day",
              "type": "uint256"
            }
          ],
          "internalType": "struct DappCinemas.TimeSlotStruct",
          "name": "",
          "type": "tuple"
        }
      ],
      "stateMutability": "view",
      "type": "function"
    },
    {
      "inputs": [
        {
          "internalType": "uint256",
          "name": "movieId",
          "type": "uint256"
        }
      ],
      "name": "getTimeSlots",
      "outputs": [
        {
          "components": [
            {
              "internalType": "uint256",
              "name": "id",
              "type": "uint256"
            },
            {
              "internalType": "uint256",
              "name": "movieId",
              "type": "uint256"
            },
            {
              "internalType": "uint256",
              "name": "ticketCost",
              "type": "uint256"
            },
            {
              "internalType": "uint256",
              "name": "startTime",
              "type": "uint256"
            },
            {
              "internalType": "uint256",
              "name": "endTime",
              "type": "uint256"
            },
            {
              "internalType": "uint256",
              "name": "capacity",
              "type": "uint256"
            },
            {
              "internalType": "uint256",
              "name": "seats",
              "type": "uint256"
            },
            {
              "internalType": "bool",
              "name": "deleted",
              "type": "bool"
            },
            {
              "internalType": "bool",
              "name": "published",
              "type": "bool"
            },
            {
              "internalType": "uint256",
              "name": "day",
              "type": "uint256"
            }
          ],
          "internalType": "struct DappCinemas.TimeSlotStruct[]",
          "name": "MovieSlots",
          "type": "tuple[]"
        }
      ],
      "stateMutability": "view",
      "type": "function"
    },
    {
      "inputs": [],
      "name": "owner",
      "outputs": [
        {
          "internalType": "address",
          "name": "",
          "type": "address"
        }
      ],
      "stateMutability": "view",
      "type": "function"
    },
    {
      "inputs": [],
      "name": "renounceOwnership",
      "outputs": [],
      "stateMutability": "nonpayable",
      "type": "function"
    },
    {
      "inputs": [
        {
          "internalType": "address",
          "name": "newOwner",
          "type": "address"
        }
      ],
      "name": "transferOwnership",
      "outputs": [],
      "stateMutability": "nonpayable",
      "type": "function"
    },
    {
      "inputs": [
        {
          "internalType": "uint256",
          "name": "movieId",
          "type": "uint256"
        },
        {
          "internalType": "string",
          "name": "name",
          "type": "string"
        },
        {
          "internalType": "string",
          "name": "imageUrl",
          "type": "string"
        },
        {
          "internalType": "string",
          "name": "genre",
          "type": "string"
        },
        {
          "internalType": "string",
          "name": "description",
          "type": "string"
        }
      ],
      "name": "updateMovie",
      "outputs": [],
      "stateMutability": "nonpayable",
      "type": "function"
    },
    {
      "inputs": [
        {
          "internalType": "address",
          "name": "to",
          "type": "address"
        },
        {
          "internalType": "uint256",
          "name": "amount",
          "type": "uint256"
        }
      ],
      "name": "withdrawTo",
      "outputs": [],
      "stateMutability": "nonpayable",
      "type": "function"
    }
  ],
  "bytecode": "0x608060405234801561001057600080fd5b5061001a3361001f565b61006f565b600080546001600160a01b038381166001600160a01b0319831681178455604051919092169283917f8be0079c531659141344cd1fd0a4f28419497f9722a3daafe3b4186f6b6457e09190a35050565b6129e68061007e6000396000f3fe6080604052600436106100fe5760003560e01c806377340bba11610095578063af875f3511610064578063af875f35146102c1578063b69ef8a8146102ee578063bd4c5d2414610312578063c4c6710d14610332578063f2fde38b1461034557600080fd5b806377340bba1461022c5780637cd35a0a1461024c5780638da5cb5b146102795780638f70d440146102a157600080fd5b80632e130aca116100d15780632e130aca146101aa57806358a9525b146101d75780636b4f6cb7146101f7578063715018a61461021757600080fd5b8063179ffe7614610103578063205c2878146101395780632b85dcc91461015b5780632c53b40614610188575b600080fd5b34801561010f57600080fd5b5061012361011e3660046121de565b610365565b60405161013091906122d3565b60405180910390f35b34801561014557600080fd5b50610159610154366004612309565b6105fd565b005b34801561016757600080fd5b5061017b6101763660046121de565b610676565b60405161013091906123a0565b34801561019457600080fd5b5061019d61070b565b60405161013091906123af565b3480156101b657600080fd5b506101ca6101c53660046121de565b610aa3565b6040516101309190612411565b3480156101e357600080fd5b506101596101f2366004612455565b610cf3565b34801561020357600080fd5b506101596102123660046121de565b610e43565b34801561022357600080fd5b50610159610fc5565b34801561023857600080fd5b5061015961024736600461253e565b610fd9565b34801561025857600080fd5b5061026c6102673660046121de565b6113cc565b6040516101309190612618565b34801561028557600080fd5b506000546040516001600160a01b039091168152602001610130565b3480156102ad57600080fd5b506101596102bc3660046126cb565b611645565b3480156102cd57600080fd5b506102e16102dc366004612455565b6118f8565b6040516101309190612778565b3480156102fa57600080fd5b5061030460045481565b604051908152602001610130565b34801561031e57600080fd5b5061015961032d3660046127b9565b61196e565b610159610340366004612870565b611c8e565b34801561035157600080fd5b5061015961036036600461289c565b611eee565b61036d612091565b600660008381526020019081526020016000206040518060e0016040529081600082015481526020016001820180546103a5906128b7565b80601f01602080910402602001604051908101604052809291908181526020018280546103d1906128b7565b801561041e5780601f106103f35761010080835404028352916020019161041e565b820191906000526020600020905b81548152906001019060200180831161040157829003601f168201915b50505050508152602001600282018054610437906128b7565b80601f0160208091040260200160405190810160405280929190818152602001828054610463906128b7565b80156104b05780601f10610485576101008083540402835291602001916104b0565b820191906000526020600020905b81548152906001019060200180831161049357829003601f168201915b505050505081526020016003820180546104c9906128b7565b80601f01602080910402602001604051908101604052809291908181526020018280546104f5906128b7565b80156105425780601f1061051757610100808354040283529160200191610542565b820191906000526020600020905b81548152906001019060200180831161052557829003601f168201915b5050505050815260200160048201805461055b906128b7565b80601f0160208091040260200160405190810160405280929190818152602001828054610587906128b7565b80156105d45780601f106105a9576101008083540402835291602001916105d4565b820191906000526020600020905b8154815290600101906020018083116105b757829003601f168201915b50505091835250506005820154602082015260069091015460ff16151560409091015292915050565b610605611f67565b8060045410156106505760405162461bcd60e51b8152602060048201526011602482015270125b9cdd59999a58da595b9d08199d5b99607a1b60448201526064015b60405180910390fd5b80600460008282546106629190612908565b9091555061067290508282611fc1565b5050565b61067e6120d0565b50600090815260076020818152604092839020835161014081018552815481526001820154928101929092526002810154938201939093526003830154606082015260048301546080820152600583015460a0820152600683015460c08201529082015460ff808216151560e0840152610100918290041615159082015260089091015461012082015290565b6060600060015b6001548111610755576000818152600660208190526040909120015460ff16610743578161073f8161291f565b9250505b8061074d8161291f565b915050610712565b508067ffffffffffffffff81111561076f5761076f612477565b6040519080825280602002602001820160405280156107a857816020015b610795612091565b81526020019060019003908161078d5790505b509150600060015b6001548111610a9d576000818152600660208190526040909120015460ff16610a8b57600660008281526020019081526020016000206040518060e00160405290816000820154815260200160018201805461080b906128b7565b80601f0160208091040260200160405190810160405280929190818152602001828054610837906128b7565b80156108845780601f1061085957610100808354040283529160200191610884565b820191906000526020600020905b81548152906001019060200180831161086757829003601f168201915b5050505050815260200160028201805461089d906128b7565b80601f01602080910402602001604051908101604052809291908181526020018280546108c9906128b7565b80156109165780601f106108eb57610100808354040283529160200191610916565b820191906000526020600020905b8154815290600101906020018083116108f957829003601f168201915b5050505050815260200160038201805461092f906128b7565b80601f016020809104026020016040519081016040528092919081815260200182805461095b906128b7565b80156109a85780601f1061097d576101008083540402835291602001916109a8565b820191906000526020600020905b81548152906001019060200180831161098b57829003601f168201915b505050505081526020016004820180546109c1906128b7565b80601f01602080910402602001604051908101604052809291908181526020018280546109ed906128b7565b8015610a3a5780601f10610a0f57610100808354040283529160200191610a3a565b820191906000526020600020905b815481529060010190602001808311610a1d57829003601f168201915b50505091835250506005820154602082015260069091015460ff1615156040909101528451859084908110610a7157610a7161293a565b60200260200101819052508180610a879061291f565b9250505b80610a958161291f565b9150506107b0565b50505090565b60606000805b600354811015610b5c578360076000610ac3846001612950565b815260200190815260200160002060010154148015610b05575060076000610aec836001612950565b815260208101919091526040016000206007015460ff16155b8015610b375750610b14612026565b60076000610b23846001612950565b815260200190815260200160002060030154115b15610b4a5781610b468161291f565b9250505b80610b548161291f565b915050610aa9565b50610b68816002612968565b67ffffffffffffffff811115610b8057610b80612477565b604051908082528060200260200182016040528015610ba9578160200160208202803683370190505b5091506000805b600354811015610ceb578460076000610bca846001612950565b815260200190815260200160002060010154148015610c0c575060076000610bf3836001612950565b815260208101919091526040016000206007015460ff16155b8015610c3e5750610c1b612026565b60076000610c2a846001612950565b815260200190815260200160002060030154115b15610cd95760076000610c52836001612950565b815260200190815260200160002060030154848380610c709061291f565b945081518110610c8257610c8261293a565b602090810291909101015260076000610c9c836001612950565b815260200190815260200160002060040154848380610cba9061291f565b945081518110610ccc57610ccc61293a565b6020026020010181815250505b80610ce38161291f565b915050610bb0565b505050919050565b610cfb611f67565b60008281526005602052604090205460ff168015610d29575060008181526007602052604090206001015482145b610d455760405162461bcd60e51b815260040161064790612987565b6000818152600760208190526040822001805460ff191660011790555b6000838152600860209081526040808320858452909152902054811015610e2057600083815260086020908152604080832085845290915290208054610de3919083908110610db357610db361293a565b600091825260208083209091015485835260079091526040909120600201546001600160a01b0390911690611fc1565b6000828152600760205260408120600201546004805491929091610e08908490612908565b90915550819050610e188161291f565b915050610d62565b506000828152600860209081526040808320848452909152812061067291612127565b610e4b611f67565b60008181526005602052604090205460ff16610ea05760405162461bcd60e51b81526020600482015260146024820152734d6f76696520646f65736e27742065786973742160601b6044820152606401610647565b60015b6003548111610f92576000828152600860209081526040808320848452825280832080548251818502810185019093528083529192909190830182828015610f1457602002820191906000526020600020905b81546001600160a01b03168152600190910190602001808311610ef6575b505050505090508051600014610f7f5760405162461bcd60e51b815260206004820152602a60248201527f43616e6e6f742064656c657465206d6f766965207769746820707572636861736044820152696564207469636b65747360b01b6064820152608401610647565b5080610f8a8161291f565b915050610ea3565b506000908152600660208181526040808420909201805460ff199081166001179091556005909152912080549091169055565b610fcd611f67565b610fd76000612041565b565b610fe1611f67565b60008681526005602052604090205460ff1661100f5760405162461bcd60e51b815260040161064790612987565b60008551116110605760405162461bcd60e51b815260206004820152601e60248201527f5469636b65747320636f7374206d757374206e6f7420626520656d70747900006044820152606401610647565b60008251116110b15760405162461bcd60e51b815260206004820152601c60248201527f43617061636974696573206d757374206e6f7420626520656d707479000000006044820152606401610647565b600084511161110d5760405162461bcd60e51b815260206004820152602260248201527f53746172742074696d657320636f7374206d757374206e6f7420626520656d70604482015261747960f01b6064820152608401610647565b600083511161115e5760405162461bcd60e51b815260206004820181905260248201527f456e642074696d657320636f7374206d757374206e6f7420626520656d7074796044820152606401610647565b60008151116111af5760405162461bcd60e51b815260206004820152601e60248201527f56696577696e672064617973206d757374206e6f7420626520656d70747900006044820152606401610647565b805185511480156111c1575081518151145b80156111ce575083518251145b80156111db575082518451145b80156111e8575080518351145b6112485760405162461bcd60e51b815260206004820152602b60248201527f416c6c20706172616d6574657273206d757374206861766520657175616c206160448201526a0e4e4c2f240d8cadccee8d60ab1b6064820152608401610647565b60005b81518110156113c357611262600380546001019055565b61126a6120d0565b600354815260208101889052865187908390811061128a5761128a61293a565b60200260200101518160400181815250508582815181106112ad576112ad61293a565b60200260200101518160600181815250508482815181106112d0576112d061293a565b60200260200101518160800181815250508282815181106112f3576112f361293a565b6020026020010151816101200181815250508382815181106113175761131761293a565b60209081029190910181015160a083019081528251600090815260078084526040918290208551815593850151600185015590840151600284015560608401516003840155608084015160048401559051600583015560c0830151600683015560e083015190820180546101008086015115150261ff00199315159390931661ffff199091161791909117905561012090910151600890910155806113bb8161291f565b91505061124b565b50505050505050565b60606000805b6003548110156114855783600760006113ec846001612950565b81526020019081526020016000206001015414801561142e575060076000611415836001612950565b815260208101919091526040016000206007015460ff16155b8015611460575061143d612026565b6007600061144c846001612950565b815260200190815260200160002060030154115b15611473578161146f8161291f565b9250505b8061147d8161291f565b9150506113d2565b508067ffffffffffffffff81111561149f5761149f612477565b6040519080825280602002602001820160405280156114d857816020015b6114c56120d0565b8152602001906001900390816114bd5790505b5091506000805b600354811015610ceb5784600760006114f9846001612950565b81526020019081526020016000206001015414801561153b575060076000611522836001612950565b815260208101919091526040016000206007015460ff16155b801561156d575061154a612026565b60076000611559846001612950565b815260200190815260200160002060030154115b156116335760076000611581836001612950565b81526020808201929092526040908101600020815161014081018352815481526001820154938101939093526002810154918301919091526003810154606083015260048101546080830152600581015460a0830152600681015460c0830152600781015460ff808216151560e085015261010091829004161515908301526008015461012082015284836116158161291f565b9450815181106116275761162761293a565b60200260200101819052505b8061163d8161291f565b9150506114df565b61164d611f67565b60008451116116945760405162461bcd60e51b8152602060048201526013602482015272135bdd9a59481b985b59481c995c5d5a5c9959606a1b6044820152606401610647565b60008351116116e55760405162461bcd60e51b815260206004820152601860248201527f4d6f76696520696d6167652075726c20726571756972656400000000000000006044820152606401610647565b600082511161172d5760405162461bcd60e51b8152602060048201526014602482015273135bdd9a594819d95b9c99481c995c5d5a5c995960621b6044820152606401610647565b600081511161177e5760405162461bcd60e51b815260206004820152601a60248201527f4d6f766965206465736372697074696f6e2072657175697265640000000000006044820152606401610647565b61178c600180546001019055565b611794612091565b6001548152602081018590526040810184905260608101839052608081018290526117bd612026565b60a0820152805160009081526006602090815260409091208251815581830151805184936117f2926001850192910190612145565b506040820151805161180e916002840191602090910190612145565b506060820151805161182a916003840191602090910190612145565b5060808201518051611846916004840191602090910190612145565b5060a082015160058083019190915560c0909201516006909101805491151560ff199283161790558251600090815260209290925260409182902080549091166001179055517f8b2c14fe955d044ef95ba32b88d2ceb87c6f73fcefdcebe906063a6d75690f27906118e99060208082526018908201527f4d6f766965206164646564207375636365737366756c6c790000000000000000604082015260600190565b60405180910390a15050505050565b600082815260086020908152604080832084845282529182902080548351818402810184019094528084526060939283018282801561196057602002820191906000526020600020905b81546001600160a01b03168152600190910190602001808311611942575b505050505090505b92915050565b611976611f67565b60008581526005602052604090205460ff166119cb5760405162461bcd60e51b81526020600482015260146024820152734d6f76696520646f65736e27742065786973742160601b6044820152606401610647565b6000845111611a125760405162461bcd60e51b8152602060048201526013602482015272135bdd9a59481b985b59481c995c5d5a5c9959606a1b6044820152606401610647565b6000835111611a635760405162461bcd60e51b815260206004820152601860248201527f4d6f76696520696d6167652055524c20726571756972656400000000000000006044820152606401610647565b6000825111611aab5760405162461bcd60e51b8152602060048201526014602482015273135bdd9a594819d95b9c99481c995c5d5a5c995960621b6044820152606401610647565b6000815111611afc5760405162461bcd60e51b815260206004820152601a60248201527f4d6f766965206465736372697074696f6e2072657175697265640000000000006044820152606401610647565b60015b6003548111611b965760008681526008602090815260408083208484529091529020805415611b835760405162461bcd60e51b815260206004820152602a60248201527f43616e6e6f7420757064617465206d6f766965207769746820707572636861736044820152696564207469636b65747360b01b6064820152608401610647565b5080611b8e8161291f565b915050611aff565b5060008581526006602090815260409091208551611bbc92600190920191870190612145565b5060008581526006602090815260409091208451611be292600290920191860190612145565b5060008581526006602090815260409091208351611c0892600390920191850190612145565b5060008581526006602090815260409091208251611c2e92600490920191840190612145565b507f8b2c14fe955d044ef95ba32b88d2ceb87c6f73fcefdcebe906063a6d75690f276040516118e9906020808252601a908201527f4d6f7669652075706461746564207375636365737366756c6c79000000000000604082015260600190565b60008381526005602052604090205460ff168015611cbc575060008281526007602052604090206001015483145b611cd85760405162461bcd60e51b815260040161064790612987565b600082815260076020526040902060020154611cf5908290612968565b341015611d3a5760405162461bcd60e51b8152602060048201526013602482015272125b9cdd59999a58da595b9d08185b5bdd5b9d606a1b6044820152606401610647565b6000828152600760205260409020600681015460059091015410611d925760405162461bcd60e51b815260206004820152600f60248201526e4f7574206f6620636170616369747960881b6044820152606401610647565b60005b81811015611e8f57611dab600280546001019055565b611dfe60405180610100016040528060008152602001600081526020016000815260200160006001600160a01b031681526020016000815260200160008152602001600081526020016000151581525090565b6002805482526000858152600760208181526040808420948501546080870152928890525260089091015460c08301528101849052336060820152611e41612026565b60a090910152600084815260086020908152604080832086845282528220805460018101825590835291200180546001600160a01b0319163317905580611e878161291f565b915050611d95565b50600082815260076020526040902060020154611ead908290612968565b60046000828254611ebe9190612950565b909155505060008281526007602052604081206006018054839290611ee4908490612950565b9091555050505050565b611ef6611f67565b6001600160a01b038116611f5b5760405162461bcd60e51b815260206004820152602660248201527f4f776e61626c653a206e6577206f776e657220697320746865207a65726f206160448201526564647265737360d01b6064820152608401610647565b611f6481612041565b50565b6000546001600160a01b03163314610fd75760405162461bcd60e51b815260206004820181905260248201527f4f776e61626c653a2063616c6c6572206973206e6f7420746865206f776e65726044820152606401610647565b6000826001600160a01b03168260405160006040518083038185875af1925050503d806000811461200e576040519150601f19603f3d011682016040523d82523d6000602084013e612013565b606091505b505090508061202157600080fd5b505050565b600080612035426103e8612968565b611968906103e8612950565b600080546001600160a01b038381166001600160a01b0319831681178455604051919092169283917f8be0079c531659141344cd1fd0a4f28419497f9722a3daafe3b4186f6b6457e09190a35050565b6040518060e001604052806000815260200160608152602001606081526020016060815260200160608152602001600081526020016000151581525090565b60405180610140016040528060008152602001600081526020016000815260200160008152602001600081526020016000815260200160008152602001600015158152602001600015158152602001600081525090565b5080546000825590600052602060002090810190611f6491906121c9565b828054612151906128b7565b90600052602060002090601f01602090048101928261217357600085556121b9565b82601f1061218c57805160ff19168380011785556121b9565b828001600101855582156121b9579182015b828111156121b957825182559160200191906001019061219e565b506121c59291506121c9565b5090565b5b808211156121c557600081556001016121ca565b6000602082840312156121f057600080fd5b5035919050565b6000815180845260005b8181101561221d57602081850181015186830182015201612201565b8181111561222f576000602083870101525b50601f01601f19169290920160200192915050565b805182526000602082015160e0602085015261226360e08501826121f7565b90506040830151848203604086015261227c82826121f7565b9150506060830151848203606086015261229682826121f7565b915050608083015184820360808601526122b082826121f7565b91505060a083015160a085015260c0830151151560c08501528091505092915050565b6020815260006122e66020830184612244565b9392505050565b80356001600160a01b038116811461230457600080fd5b919050565b6000806040838503121561231c57600080fd5b612325836122ed565b946020939093013593505050565b805182526020810151602083015260408101516040830152606081015160608301526080810151608083015260a081015160a083015260c081015160c083015260e081015161238660e084018215159052565b506101008181015115159083015261012090810151910152565b61014081016119688284612333565b6000602080830181845280855180835260408601915060408160051b870101925083870160005b8281101561240457603f198886030184526123f2858351612244565b945092850192908501906001016123d6565b5092979650505050505050565b6020808252825182820181905260009190848201906040850190845b818110156124495783518352928401929184019160010161242d565b50909695505050505050565b6000806040838503121561246857600080fd5b50508035926020909101359150565b634e487b7160e01b600052604160045260246000fd5b604051601f8201601f1916810167ffffffffffffffff811182821017156124b6576124b6612477565b604052919050565b600082601f8301126124cf57600080fd5b8135602067ffffffffffffffff8211156124eb576124eb612477565b8160051b6124fa82820161248d565b928352848101820192828101908785111561251457600080fd5b83870192505b848310156125335782358252918301919083019061251a565b979650505050505050565b60008060008060008060c0878903121561255757600080fd5b86359550602087013567ffffffffffffffff8082111561257657600080fd5b6125828a838b016124be565b9650604089013591508082111561259857600080fd5b6125a48a838b016124be565b955060608901359150808211156125ba57600080fd5b6125c68a838b016124be565b945060808901359150808211156125dc57600080fd5b6125e88a838b016124be565b935060a08901359150808211156125fe57600080fd5b5061260b89828a016124be565b9150509295509295509295565b6020808252825182820181905260009190848201906040850190845b8181101561244957612647838551612333565b928401926101409290920191600101612634565b600082601f83011261266c57600080fd5b813567ffffffffffffffff81111561268657612686612477565b612699601f8201601f191660200161248d565b8181528460208386010111156126ae57600080fd5b816020850160208301376000918101602001919091529392505050565b600080600080608085870312156126e157600080fd5b843567ffffffffffffffff808211156126f957600080fd5b6127058883890161265b565b9550602087013591508082111561271b57600080fd5b6127278883890161265b565b9450604087013591508082111561273d57600080fd5b6127498883890161265b565b9350606087013591508082111561275f57600080fd5b5061276c8782880161265b565b91505092959194509250565b6020808252825182820181905260009190848201906040850190845b818110156124495783516001600160a01b031683529284019291840191600101612794565b600080600080600060a086880312156127d157600080fd5b85359450602086013567ffffffffffffffff808211156127f057600080fd5b6127fc89838a0161265b565b9550604088013591508082111561281257600080fd5b61281e89838a0161265b565b9450606088013591508082111561283457600080fd5b61284089838a0161265b565b9350608088013591508082111561285657600080fd5b506128638882890161265b565b9150509295509295909350565b60008060006060848603121561288557600080fd5b505081359360208301359350604090920135919050565b6000602082840312156128ae57600080fd5b6122e6826122ed565b600181811c908216806128cb57607f821691505b602082108114156128ec57634e487b7160e01b600052602260045260246000fd5b50919050565b634e487b7160e01b600052601160045260246000fd5b60008282101561291a5761291a6128f2565b500390565b6000600019821415612933576129336128f2565b5060010190565b634e487b7160e01b600052603260045260246000fd5b60008219821115612963576129636128f2565b500190565b6000816000190483118215151615612982576129826128f2565b500290565b6020808252600f908201526e135bdd9a59481b9bdd08199bdd5b99608a1b60408201526060019056fea2646970667358221220d480f592a7f24843d2e21bf5dc38cd74e0a7e6035c100b3c6355bf648528961264736f6c634300080b0033",
  "linkReferences": {},
  "deployedLinkReferences": {}
}